{
  "_format": "hh-sol-artifact-1",
  "contractName": "BondingCurveLaunch",
  "sourceName": "contracts/BondingCurveLaunch.sol",
  "abi": [
    {
      "inputs": [],
      "name": "EnforcedPause",
      "type": "error"
    },
    {
      "inputs": [],
      "name": "ExpectedPause",
      "type": "error"
    },
    {
      "inputs": [],
      "name": "InvalidInitialization",
      "type": "error"
    },
    {
      "inputs": [],
      "name": "NotInitializing",
      "type": "error"
    },
    {
      "inputs": [
        {
          "internalType": "address",
          "name": "owner",
          "type": "address"
        }
      ],
      "name": "OwnableInvalidOwner",
      "type": "error"
    },
    {
      "inputs": [
        {
          "internalType": "address",
          "name": "account",
          "type": "address"
        }
      ],
      "name": "OwnableUnauthorizedAccount",
      "type": "error"
    },
    {
      "inputs": [],
      "name": "ReentrancyGuardReentrantCall",
      "type": "error"
    },
    {
      "anonymous": false,
      "inputs": [
        {
          "indexed": true,
          "internalType": "address",
          "name": "buyer",
          "type": "address"
        },
        {
          "indexed": false,
          "internalType": "uint256",
          "name": "amountIn",
          "type": "uint256"
        },
        {
          "indexed": false,
          "internalType": "uint256",
          "name": "amountOut",
          "type": "uint256"
        }
      ],
      "name": "Bought",
      "type": "event"
    },
    {
      "anonymous": false,
      "inputs": [
        {
          "indexed": false,
          "internalType": "uint256",
          "name": "amount",
          "type": "uint256"
        }
      ],
      "name": "InitialSupplySeeded",
      "type": "event"
    },
    {
      "anonymous": false,
      "inputs": [
        {
          "indexed": false,
          "internalType": "uint64",
          "name": "version",
          "type": "uint64"
        }
      ],
      "name": "Initialized",
      "type": "event"
    },
    {
      "anonymous": false,
      "inputs": [
        {
          "indexed": false,
          "internalType": "uint256",
          "name": "reserve",
          "type": "uint256"
        }
      ],
      "name": "LPThresholdReached",
      "type": "event"
    },
    {
      "anonymous": false,
      "inputs": [
        {
          "indexed": true,
          "internalType": "address",
          "name": "newManager",
          "type": "address"
        }
      ],
      "name": "LiquidityManagerChanged",
      "type": "event"
    },
    {
      "anonymous": false,
      "inputs": [
        {
          "indexed": false,
          "internalType": "uint256",
          "name": "newThreshold",
          "type": "uint256"
        }
      ],
      "name": "LpThresholdChanged",
      "type": "event"
    },
    {
      "anonymous": false,
      "inputs": [
        {
          "indexed": true,
          "internalType": "address",
          "name": "account",
          "type": "address"
        },
        {
          "indexed": false,
          "internalType": "bool",
          "name": "isModerator",
          "type": "bool"
        }
      ],
      "name": "ModUpdated",
      "type": "event"
    },
    {
      "anonymous": false,
      "inputs": [
        {
          "indexed": true,
          "internalType": "address",
          "name": "previousOwner",
          "type": "address"
        },
        {
          "indexed": true,
          "internalType": "address",
          "name": "newOwner",
          "type": "address"
        }
      ],
      "name": "OwnershipTransferred",
      "type": "event"
    },
    {
      "anonymous": false,
      "inputs": [
        {
          "indexed": false,
          "internalType": "address",
          "name": "account",
          "type": "address"
        }
      ],
      "name": "Paused",
      "type": "event"
    },
    {
      "anonymous": false,
      "inputs": [
        {
          "indexed": true,
          "internalType": "address",
          "name": "caller",
          "type": "address"
        }
      ],
      "name": "RefundModeEnabled",
      "type": "event"
    },
    {
      "anonymous": false,
      "inputs": [
        {
          "indexed": true,
          "internalType": "address",
          "name": "user",
          "type": "address"
        },
        {
          "indexed": false,
          "internalType": "uint256",
          "name": "amountIn",
          "type": "uint256"
        },
        {
          "indexed": false,
          "internalType": "uint256",
          "name": "ethOut",
          "type": "uint256"
        }
      ],
      "name": "Refunded",
      "type": "event"
    },
    {
      "anonymous": false,
      "inputs": [
        {
          "indexed": false,
          "internalType": "uint64",
          "name": "start",
          "type": "uint64"
        }
      ],
      "name": "SaleStartScheduled",
      "type": "event"
    },
    {
      "anonymous": false,
      "inputs": [
        {
          "indexed": true,
          "internalType": "address",
          "name": "seller",
          "type": "address"
        },
        {
          "indexed": false,
          "internalType": "uint256",
          "name": "amountIn",
          "type": "uint256"
        },
        {
          "indexed": false,
          "internalType": "uint256",
          "name": "amountOut",
          "type": "uint256"
        }
      ],
      "name": "Sold",
      "type": "event"
    },
    {
      "anonymous": false,
      "inputs": [
        {
          "indexed": false,
          "internalType": "uint16",
          "name": "newFeeBps",
          "type": "uint16"
        }
      ],
      "name": "TradeFeeBpsChanged",
      "type": "event"
    },
    {
      "anonymous": false,
      "inputs": [
        {
          "indexed": false,
          "internalType": "address",
          "name": "account",
          "type": "address"
        }
      ],
      "name": "Unpaused",
      "type": "event"
    },
    {
      "inputs": [],
      "name": "buy",
      "outputs": [],
      "stateMutability": "payable",
      "type": "function"
    },
    {
      "inputs": [],
      "name": "createLiquidity",
      "outputs": [],
      "stateMutability": "nonpayable",
      "type": "function"
    },
    {
      "inputs": [],
      "name": "enableRefundMode",
      "outputs": [],
      "stateMutability": "nonpayable",
      "type": "function"
    },
    {
      "inputs": [],
      "name": "factory",
      "outputs": [
        {
          "internalType": "address",
          "name": "",
          "type": "address"
        }
      ],
      "stateMutability": "view",
      "type": "function"
    },
    {
      "inputs": [],
      "name": "feeRecipient",
      "outputs": [
        {
          "internalType": "address",
          "name": "",
          "type": "address"
        }
      ],
      "stateMutability": "view",
      "type": "function"
    },
    {
      "inputs": [],
      "name": "getCurrentPrice",
      "outputs": [
        {
          "internalType": "uint256",
          "name": "",
          "type": "uint256"
        }
      ],
      "stateMutability": "view",
      "type": "function"
    },
    {
      "inputs": [
        {
          "internalType": "uint256",
          "name": "tokenAmount",
          "type": "uint256"
        }
      ],
      "name": "getPriceForAmount",
      "outputs": [
        {
          "internalType": "uint256",
          "name": "",
          "type": "uint256"
        }
      ],
      "stateMutability": "view",
      "type": "function"
    },
    {
      "inputs": [
        {
          "internalType": "address",
          "name": "_tokenAddress",
          "type": "address"
        },
        {
          "internalType": "address",
          "name": "_owner",
          "type": "address"
        },
        {
          "internalType": "uint256",
          "name": "_p0",
          "type": "uint256"
        },
        {
          "internalType": "uint256",
          "name": "_k",
          "type": "uint256"
        },
        {
          "internalType": "uint256",
          "name": "_lpThreshold",
          "type": "uint256"
        },
        {
          "internalType": "uint16",
          "name": "_tradeFeeBps",
          "type": "uint16"
        },
        {
          "internalType": "address",
          "name": "_feeRecipient",
          "type": "address"
        },
        {
          "internalType": "address",
          "name": "_liquidityManager",
          "type": "address"
        },
        {
          "internalType": "uint256",
          "name": "_maxSupply",
          "type": "uint256"
        },
        {
          "internalType": "address",
          "name": "_factory",
          "type": "address"
        }
      ],
      "name": "initialize",
      "outputs": [],
      "stateMutability": "nonpayable",
      "type": "function"
    },
    {
      "inputs": [
        {
          "internalType": "address",
          "name": "",
          "type": "address"
        }
      ],
      "name": "isMod",
      "outputs": [
        {
          "internalType": "bool",
          "name": "",
          "type": "bool"
        }
      ],
      "stateMutability": "view",
      "type": "function"
    },
    {
      "inputs": [],
      "name": "isSaleLive",
      "outputs": [
        {
          "internalType": "bool",
          "name": "",
          "type": "bool"
        }
      ],
      "stateMutability": "view",
      "type": "function"
    },
    {
      "inputs": [],
      "name": "k",
      "outputs": [
        {
          "internalType": "uint256",
          "name": "",
          "type": "uint256"
        }
      ],
      "stateMutability": "view",
      "type": "function"
    },
    {
      "inputs": [],
      "name": "liquidityCreated",
      "outputs": [
        {
          "internalType": "bool",
          "name": "",
          "type": "bool"
        }
      ],
      "stateMutability": "view",
      "type": "function"
    },
    {
      "inputs": [],
      "name": "liquidityManager",
      "outputs": [
        {
          "internalType": "address",
          "name": "",
          "type": "address"
        }
      ],
      "stateMutability": "view",
      "type": "function"
    },
    {
      "inputs": [],
      "name": "lpReserveBps",
      "outputs": [
        {
          "internalType": "uint16",
          "name": "",
          "type": "uint16"
        }
      ],
      "stateMutability": "view",
      "type": "function"
    },
    {
      "inputs": [],
      "name": "lpThreshold",
      "outputs": [
        {
          "internalType": "uint256",
          "name": "",
          "type": "uint256"
        }
      ],
      "stateMutability": "view",
      "type": "function"
    },
    {
      "inputs": [],
      "name": "lpTokensReserved",
      "outputs": [
        {
          "internalType": "uint256",
          "name": "",
          "type": "uint256"
        }
      ],
      "stateMutability": "view",
      "type": "function"
    },
    {
      "inputs": [],
      "name": "maxSupply",
      "outputs": [
        {
          "internalType": "uint256",
          "name": "",
          "type": "uint256"
        }
      ],
      "stateMutability": "view",
      "type": "function"
    },
    {
      "inputs": [],
      "name": "moonToken",
      "outputs": [
        {
          "internalType": "contract IMoonToken",
          "name": "",
          "type": "address"
        }
      ],
      "stateMutability": "view",
      "type": "function"
    },
    {
      "inputs": [],
      "name": "owner",
      "outputs": [
        {
          "internalType": "address",
          "name": "",
          "type": "address"
        }
      ],
      "stateMutability": "view",
      "type": "function"
    },
    {
      "inputs": [],
      "name": "p0",
      "outputs": [
        {
          "internalType": "uint256",
          "name": "",
          "type": "uint256"
        }
      ],
      "stateMutability": "view",
      "type": "function"
    },
    {
      "inputs": [],
      "name": "pause",
      "outputs": [],
      "stateMutability": "nonpayable",
      "type": "function"
    },
    {
      "inputs": [],
      "name": "paused",
      "outputs": [
        {
          "internalType": "bool",
          "name": "",
          "type": "bool"
        }
      ],
      "stateMutability": "view",
      "type": "function"
    },
    {
      "inputs": [
        {
          "internalType": "uint256",
          "name": "amount",
          "type": "uint256"
        }
      ],
      "name": "refund",
      "outputs": [],
      "stateMutability": "nonpayable",
      "type": "function"
    },
    {
      "inputs": [],
      "name": "refundMode",
      "outputs": [
        {
          "internalType": "bool",
          "name": "",
          "type": "bool"
        }
      ],
      "stateMutability": "view",
      "type": "function"
    },
    {
      "inputs": [],
      "name": "renounceOwnership",
      "outputs": [],
      "stateMutability": "nonpayable",
      "type": "function"
    },
    {
      "inputs": [],
      "name": "saleStart",
      "outputs": [
        {
          "internalType": "uint64",
          "name": "",
          "type": "uint64"
        }
      ],
      "stateMutability": "view",
      "type": "function"
    },
    {
      "inputs": [],
      "name": "seedInitialSupply",
      "outputs": [],
      "stateMutability": "nonpayable",
      "type": "function"
    },
    {
      "inputs": [],
      "name": "seeded",
      "outputs": [
        {
          "internalType": "bool",
          "name": "",
          "type": "bool"
        }
      ],
      "stateMutability": "view",
      "type": "function"
    },
    {
      "inputs": [
        {
          "internalType": "uint256",
          "name": "amount",
          "type": "uint256"
        }
      ],
      "name": "sell",
      "outputs": [],
      "stateMutability": "nonpayable",
      "type": "function"
    },
    {
      "inputs": [
        {
          "internalType": "address",
          "name": "_manager",
          "type": "address"
        }
      ],
      "name": "setLiquidityManager",
      "outputs": [],
      "stateMutability": "nonpayable",
      "type": "function"
    },
    {
      "inputs": [
        {
          "internalType": "uint256",
          "name": "_newThreshold",
          "type": "uint256"
        }
      ],
      "name": "setLpThreshold",
      "outputs": [],
      "stateMutability": "nonpayable",
      "type": "function"
    },
    {
      "inputs": [
        {
          "internalType": "address",
          "name": "account",
          "type": "address"
        },
        {
          "internalType": "bool",
          "name": "mod_",
          "type": "bool"
        }
      ],
      "name": "setMod",
      "outputs": [],
      "stateMutability": "nonpayable",
      "type": "function"
    },
    {
      "inputs": [
        {
          "internalType": "uint64",
          "name": "start",
          "type": "uint64"
        }
      ],
      "name": "setSaleStart",
      "outputs": [],
      "stateMutability": "nonpayable",
      "type": "function"
    },
    {
      "inputs": [
        {
          "internalType": "uint16",
          "name": "_newFeeBps",
          "type": "uint16"
        }
      ],
      "name": "setTradeFeeBps",
      "outputs": [],
      "stateMutability": "nonpayable",
      "type": "function"
    },
    {
      "inputs": [],
      "name": "sold",
      "outputs": [
        {
          "internalType": "uint256",
          "name": "",
          "type": "uint256"
        }
      ],
      "stateMutability": "view",
      "type": "function"
    },
    {
      "inputs": [],
      "name": "tradeFeeBps",
      "outputs": [
        {
          "internalType": "uint16",
          "name": "",
          "type": "uint16"
        }
      ],
      "stateMutability": "view",
      "type": "function"
    },
    {
      "inputs": [
        {
          "internalType": "address",
          "name": "newOwner",
          "type": "address"
        }
      ],
      "name": "transferOwnership",
      "outputs": [],
      "stateMutability": "nonpayable",
      "type": "function"
    },
    {
      "inputs": [],
      "name": "unpause",
      "outputs": [],
      "stateMutability": "nonpayable",
      "type": "function"
    }
  ],
  "bytecode": "0x6080806040523461001657612820908161001c8239f35b600080fdfe608060408181526004918236101561001657600080fd5b600092833560e01c91826299b23014611b735750816302c7e7af14611b54578163078a424514611b3457816318cedbfc14611b0d57816320f6d643146117db578163264e49db146117bc578163278ecde114611578578163334041a614611554578163338274381461152b5781633468145a146115035781633c1624d4146114585781633f4ba83a14611398578163469048401461136c5781635c975abb1461133b5781635faad8c514611319578163708ba455146112fa578163715018a61461128f5781637b6113e4146110f65781638456cb591461102d5781638988b28414610fef5781638da5cb5b14610fb95781639da36bbf14610e29578163a474030314610e0a578163a6f2ae3a1461096d578163ab0bcc4114610944578163b3a891c914610889578163b4f40c611461086a578163c45a015514610841578163c7af2a9c14610790578163c8cb47cb1461076d578163ce544e2e146106c0578163d35ddacb146105a3578163d5abeb0114610584578163e4849b32146102e8578163e8aba58e146102c3578163eb91d37e1461025d57508063f2fde38b1461022d5763f71143ca146101c657600080fd5b34610229578160031936011261022957600c5460209167ffffffffffffffff8216421015918261021b575b5081610200575b519015158152f35b6000805160206127ab8339815191525460ff161591506101f8565b811c60ff16159150836101f1565b5080fd5b823461025a57602036600319011261025a5761025761024a611c79565b6102526120bf565b61201b565b80f35b80fd5b82843461025a578060031936011261025a5760015492670de0b6b3a7640000938481029481860414901517156102b0576020836102a9866102a360025460095490611d5b565b90611d84565b9051908152f35b634e487b7160e01b825260119052602490fd5b505034610229578160031936011261022957600c548151911c60ff1615158152602090f35b83833461022957602090816003193601126105805783359161030861208f565b6103106120f8565b61033767ffffffffffffffff600c5461032e60ff82871c1615611f3e565b16421015611f78565b82156105485761034b60ff60085416611e43565b6009549061035b84831015611e7c565b845483516323b872dd60e01b81523388820152306024820152604481018690526001600160a01b0393918390829060649082908b9089165af1801561053e57610511575b50600254806104915750670de0b6b3a76400006103be86600154611d5b565b045b60c8810281810460c8148215171561047e5791879887987fbac9694ac0daa55169abd117086fe32c89401d9a3b15dd1d34e55e0aa4e47a9d989361040c61271061043497048092611d91565b9781610457575b505061042f915080808089335af1610429611eb9565b50611ef9565b611d91565b60095582519485528401523392a260016000805160206127cb8339815191525580f35b8280928192610475965460101c165af161046f611eb9565b50611fcf565b89898180610413565b634e487b7160e01b885260118952602488fd5b6104ef6001546104e6670de0b6b3a7640000936104d38a6104e06104d96104be89808c0494048098611d5b565b966104d36104cc8286611d84565b9185611d84565b90611d5b565b9180611d5b565b90611d91565b60011c90611d84565b81810291818304149015176103c057634e487b7160e01b875260118852602487fd5b61053090833d8511610537575b6105288183611cb9565b810190611fb7565b508761039f565b503d61051e565b85513d89823e3d90fd5b8490606492519162461bcd60e51b835282015260136024820152724d7573742073656c6c20736f6d657468696e6760681b6044820152fd5b8280fd5b5050346102295781600319360112610229576020906007549051908152f35b8391503461022957602090816003193601126105805780359061ffff82168092036106bb576006548551638da5cb5b60e01b81526001600160a01b0391859082908590829086165afa9081156106b1579061060992918791610684575b50163314611cfa565b6103e8821161064957937f08f6c2b2b5b95a33c6a8871acf4e7a0ff9c68627cbfed148744d97691e3f46ba93948261ffff1982541617905551908152a180f35b845162461bcd60e51b815290810183905260156024820152744665652063616e6e6f74206578636565642031302560581b6044820152606490fd5b6106a49150863d88116106aa575b61069c8183611cb9565b810190611cdb565b88610600565b503d610692565b87513d88823e3d90fd5b600080fd5b905034610580576020366003190112610580576006548251638da5cb5b60e01b81528235926001600160a01b03926020918391829086165afa90811561076357602093927fffdfcd8eae5905cc8c33f87cb13a5df06766499318d99a5fcd3e5fa60fe74a23959261073a9288916107465750163314611cfa565b8160035551908152a180f35b61075d9150863d88116106aa5761069c8183611cb9565b38610600565b84513d87823e3d90fd5b50503461022957816003193601126102295760209061ffff600a54169051908152f35b9050346105805782600319360112610580576006548251638da5cb5b60e01b81526001600160a01b039290916020918391829086165afa9081156108345760ff926107fd94926107e992879161081b5750163314611cfa565b6107f161208f565b600c54901c1615611f3e565b6108064761230d565b60016000805160206127cb8339815191525580f35b61075d915060203d6020116106aa5761069c8183611cb9565b50505051903d90823e3d90fd5b50503461022957816003193601126102295760065490516001600160a01b039091168152602090f35b5050346102295781600319360112610229576020906002549051908152f35b9050346105805760203660031901126105805780359067ffffffffffffffff8216809203610940576006548351638da5cb5b60e01b81526001600160a01b039290916020918391829086165afa90811561076357602093927ef6cd547296c70c9cab792bbd7b7bab0c7107640a3f5a6e3c7041e2451d8be195926109169288916107465750163314611cfa565b81600c5461092960ff82851c1615611f3e565b67ffffffffffffffff191617600c5551908152a180f35b8380fd5b50503461022957816003193601126102295760209067ffffffffffffffff600c54169051908152f35b9050826003193601126105805761098261208f565b61098a6120f8565b600c549061099d60ff83851c1615611f3e565b6109bb67ffffffffffffffff60ff8460481c169361032e8515611e03565b3415610dd2576109cf60ff60085416611e43565b60c8340234810460c803610dbf576127109004906109ed8234611d91565b91600954926002548015600014610cc55750600154908115610c995790670de0b6b3a7640000610a1d9202611d3b565b925b8315610c6257865486516370a0823160e01b815230858201526020966001600160a01b03939284169291908882602481875afa918215610c58578b92610c29575b5015610c205789905b610a738883611d84565b11610bf257610a8e610a858884611d84565b91600754611d91565b10610bbb57875163a9059cbb60e01b815233868201908152602081018890528a959493919291899184919082908990829060400103925af1908115610bb157610ade928892610b94575b50611d84565b60095581610b73575b50505050825190348252828201527fa9a40dec7a304e5915d11358b968c1e8d365992abf20f82285d1df1b30c8e24c833392a2476003541115610b3b575b8260016000805160206127cb8339815191525580f35b7fc1b6170c1a12e8e6e16ac11093d782c998b06d4fb9ecda78f4eba96d24aaa9f391479051908152a1610b6c612243565b3880610b25565b8280928192610b8b965460101c165af161046f611eb9565b38848180610ae7565b610baa908a3d8c11610537576105288183611cb9565b5038610ad8565b89513d87823e3d90fd5b875162461bcd60e51b815280860188905260116024820152704578636565647320617661696c61626c6560781b6044820152606490fd5b885162461bcd60e51b8152808701899052600860248201526714dbdb19081bdd5d60c21b6044820152606490fd5b600b5490610a69565b9091508881813d8311610c51575b610c418183611cb9565b810103126106bb57519038610a60565b503d610c37565b8a513d8d823e3d90fd5b855162461bcd60e51b8152602081850152601160248201527021b0b631bab630ba34b7b71032b93937b960791b6044820152606490fd5b865162461bcd60e51b8152602081860152600660248201526504261642070360d41b6044820152606490fd5b610cdf6001546102a3670de0b6b3a7640000880484611d5b565b6001600160ff1b0392600182901b9184811603610dac57610d008280611d5b565b906001600160fd1b0384168403610d9957610d2a916102a3610d25928660031b611d5b565b612123565b818110610d6b5790610d3b91611d91565b9181168103610d585790610d529160011b90611d3b565b92610a1f565b634e487b7160e01b885260118452602488fd5b885162461bcd60e51b8152602081880152600860248201526726b0ba341032b93960c11b6044820152606490fd5b634e487b7160e01b8b526011875260248bfd5b634e487b7160e01b8a526011865260248afd5b634e487b7160e01b855260118252602485fd5b606490602084519162461bcd60e51b835282015260126024820152714d7573742070617920736f6d657468696e6760701b6044820152fd5b505034610229578160031936011261022957602090600b549051908152f35b9050346105805782600319360112610580576008549060ff8216610f855783548351638da5cb5b60e01b81526001600160a01b0391821693916020828581885afa918215610f7b578792610f5a575b5030911603610f175760ff191660011760085560075484929190823b156109405784516340c10f1960e01b815230928101928352602083019190915291839183919082908490829060400103925af1801561083457610f03575b507f325346a443e76d906638205113ba2a0a570c592d6700780ca605c087616abc726020836007549051908152a180f35b610f0c90611c8f565b610229578138610ed2565b835162461bcd60e51b8152602081840152601860248201527f546f6b656e206e6f74206f776e656420627920637572766500000000000000006044820152606490fd5b610f7491925060203d6020116106aa5761069c8183611cb9565b9038610e78565b86513d89823e3d90fd5b606490602084519162461bcd60e51b8352820152600e60248201526d105b1c9958591e481cd95959195960921b6044820152fd5b50503461022957816003193601126102295760008051602061278b8339815191525490516001600160a01b039091168152602090f35b5050346102295760203660031901126102295760209160ff9082906001600160a01b0361101a611c79565b168152600d855220541690519015158152f35b9050346105805782600319360112610580576006548251638da5cb5b60e01b81526001600160a01b039290916020918391829086165afa908115610834576020927f62e78cea01bee320cd4e420270b5ea74000d11b0c9f74754ebdbfc544b05a25894926110a49287916110df5750163314611cfa565b6110b560ff600c54831c1615611f3e565b6110bd6120f8565b6000805160206127ab833981519152805460ff1916600117905551338152a180f35b61075d9150853d87116106aa5761069c8183611cb9565b839150346102295781600319360112610229576006548351638da5cb5b60e01b81526001600160a01b03949160209082908590829089165afa9081156112855761114b91869186916112665750163314611cfa565b600c549360ff85831c1661123157600160401b8561117060ff879860481c1615611e03565b68ff0000000000000000191617600c556111886120f8565b6000805160206127ab833981519152600160ff198254161790557f62e78cea01bee320cd4e420270b5ea74000d11b0c9f74754ebdbfc544b05a25860208351338152a1835416803b1561122c57839283925180948193638456cb5960e01b83525af1611218575b50337f2bb0c8f95b782c7d886b752278cc521ffa38550690cdbd399395e640ee967fb08280a280f35b61122190611c8f565b61025a5780826111ef565b505050fd5b815162461bcd60e51b8152602081850152600f60248201526e105b1c9958591e48195b98589b1959608a1b6044820152606490fd5b61127f915060203d6020116106aa5761069c8183611cb9565b87610600565b82513d86823e3d90fd5b833461025a578060031936011261025a576112a86120bf565b60008051602061278b83398151915280546001600160a01b031981169091556000906001600160a01b03167f8be0079c531659141344cd1fd0a4f28419497f9722a3daafe3b4186f6b6457e08280a380f35b5050346102295781600319360112610229576020906003549051908152f35b82843461025a578060031936011261025a575061ffff60209254169051908152f35b50503461022957816003193601126102295760209060ff6000805160206127ab833981519152541690519015158152f35b90503461058057826003193601126105805754905160109190911c6001600160a01b0316815260209150f35b9050346105805782600319360112610580576006548251638da5cb5b60e01b8152906001600160a01b039060209083908590829085165afa8015610763576113e992869161081b5750163314611cfa565b6113fa60ff600c54841c1615611f3e565b6000805160206127ab8339815191529081549060ff82161561144a575060ff19169055513381527f5db9ee0a495bf2e6ff9c91a7834c1ba4fdd244a5e8aa4e537bd38aeae4b073aa90602090a180f35b8351638dfc202b60e01b8152fd5b9190503461058057602036600319011261058057611474611c79565b6006548251638da5cb5b60e01b81526001600160a01b039492939290916020918391829088165afa9182156114fa57506114b9918491869161081b5750163314611cfa565b16806bffffffffffffffffffffffff60a01b60055416176005557f3d34cc8a188b0116ebbbbab43310493807ae037bdab3d6746427d0e815dce3e08280a280f35b513d86823e3d90fd5b505034610229578160031936011261022957905490516001600160a01b039091168152602090f35b50503461022957816003193601126102295760055490516001600160a01b039091168152602090f35b50503461022957816003193601126102295760209060ff6008541690519015158152f35b919050346105805760203660031901126105805781359161159761208f565b600c5460ff81841c161561178d5760ff6115b59160481c1615611e03565b8215611760576115c960ff60085416611e43565b6009546115d884821015611e7c565b845485906001600160a01b0316803b1561022957845163079cc67960e41b815233858201908152602081018890529091839183919082908490829060400103925af180156117565761173e575b5050600254806116e85750670de0b6b3a764000061164585600154611d5b565b04915b8247106116b057509061168b847f2dc8e290002f06fc0085bbca9dfb8b415cf4d1178950c72ff9ee8f4d8878ee66949361042f8880808088335af1610429611eb9565b600955815193845260208401523392a260016000805160206127cb8339815191525580f35b606490602085519162461bcd60e51b83528201526012602482015271496e73756666696369656e742066756e647360701b6044820152fd5b6117156001546104e6670de0b6b3a7640000936104d3896104e06104d96104be89808c0494048098611d5b565b81810291818304149015171561172b5791611648565b634e487b7160e01b865260118352602486fd5b61174790611c8f565b611752578438611625565b8480fd5b85513d84823e3d90fd5b6020606492519162461bcd60e51b835282015260086024820152670416d6f756e743d360c41b6044820152fd5b506020606492519162461bcd60e51b83528201526009602482015268139bc81c99599d5b9960ba1b6044820152fd5b5050346102295781600319360112610229576020906001549051908152f35b90503461058057610140366003190112610580576117f7611c79565b6001600160a01b0391602435908382168203611b095760a4359361ffff8516809503611b055760c435918183168303611b015760e43592828416809403611afd5761012435838116809103611af9577ff0c57e16840df040f15088dc2f81fe391c3923bec73e23a9662efc9c229c6a009788549760ff898c1c16159767ffffffffffffffff8a16998a1580611af2575b6001809c149081611ae8575b159081611adf575b50611acf57916118d588928f979695948e908d8f67ffffffffffffffff198316178355611aaf575b50506118cd612749565b610252612749565b6118dd612749565b6118e5612749565b8a6000805160206127cb833981519152556118fe612749565b16926bffffffffffffffffffffffff60a01b9184838754161786556044358b5560643560025560843560035586549162010000600160b01b039060101b169169ffffffffffffffffffff60b01b1617178555868160055416176005556101043560075560065416176006556107d061ffff19600a541617600a556aa56fa5b99019a5c8000000600b55803b1561022957819060248a518094819363c22dc7e760e01b83528b888401525af1611a98575b50908792918184541691823b1561175257848080899560448d518094819363bb4628d160e01b9a8b8452308b85015260248401525af1611a84575b505083611a3f575b50505050506119fe578380f35b7fc7f505b2f371ae2175ee4913f4499e1f2633a7b5936321eed1cdaeb6115181d29260209268ff000000000000000019815416905551908152a13880808380f35b845416803b15611752578492836044928b51968795869485528401528960248401525af1611a70575b8080806119f1565b611a7990611c8f565b611752578438611a68565b611a8d90611c8f565b6117525784386119e9565b611aa6909891939298611c8f565b969091386119ae565b68ffffffffffffffffff1916680100000000000000011790558d386118c3565b8c5163f92ee8a960e01b81528790fd5b9050153861189b565b303b159150611893565b5089611887565b8980fd5b8880fd5b8780fd5b8680fd5b8580fd5b50503461022957816003193601126102295760209060ff600c5460481c1690519015158152f35b82843461025a57602036600319011261025a57506102a960209235611d9e565b5050346102295781600319360112610229576020906009549051908152f35b91509134610940578060031936011261094057611b8e611c79565b9060243591821515809303611b0957600654638da5cb5b60e01b85526020946001600160a01b039291869082908990829087165afa908115611c6f57611bdf9184918a91611c585750163314611cfa565b16938415611c2b5750907fbd32e1e1567f9829f1feb1a1ed82721ae3d1492ea1c4de614ddd34e717880e919291848652600d835280862060ff1981541660ff841617905551908152a280f35b83606492519162461bcd60e51b835282015260096024820152682d32b9379030b2323960b91b6044820152fd5b61075d9150883d8a116106aa5761069c8183611cb9565b84513d8a823e3d90fd5b600435906001600160a01b03821682036106bb57565b67ffffffffffffffff8111611ca357604052565b634e487b7160e01b600052604160045260246000fd5b90601f8019910116810190811067ffffffffffffffff821117611ca357604052565b908160209103126106bb57516001600160a01b03811681036106bb5790565b15611d0157565b60405162461bcd60e51b815260206004820152601260248201527127b7363c903330b1ba37b93c9037bbb732b960711b6044820152606490fd5b8115611d45570490565b634e487b7160e01b600052601260045260246000fd5b81810292918115918404141715611d6e57565b634e487b7160e01b600052601160045260246000fd5b91908201809211611d6e57565b91908203918211611d6e57565b60025480611dc05750611dbc670de0b6b3a764000091600154611d5b565b0490565b611df0906104e6600154916104d3670de0b6b3a7640000956104e06104d96104be89806009540494048098611d5b565b818102918183041490151715611d6e5790565b15611e0a57565b60405162461bcd60e51b8152602060048201526011602482015270131a5c5d5a591a5d1e4818dc99585d1959607a1b6044820152606490fd5b15611e4a57565b60405162461bcd60e51b815260206004820152600a602482015269139bdd081cd95959195960b21b6044820152606490fd5b15611e8357565b60405162461bcd60e51b815260206004820152600e60248201526d125b9d985b1a5908185b5bdd5b9d60921b6044820152606490fd5b3d15611ef4573d9067ffffffffffffffff8211611ca35760405191611ee8601f8201601f191660200184611cb9565b82523d6000602084013e565b606090565b15611f0057565b60405162461bcd60e51b81526020600482015260166024820152751499599d5b99081d1c985b9cd9995c8819985a5b195960521b6044820152606490fd5b15611f4557565b60405162461bcd60e51b815260206004820152600b60248201526a526566756e64206d6f646560a81b6044820152606490fd5b15611f7f57565b60405162461bcd60e51b815260206004820152601060248201526f14d85b19481b9bdd081cdd185c9d195960821b6044820152606490fd5b908160209103126106bb575180151581036106bb5790565b15611fd657565b60405162461bcd60e51b815260206004820152601c60248201527f506c6174666f726d20666565207472616e73666572206661696c6564000000006044820152606490fd5b6001600160a01b039081169081156120765760008051602061278b83398151915280546001600160a01b031981168417909155167f8be0079c531659141344cd1fd0a4f28419497f9722a3daafe3b4186f6b6457e0600080a3565b604051631e4fbdf760e01b815260006004820152602490fd5b6000805160206127cb83398151915260028154146120ad5760029055565b604051633ee5aeb560e01b8152600490fd5b60008051602061278b833981519152546001600160a01b031633036120e057565b60405163118cdaa760e01b8152336004820152602490fd5b60ff6000805160206127ab833981519152541661211157565b60405163d93c066560e01b8152600490fd5b60018082111561223f576121e0908083600160801b81101561222d575b80600160401b6004921015612220575b640100000000811015612213575b62010000811015612206575b6101008110156121fa575b60108110156121ee575b10156121e7575b600302811c6121958185611d3b565b01811c6121a28185611d3b565b01811c6121af8185611d3b565b01811c6121bc8185611d3b565b01811c6121c98185611d3b565b01811c6121d68185611d3b565b01901c8092611d3b565b8111900390565b811b612186565b811c9160021b9161217f565b60081c91811b91612175565b60101c9160081b9161216a565b60201c9160101b9161215e565b60401c9160201b91612150565b50600160401b9050608084901c612140565b5090565b600c5460ff8160401c161590816122fe575b50806122ea575b61226257565b600b5480156122cc57600154670de0b6b3a764000090818102918183041490151715611d6e5761229b906102a360025460095490611d5b565b9081156122e6576ec097ce7bc90715b34b9f1000000000916122bc91611d5b565b0480471015806122da575b6122cf575b50565b6122d89061230d565b565b504760035411156122c7565b5050565b506005546001600160a01b0316151561225c565b60ff915060481c161538612255565b600c549060009160409161232660ff83851c1615611f3e565b61233660ff8360481c1615611e03565b6005546001600160a01b03908116929091908315612718578451638da5cb5b60e01b815260049460209182818881855afa90811561270e5789916126f1575b5085309116036126ba5760095490600154670de0b6b3a7640000928382029180830485149015171561267857906102a36123b192600254611d5b565b91821561268b57808602868104821487151715612678576ec097ce7bc90715b34b9f100000000080970291818304149015171561266557826123f291611d3b565b94851561263157868a54169289516370a0823160e01b8152308a8201528581602481885afa908115612627578c916125f6575b508781106125ec575b506124399087611d5b565b0493851515806125e3575b156125a75769ff0000000000000000001916690100000000000000000017600c55600b5480151581878261259c575b5050612594575b50875163a9059cbb60e01b81526001600160a01b03909116818801908152602081018690529091839183919082908c90829060400103925af1801561258a5761256c575b50508260055416908387541690823b15611b015786516256688760e81b81526001600160a01b03929092168683019081526020810194909452909287928492918390036040019183915af1801561076357612559575b5083600b5583541691823b15610940576024849283809351958694859363c22dc7e760e01b85528401525af1612548575050565b6125528291611c8f565b61025a5750565b61256590949194611c8f565b9238612514565b8161258292903d10610537576105288183611cb9565b5038806124be565b87513d8a823e3d90fd5b94508261247a565b101590508138612473565b885162461bcd60e51b81528089018590526016602482015275496e73756666696369656e7420696e76656e746f727960501b6044820152606490fd5b50841515612444565b965061243961242e565b90508581813d8311612620575b61260d8183611cb9565b8101031261261c575138612425565b8b80fd5b503d612603565b8b513d8e823e3d90fd5b885162461bcd60e51b8152808901859052600e60248201526d0a8dede40d8d2e8e8d8ca408aa8960931b6044820152606490fd5b634e487b7160e01b8a526011885260248afd5b634e487b7160e01b8b526011895260248bfd5b885162461bcd60e51b8152808901859052600960248201526842616420707269636560b81b6044820152606490fd5b865162461bcd60e51b8152808701839052601160248201527013585b9859d95c881b9bdd081bdddb9959607a1b6044820152606490fd5b6127089150833d85116106aa5761069c8183611cb9565b38612375565b88513d8b823e3d90fd5b845162461bcd60e51b815260206004820152600a60248201526927379036b0b730b3b2b960b11b6044820152606490fd5b60ff7ff0c57e16840df040f15088dc2f81fe391c3923bec73e23a9662efc9c229c6a005460401c161561277857565b604051631afcd79f60e31b8152600490fdfe9016d09d72d40fdae2fd8ceac6b6234c7706214fd39c1cd1e609a0528c199300cd5ed15c6e187e77e9aee88184c21f4f2182ab5827cb3b7e07fbedcd63f033009b779b17422d0df92223018b32b4d1fa46e071723d6817e2486d003becc55f00a2646970667358221220a4900e6043797204c42f8fc1e065bcaf5e7c38d6d8a817afc8e32436e62446ea64736f6c63430008180033",
  "linkReferences": {},
  "deployedLinkReferences": {}
}