{
  "_format": "hh-sol-artifact-1",
  "contractName": "BondingCurveLaunch",
  "sourceName": "contracts/BondingCurveLaunch.sol",
  "abi": [
    {
      "inputs": [],
      "name": "EnforcedPause",
      "type": "error"
    },
    {
      "inputs": [],
      "name": "ExpectedPause",
      "type": "error"
    },
    {
      "inputs": [],
      "name": "InvalidInitialization",
      "type": "error"
    },
    {
      "inputs": [],
      "name": "NotInitializing",
      "type": "error"
    },
    {
      "inputs": [
        {
          "internalType": "address",
          "name": "owner",
          "type": "address"
        }
      ],
      "name": "OwnableInvalidOwner",
      "type": "error"
    },
    {
      "inputs": [
        {
          "internalType": "address",
          "name": "account",
          "type": "address"
        }
      ],
      "name": "OwnableUnauthorizedAccount",
      "type": "error"
    },
    {
      "inputs": [],
      "name": "ReentrancyGuardReentrantCall",
      "type": "error"
    },
    {
      "anonymous": false,
      "inputs": [
        {
          "indexed": true,
          "internalType": "address",
          "name": "buyer",
          "type": "address"
        },
        {
          "indexed": false,
          "internalType": "uint256",
          "name": "amountIn",
          "type": "uint256"
        },
        {
          "indexed": false,
          "internalType": "uint256",
          "name": "amountOut",
          "type": "uint256"
        }
      ],
      "name": "Bought",
      "type": "event"
    },
    {
      "anonymous": false,
      "inputs": [
        {
          "indexed": false,
          "internalType": "uint256",
          "name": "amount",
          "type": "uint256"
        }
      ],
      "name": "InitialSupplySeeded",
      "type": "event"
    },
    {
      "anonymous": false,
      "inputs": [
        {
          "indexed": false,
          "internalType": "uint64",
          "name": "version",
          "type": "uint64"
        }
      ],
      "name": "Initialized",
      "type": "event"
    },
    {
      "anonymous": false,
      "inputs": [
        {
          "indexed": false,
          "internalType": "uint256",
          "name": "reserve",
          "type": "uint256"
        }
      ],
      "name": "LPThresholdReached",
      "type": "event"
    },
    {
      "anonymous": false,
      "inputs": [
        {
          "indexed": false,
          "internalType": "uint16",
          "name": "newFeeBps",
          "type": "uint16"
        }
      ],
      "name": "LiquidityFeeBpsChanged",
      "type": "event"
    },
    {
      "anonymous": false,
      "inputs": [
        {
          "indexed": false,
          "internalType": "address",
          "name": "newRecipient",
          "type": "address"
        }
      ],
      "name": "LiquidityFeeRecipientChanged",
      "type": "event"
    },
    {
      "anonymous": false,
      "inputs": [
        {
          "indexed": true,
          "internalType": "address",
          "name": "newManager",
          "type": "address"
        }
      ],
      "name": "LiquidityManagerChanged",
      "type": "event"
    },
    {
      "anonymous": false,
      "inputs": [
        {
          "indexed": false,
          "internalType": "uint256",
          "name": "newThreshold",
          "type": "uint256"
        }
      ],
      "name": "LpThresholdChanged",
      "type": "event"
    },
    {
      "anonymous": false,
      "inputs": [
        {
          "indexed": true,
          "internalType": "address",
          "name": "account",
          "type": "address"
        },
        {
          "indexed": false,
          "internalType": "bool",
          "name": "isModerator",
          "type": "bool"
        }
      ],
      "name": "ModUpdated",
      "type": "event"
    },
    {
      "anonymous": false,
      "inputs": [
        {
          "indexed": true,
          "internalType": "address",
          "name": "previousOwner",
          "type": "address"
        },
        {
          "indexed": true,
          "internalType": "address",
          "name": "newOwner",
          "type": "address"
        }
      ],
      "name": "OwnershipTransferred",
      "type": "event"
    },
    {
      "anonymous": false,
      "inputs": [
        {
          "indexed": false,
          "internalType": "address",
          "name": "account",
          "type": "address"
        }
      ],
      "name": "Paused",
      "type": "event"
    },
    {
      "anonymous": false,
      "inputs": [
        {
          "indexed": true,
          "internalType": "address",
          "name": "caller",
          "type": "address"
        }
      ],
      "name": "RefundModeEnabled",
      "type": "event"
    },
    {
      "anonymous": false,
      "inputs": [
        {
          "indexed": true,
          "internalType": "address",
          "name": "user",
          "type": "address"
        },
        {
          "indexed": false,
          "internalType": "uint256",
          "name": "amountIn",
          "type": "uint256"
        },
        {
          "indexed": false,
          "internalType": "uint256",
          "name": "ethOut",
          "type": "uint256"
        }
      ],
      "name": "Refunded",
      "type": "event"
    },
    {
      "anonymous": false,
      "inputs": [
        {
          "indexed": false,
          "internalType": "uint64",
          "name": "start",
          "type": "uint64"
        }
      ],
      "name": "SaleStartScheduled",
      "type": "event"
    },
    {
      "anonymous": false,
      "inputs": [
        {
          "indexed": true,
          "internalType": "address",
          "name": "seller",
          "type": "address"
        },
        {
          "indexed": false,
          "internalType": "uint256",
          "name": "amountIn",
          "type": "uint256"
        },
        {
          "indexed": false,
          "internalType": "uint256",
          "name": "amountOut",
          "type": "uint256"
        }
      ],
      "name": "Sold",
      "type": "event"
    },
    {
      "anonymous": false,
      "inputs": [
        {
          "indexed": false,
          "internalType": "uint16",
          "name": "newFeeBps",
          "type": "uint16"
        }
      ],
      "name": "TradeFeeBpsChanged",
      "type": "event"
    },
    {
      "anonymous": false,
      "inputs": [
        {
          "indexed": false,
          "internalType": "address",
          "name": "account",
          "type": "address"
        }
      ],
      "name": "Unpaused",
      "type": "event"
    },
    {
      "inputs": [],
      "name": "buy",
      "outputs": [],
      "stateMutability": "payable",
      "type": "function"
    },
    {
      "inputs": [],
      "name": "createLiquidity",
      "outputs": [],
      "stateMutability": "nonpayable",
      "type": "function"
    },
    {
      "inputs": [],
      "name": "enableRefundMode",
      "outputs": [],
      "stateMutability": "nonpayable",
      "type": "function"
    },
    {
      "inputs": [],
      "name": "factory",
      "outputs": [
        {
          "internalType": "address",
          "name": "",
          "type": "address"
        }
      ],
      "stateMutability": "view",
      "type": "function"
    },
    {
      "inputs": [],
      "name": "factoryOwnerRecipient",
      "outputs": [
        {
          "internalType": "address",
          "name": "",
          "type": "address"
        }
      ],
      "stateMutability": "view",
      "type": "function"
    },
    {
      "inputs": [],
      "name": "feeRecipient",
      "outputs": [
        {
          "internalType": "address",
          "name": "",
          "type": "address"
        }
      ],
      "stateMutability": "view",
      "type": "function"
    },
    {
      "inputs": [],
      "name": "getCurrentPrice",
      "outputs": [
        {
          "internalType": "uint256",
          "name": "",
          "type": "uint256"
        }
      ],
      "stateMutability": "view",
      "type": "function"
    },
    {
      "inputs": [
        {
          "internalType": "uint256",
          "name": "tokenAmount",
          "type": "uint256"
        }
      ],
      "name": "getPriceForAmount",
      "outputs": [
        {
          "internalType": "uint256",
          "name": "",
          "type": "uint256"
        }
      ],
      "stateMutability": "view",
      "type": "function"
    },
    {
      "inputs": [
        {
          "internalType": "address",
          "name": "_tokenAddress",
          "type": "address"
        },
        {
          "internalType": "address",
          "name": "_owner",
          "type": "address"
        },
        {
          "internalType": "uint256",
          "name": "_p0",
          "type": "uint256"
        },
        {
          "internalType": "uint256",
          "name": "_k",
          "type": "uint256"
        },
        {
          "internalType": "uint256",
          "name": "_lpThreshold",
          "type": "uint256"
        },
        {
          "internalType": "uint16",
          "name": "_tradeFeeBps",
          "type": "uint16"
        },
        {
          "internalType": "address",
          "name": "_feeRecipient",
          "type": "address"
        },
        {
          "internalType": "address",
          "name": "_liquidityManager",
          "type": "address"
        },
        {
          "internalType": "uint256",
          "name": "_maxSupply",
          "type": "uint256"
        },
        {
          "internalType": "address",
          "name": "_factory",
          "type": "address"
        }
      ],
      "name": "initialize",
      "outputs": [],
      "stateMutability": "nonpayable",
      "type": "function"
    },
    {
      "inputs": [
        {
          "internalType": "address",
          "name": "",
          "type": "address"
        }
      ],
      "name": "isMod",
      "outputs": [
        {
          "internalType": "bool",
          "name": "",
          "type": "bool"
        }
      ],
      "stateMutability": "view",
      "type": "function"
    },
    {
      "inputs": [],
      "name": "isSaleLive",
      "outputs": [
        {
          "internalType": "bool",
          "name": "",
          "type": "bool"
        }
      ],
      "stateMutability": "view",
      "type": "function"
    },
    {
      "inputs": [],
      "name": "k",
      "outputs": [
        {
          "internalType": "uint256",
          "name": "",
          "type": "uint256"
        }
      ],
      "stateMutability": "view",
      "type": "function"
    },
    {
      "inputs": [],
      "name": "liquidityCreated",
      "outputs": [
        {
          "internalType": "bool",
          "name": "",
          "type": "bool"
        }
      ],
      "stateMutability": "view",
      "type": "function"
    },
    {
      "inputs": [],
      "name": "liquidityFeeBps",
      "outputs": [
        {
          "internalType": "uint16",
          "name": "",
          "type": "uint16"
        }
      ],
      "stateMutability": "view",
      "type": "function"
    },
    {
      "inputs": [],
      "name": "liquidityManager",
      "outputs": [
        {
          "internalType": "address",
          "name": "",
          "type": "address"
        }
      ],
      "stateMutability": "view",
      "type": "function"
    },
    {
      "inputs": [],
      "name": "lpReserveBps",
      "outputs": [
        {
          "internalType": "uint16",
          "name": "",
          "type": "uint16"
        }
      ],
      "stateMutability": "view",
      "type": "function"
    },
    {
      "inputs": [],
      "name": "lpThreshold",
      "outputs": [
        {
          "internalType": "uint256",
          "name": "",
          "type": "uint256"
        }
      ],
      "stateMutability": "view",
      "type": "function"
    },
    {
      "inputs": [],
      "name": "lpTokensReserved",
      "outputs": [
        {
          "internalType": "uint256",
          "name": "",
          "type": "uint256"
        }
      ],
      "stateMutability": "view",
      "type": "function"
    },
    {
      "inputs": [],
      "name": "maxSupply",
      "outputs": [
        {
          "internalType": "uint256",
          "name": "",
          "type": "uint256"
        }
      ],
      "stateMutability": "view",
      "type": "function"
    },
    {
      "inputs": [],
      "name": "moonToken",
      "outputs": [
        {
          "internalType": "contract IMoonToken",
          "name": "",
          "type": "address"
        }
      ],
      "stateMutability": "view",
      "type": "function"
    },
    {
      "inputs": [],
      "name": "owner",
      "outputs": [
        {
          "internalType": "address",
          "name": "",
          "type": "address"
        }
      ],
      "stateMutability": "view",
      "type": "function"
    },
    {
      "inputs": [],
      "name": "p0",
      "outputs": [
        {
          "internalType": "uint256",
          "name": "",
          "type": "uint256"
        }
      ],
      "stateMutability": "view",
      "type": "function"
    },
    {
      "inputs": [],
      "name": "pause",
      "outputs": [],
      "stateMutability": "nonpayable",
      "type": "function"
    },
    {
      "inputs": [],
      "name": "paused",
      "outputs": [
        {
          "internalType": "bool",
          "name": "",
          "type": "bool"
        }
      ],
      "stateMutability": "view",
      "type": "function"
    },
    {
      "inputs": [
        {
          "internalType": "uint256",
          "name": "amount",
          "type": "uint256"
        }
      ],
      "name": "refund",
      "outputs": [],
      "stateMutability": "nonpayable",
      "type": "function"
    },
    {
      "inputs": [],
      "name": "refundMode",
      "outputs": [
        {
          "internalType": "bool",
          "name": "",
          "type": "bool"
        }
      ],
      "stateMutability": "view",
      "type": "function"
    },
    {
      "inputs": [],
      "name": "renounceOwnership",
      "outputs": [],
      "stateMutability": "nonpayable",
      "type": "function"
    },
    {
      "inputs": [],
      "name": "saleStart",
      "outputs": [
        {
          "internalType": "uint64",
          "name": "",
          "type": "uint64"
        }
      ],
      "stateMutability": "view",
      "type": "function"
    },
    {
      "inputs": [],
      "name": "seedInitialSupply",
      "outputs": [],
      "stateMutability": "nonpayable",
      "type": "function"
    },
    {
      "inputs": [],
      "name": "seeded",
      "outputs": [
        {
          "internalType": "bool",
          "name": "",
          "type": "bool"
        }
      ],
      "stateMutability": "view",
      "type": "function"
    },
    {
      "inputs": [
        {
          "internalType": "uint256",
          "name": "amount",
          "type": "uint256"
        }
      ],
      "name": "sell",
      "outputs": [],
      "stateMutability": "nonpayable",
      "type": "function"
    },
    {
      "inputs": [
        {
          "internalType": "uint16",
          "name": "_newFeeBps",
          "type": "uint16"
        }
      ],
      "name": "setLiquidityFeeBps",
      "outputs": [],
      "stateMutability": "nonpayable",
      "type": "function"
    },
    {
      "inputs": [
        {
          "internalType": "address",
          "name": "_newRecipient",
          "type": "address"
        }
      ],
      "name": "setLiquidityFeeRecipient",
      "outputs": [],
      "stateMutability": "nonpayable",
      "type": "function"
    },
    {
      "inputs": [
        {
          "internalType": "address",
          "name": "_manager",
          "type": "address"
        }
      ],
      "name": "setLiquidityManager",
      "outputs": [],
      "stateMutability": "nonpayable",
      "type": "function"
    },
    {
      "inputs": [
        {
          "internalType": "uint256",
          "name": "_newThreshold",
          "type": "uint256"
        }
      ],
      "name": "setLpThreshold",
      "outputs": [],
      "stateMutability": "nonpayable",
      "type": "function"
    },
    {
      "inputs": [
        {
          "internalType": "address",
          "name": "account",
          "type": "address"
        },
        {
          "internalType": "bool",
          "name": "mod_",
          "type": "bool"
        }
      ],
      "name": "setMod",
      "outputs": [],
      "stateMutability": "nonpayable",
      "type": "function"
    },
    {
      "inputs": [
        {
          "internalType": "uint64",
          "name": "start",
          "type": "uint64"
        }
      ],
      "name": "setSaleStart",
      "outputs": [],
      "stateMutability": "nonpayable",
      "type": "function"
    },
    {
      "inputs": [
        {
          "internalType": "uint16",
          "name": "_newFeeBps",
          "type": "uint16"
        }
      ],
      "name": "setTradeFeeBps",
      "outputs": [],
      "stateMutability": "nonpayable",
      "type": "function"
    },
    {
      "inputs": [],
      "name": "sold",
      "outputs": [
        {
          "internalType": "uint256",
          "name": "",
          "type": "uint256"
        }
      ],
      "stateMutability": "view",
      "type": "function"
    },
    {
      "inputs": [],
      "name": "tradeFeeBps",
      "outputs": [
        {
          "internalType": "uint16",
          "name": "",
          "type": "uint16"
        }
      ],
      "stateMutability": "view",
      "type": "function"
    },
    {
      "inputs": [
        {
          "internalType": "address",
          "name": "newOwner",
          "type": "address"
        }
      ],
      "name": "transferOwnership",
      "outputs": [],
      "stateMutability": "nonpayable",
      "type": "function"
    },
    {
      "inputs": [],
      "name": "unpause",
      "outputs": [],
      "stateMutability": "nonpayable",
      "type": "function"
    }
  ],
  "bytecode": "0x6080806040523461001657612c9e908161001c8239f35b600080fdfe608060408181526004918236101561001657600080fd5b600092833560e01c91826299b23014611f445750816302c7e7af14611f25578163078a424514611f0557816318cedbfc14611ede57816320f6d64314611b4c578163264e49db14611b2d578163278ecde1146118e9578163334041a6146118c5578163338274381461189c5781633468145a146118745781633c1624d4146117c65781633f4ba83a1461170057816346904840146116d45781635c975abb146116a35781635faad8c514611681578163708ba45514611662578163715018a6146115f75781637b6113e41461144c5781637e5689a3146114265781638290f3e4146113355781638456cb59146112645781638988b284146112265781638da5cb5b146111f05781639da36bbf14611053578163a474030314611034578163a4930bb214610f0b578163a6f2ae3a14610a0d578163ab0bcc41146109e4578163b3a891c914610921578163b4f40c6114610902578163c45a0155146108d9578163c7af2a9c14610823578163c8cb47cb14610800578163ce544e2e1461073c578163d35ddacb14610612578163d5abeb01146105f3578163e4849b321461033c578163e8aba58e14610317578163eb91d37e146102b157508063ed2e1eeb14610289578063f2fde38b146102595763f71143ca146101f257600080fd5b34610255578160031936011261025557600d5460209167ffffffffffffffff82164210159182610247575b508161022c575b519015158152f35b600080516020612c298339815191525460ff16159150610224565b811c60ff161591508361021d565b5080fd5b823461028657602036600319011261028657610283610276612051565b61027e6124a8565b612404565b80f35b80fd5b503461025557816003193601126102555760065490516001600160a01b039091168152602090f35b82843461028657806003193601126102865760015492670de0b6b3a764000093848102948186041490151715610304576020836102fd866102f7600254600a5490612144565b9061216d565b9051908152f35b634e487b7160e01b825260119052602490fd5b505034610255578160031936011261025557600d548151911c60ff1615158152602090f35b83833461025557602090816003193601126105ef5783359161035c612478565b6103646124e1565b61038b67ffffffffffffffff600d5461038260ff82871c1615612327565b16421015612361565b82156105b75761039f60ff6009541661222c565b600a54906103af84831015612265565b845483516323b872dd60e01b81523388820152306024820152604481018690526001600160a01b0393918390829060649082908b9089165af180156105ad57610580575b50600254806104ce5750846104859187988298670de0b6b3a764000061043c7fbac9694ac0daa55169abd117086fe32c89401d9a3b15dd1d34e55e0aa4e47a9d9a600154612144565b04915b549161045d61271061045561ffff861684612144565b04809261217a565b97816104a8575b5050610480915080808089335af161047a6122a2565b506122e2565b61217a565b600a5582519485528401523392a26001600080516020612c498339815191525580f35b82809281926104c59660101c165af16104bf6122a2565b506123b8565b89898180610464565b61052c600154610523670de0b6b3a7640000936105108a61051d6105166104fb89808c0494048098612144565b96610510610509828661216d565b918561216d565b90612144565b9180612144565b9061217a565b60011c9061216d565b81810291818304149015171561056d579461048591879882987fbac9694ac0daa55169abd117086fe32c89401d9a3b15dd1d34e55e0aa4e47a9d989161043f565b634e487b7160e01b875260118852602487fd5b61059f90833d85116105a6575b61059781836120a2565b8101906123a0565b50876103f3565b503d61058d565b85513d89823e3d90fd5b8490606492519162461bcd60e51b835282015260136024820152724d7573742073656c6c20736f6d657468696e6760681b6044820152fd5b8280fd5b5050346102555781600319360112610255576020906008549051908152f35b8391503461025557602090816003193601126105ef57610630612067565b6007548551638da5cb5b60e01b81526001600160a01b03918216919085818681865afa908115610732579161ffff94939161067e938991610705575b501633149081156106fb575b506120e3565b16906103e882116106c057937f08f6c2b2b5b95a33c6a8871acf4e7a0ff9c68627cbfed148744d97691e3f46ba93948261ffff1982541617905551908152a180f35b845162461bcd60e51b815290810183905260156024820152744665652063616e6e6f74206578636565642031302560581b6044820152606490fd5b9050331488610678565b6107259150883d8a1161072b575b61071d81836120a2565b8101906120c4565b8a61066c565b503d610713565b88513d89823e3d90fd5b9050346105ef5760203660031901126105ef576007548251638da5cb5b60e01b81528235926001600160a01b03928316929190602090829081865afa9081156107f657927fffdfcd8eae5905cc8c33f87cb13a5df06766499318d99a5fcd3e5fa60fe74a2395926107c3926020969589916107d9575b501633149081156107cf57506120e3565b8160035551908152a180f35b9050331438610678565b6107f09150873d891161072b5761071d81836120a2565b386107b2565b85513d88823e3d90fd5b50503461025557816003193601126102555760209061ffff600b54169051908152f35b9050346105ef57826003193601126105ef576007548251638da5cb5b60e01b81526001600160a01b0391821692602090829081865afa9081156108cf579261089894926108849260ff9588916108b657501633149081156107cf57506120e3565b61088c612478565b600d54901c1615612327565b6108a1476126f6565b6001600080516020612c498339815191525580f35b6107f0915060203d60201161072b5761071d81836120a2565b84513d87823e3d90fd5b50503461025557816003193601126102555760075490516001600160a01b039091168152602090f35b5050346102555781600319360112610255576020906002549051908152f35b9050346105ef5760203660031901126105ef5780359067ffffffffffffffff82168092036109e0576007548351638da5cb5b60e01b81526001600160a01b0391821692602090829081865afa9081156107f657927ef6cd547296c70c9cab792bbd7b7bab0c7107640a3f5a6e3c7041e2451d8be195926109b6926020969589916107d957501633149081156107cf57506120e3565b81600d546109c960ff82851c1615612327565b67ffffffffffffffff191617600d5551908152a180f35b8380fd5b50503461025557816003193601126102555760209067ffffffffffffffff600d54169051908152f35b9050826003193601126105ef57610a22612478565b610a2a6124e1565b600d5490610a3d60ff83851c1615612327565b610a5b67ffffffffffffffff60ff8460481c169361038285156121ec565b3415610ed357610a6f60ff6009541661222c565b610a79344761216d565b60035410610e7657612710610a9361ffff83541634612144565b0490610a9f823461217a565b91600a54926002548015600014610d7c5750600154908115610d505790670de0b6b3a7640000610acf9202612124565b925b8315610d1957865486516370a0823160e01b815230858201526020966001600160a01b03939284169291908882602481875afa918215610d0f578b92610cdb575b5015610cd25789905b610b25888361216d565b11610ca457610b40610b37888461216d565b9160085461217a565b10610c6d57875163a9059cbb60e01b815233868201908152602081018890528a959493919291899184919082908990829060400103925af1908115610c6357610b90928892610c46575b5061216d565b600a5581610c25575b50505050825190348252828201527fa9a40dec7a304e5915d11358b968c1e8d365992abf20f82285d1df1b30c8e24c833392a2476003541115610bed575b826001600080516020612c498339815191525580f35b7fc1b6170c1a12e8e6e16ac11093d782c998b06d4fb9ecda78f4eba96d24aaa9f391479051908152a1610c1e61262c565b3880610bd7565b8280928192610c3d965460101c165af16104bf6122a2565b38848180610b99565b610c5c908a3d8c116105a65761059781836120a2565b5038610b8a565b89513d87823e3d90fd5b875162461bcd60e51b815280860188905260116024820152704578636565647320617661696c61626c6560781b6044820152606490fd5b885162461bcd60e51b8152808701899052600860248201526714dbdb19081bdd5d60c21b6044820152606490fd5b600c5490610b1b565b9091508881813d8311610d08575b610cf381836120a2565b81010312610d0357519038610b12565b600080fd5b503d610ce9565b8a513d8d823e3d90fd5b855162461bcd60e51b8152602081850152601160248201527021b0b631bab630ba34b7b71032b93937b960791b6044820152606490fd5b865162461bcd60e51b8152602081860152600660248201526504261642070360d41b6044820152606490fd5b610d966001546102f7670de0b6b3a7640000880484612144565b6001600160ff1b0392600182901b9184811603610e6357610db78280612144565b906001600160fd1b0384168403610e5057610de1916102f7610ddc928660031b612144565b61250c565b818110610e225790610df29161217a565b9181168103610e0f5790610e099160011b90612124565b92610ad1565b634e487b7160e01b885260118452602488fd5b885162461bcd60e51b8152602081880152600860248201526726b0ba341032b93960c11b6044820152606490fd5b634e487b7160e01b8b526011875260248bfd5b634e487b7160e01b8a526011865260248afd5b608490602084519162461bcd60e51b8352820152603160248201527f45786365656473206c6971756964697479207468726573686f6c64202d2070756044820152701c98da185cd9481c995cdd1c9a58dd1959607a1b6064820152fd5b606490602084519162461bcd60e51b835282015260126024820152714d7573742070617920736f6d657468696e6760701b6044820152fd5b8391503461025557602090816003193601126105ef57610f29612067565b6007548551638da5cb5b60e01b81526001600160a01b03918216919085818681865afa9081156107325790610f729392918891611017575b5016331490811561100d57506120e3565b61ffff8116916103e88311610fca5750937f26814d27a75a41026ede1aa0cf91361205c72a29fece68c99773ed5db1e6992693946005549061ffff60a01b9060a01b169061ffff60a01b19161760055551908152a180f35b855162461bcd60e51b8152908101849052601f60248201527f4c6971756964697479206665652063616e6e6f742065786365656420313025006044820152606490fd5b9050331487610678565b61102e9150873d891161072b5761071d81836120a2565b89610f61565b505034610255578160031936011261025557602090600c549051908152f35b9050346105ef57826003193601126105ef576009549060ff82166111bc5783548351638da5cb5b60e01b81526001600160a01b0391821693916020828581885afa9182156111b2578792611191575b503091160361114e5760ff191660011760095560085484929190823b156109e05784516340c10f1960e01b815230928101928352602083019190915291839183919082908490829060400103925af180156111415761112d575b507f325346a443e76d906638205113ba2a0a570c592d6700780ca605c087616abc726020836008549051908152a180f35b61113690612078565b6102555781386110fc565b50505051903d90823e3d90fd5b835162461bcd60e51b8152602081840152601860248201527f546f6b656e206e6f74206f776e656420627920637572766500000000000000006044820152606490fd5b6111ab91925060203d60201161072b5761071d81836120a2565b90386110a2565b86513d89823e3d90fd5b606490602084519162461bcd60e51b8352820152600e60248201526d105b1c9958591e481cd95959195960921b6044820152fd5b505034610255578160031936011261025557600080516020612c098339815191525490516001600160a01b039091168152602090f35b5050346102555760203660031901126102555760209160ff9082906001600160a01b03611251612051565b168152600e855220541690519015158152f35b9050346105ef57826003193601126105ef576007548251638da5cb5b60e01b81526001600160a01b0391821692602090829081865afa9081156108cf57927f62e78cea01bee320cd4e420270b5ea74000d11b0c9f74754ebdbfc544b05a25894926112e392602095889161131e57501633149081156107cf57506120e3565b6112f460ff600d54831c1615612327565b6112fc6124e1565b600080516020612c29833981519152805460ff1916600117905551338152a180f35b6107f09150863d881161072b5761071d81836120a2565b8391503461025557602090816003193601126105ef57611353612051565b6007548551638da5cb5b60e01b81526001600160a01b03929183169085818681855afa9081156107325761139b92918591899161070557501633149081156106fb57506120e3565b169081156113e357507f8d011499a9a0b5faca0fae805140d543ded6d5423a27a12d5d6e36abef775ac49293816001600160601b0360a01b600654161760065551908152a180f35b845162461bcd60e51b8152908101839052601960248201527f496e76616c696420726563697069656e742061646472657373000000000000006044820152606490fd5b50503461025557816003193601126102555760209061ffff60055460a01c169051908152f35b839150346102555781600319360112610255576007548351638da5cb5b60e01b81526001600160a01b0394918516906020818581855afa9081156115ed576114a99291879187916115ce575b501633149081156115c457506120e3565b600d549360ff85831c1661158f57600160401b856114ce60ff879860481c16156121ec565b68ff0000000000000000191617600d556114e66124e1565b600080516020612c29833981519152600160ff198254161790557f62e78cea01bee320cd4e420270b5ea74000d11b0c9f74754ebdbfc544b05a25860208351338152a1835416803b1561158a57839283925180948193638456cb5960e01b83525af1611576575b50337f2bb0c8f95b782c7d886b752278cc521ffa38550690cdbd399395e640ee967fb08280a280f35b61157f90612078565b61028657808261154d565b505050fd5b815162461bcd60e51b8152602081850152600f60248201526e105b1c9958591e48195b98589b1959608a1b6044820152606490fd5b9050331486610678565b6115e7915060203d60201161072b5761071d81836120a2565b88611498565b83513d87823e3d90fd5b83346102865780600319360112610286576116106124a8565b600080516020612c0983398151915280546001600160a01b031981169091556000906001600160a01b03167f8be0079c531659141344cd1fd0a4f28419497f9722a3daafe3b4186f6b6457e08280a380f35b5050346102555781600319360112610255576020906003549051908152f35b8284346102865780600319360112610286575061ffff60209254169051908152f35b50503461025557816003193601126102555760209060ff600080516020612c29833981519152541690519015158152f35b9050346105ef57826003193601126105ef5754905160109190911c6001600160a01b0316815260209150f35b9050346105ef57826003193601126105ef576007548251638da5cb5b60e01b8152906001600160a01b03908116906020838581855afa80156107f6576117579387916108b657501633149081156107cf57506120e3565b61176860ff600d54841c1615612327565b600080516020612c298339815191529081549060ff8216156117b8575060ff19169055513381527f5db9ee0a495bf2e6ff9c91a7834c1ba4fdd244a5e8aa4e537bd38aeae4b073aa90602090a180f35b8351638dfc202b60e01b8152fd5b9050346105ef5760203660031901126105ef576117e1612051565b6007548351638da5cb5b60e01b81526001600160a01b039492939185169291602090829081865afa91821561186b575061182f9291859187916108b657501633149081156107cf57506120e3565b16806001600160601b0360a01b60055416176005557f3d34cc8a188b0116ebbbbab43310493807ae037bdab3d6746427d0e815dce3e08280a280f35b513d87823e3d90fd5b505034610255578160031936011261025557905490516001600160a01b039091168152602090f35b50503461025557816003193601126102555760055490516001600160a01b039091168152602090f35b50503461025557816003193601126102555760209060ff6009541690519015158152f35b919050346105ef5760203660031901126105ef57813591611908612478565b600d5460ff81841c1615611afe5760ff6119269160481c16156121ec565b8215611ad15761193a60ff6009541661222c565b600a5461194984821015612265565b845485906001600160a01b0316803b1561025557845163079cc67960e41b815233858201908152602081018890529091839183919082908490829060400103925af18015611ac757611aaf575b505060025480611a595750670de0b6b3a76400006119b685600154612144565b04915b824710611a215750906119fc847f2dc8e290002f06fc0085bbca9dfb8b415cf4d1178950c72ff9ee8f4d8878ee6694936104808880808088335af161047a6122a2565b600a55815193845260208401523392a26001600080516020612c498339815191525580f35b606490602085519162461bcd60e51b83528201526012602482015271496e73756666696369656e742066756e647360701b6044820152fd5b611a86600154610523670de0b6b3a7640000936105108961051d6105166104fb89808c0494048098612144565b818102918183041490151715611a9c57916119b9565b634e487b7160e01b865260118352602486fd5b611ab890612078565b611ac3578438611996565b8480fd5b85513d84823e3d90fd5b6020606492519162461bcd60e51b835282015260086024820152670416d6f756e743d360c41b6044820152fd5b506020606492519162461bcd60e51b83528201526009602482015268139bc81c99599d5b9960ba1b6044820152fd5b5050346102555781600319360112610255576020906001549051908152f35b9050346105ef576101403660031901126105ef57611b68612051565b6001600160a01b0391602435908382168203611eda5760a4359361ffff8516809503611ed65760c435918183168303611ed25760e43592828416809403611ece576101243596838816809803611eca577ff0c57e16840df040f15088dc2f81fe391c3923bec73e23a9662efc9c229c6a009788549760ff898c1c16159767ffffffffffffffff8a16998a1580611ec3575b6001809c149081611eb9575b159081611eb0575b50611ea057928787938f9796956020948f8f928f611c4b9467ffffffffffffffff198316178355611e80575b5050611c43612bc7565b61027e612bc7565b611c53612bc7565b611c5b612bc7565b8c600080516020612c4983398151915255611c74612bc7565b16946001600160601b0360a01b9486868954161788556044358d5560643560025560843560035584549069ffffffffffffffffffff60b01b809362010000600160b01b039060101b1692161717845589600554916101043560085583876007541617600755604b60a21b921617176005558c5192838092638da5cb5b60e01b82525afa8015611e765786918591611e57575b50169060065416176006556107d061ffff19600b541617600b556aa56fa5b99019a5c8000000600c55803b1561025557819060248a518094819363c22dc7e760e01b83528b888401525af1611e40575b50908792918184541691823b15611ac357848080899560448d518094819363bb4628d160e01b9a8b8452308b85015260248401525af1611e2c575b505083611de7575b5050505050611da6578380f35b7fc7f505b2f371ae2175ee4913f4499e1f2633a7b5936321eed1cdaeb6115181d29260209268ff000000000000000019815416905551908152a13880808380f35b845416803b15611ac3578492836044928b51968795869485528401528960248401525af1611e18575b808080611d99565b611e2190612078565b611ac3578438611e10565b611e3590612078565b611ac3578438611d91565b611e4e909891939298612078565b96909138611d56565b611e70915060203d60201161072b5761071d81836120a2565b38611d06565b8b513d86823e3d90fd5b68ffffffffffffffffff1916680100000000000000011790558f38611c39565b8c5163f92ee8a960e01b81528790fd5b90501538611c0d565b303b159150611c05565b5089611bf9565b8980fd5b8880fd5b8780fd5b8680fd5b8580fd5b50503461025557816003193601126102555760209060ff600d5460481c1690519015158152f35b82843461028657602036600319011261028657506102fd60209235612187565b505034610255578160031936011261025557602090600a549051908152f35b915091346109e057806003193601126109e057611f5f612051565b9060243591821515809303611eda57600754638da5cb5b60e01b85526020946001600160a01b03929183169086818981855afa90811561204757611fb7929185918b9161203057501633149081156107cf57506120e3565b169384156120035750907fbd32e1e1567f9829f1feb1a1ed82721ae3d1492ea1c4de614ddd34e717880e919291848652600e835280862060ff1981541660ff841617905551908152a280f35b83606492519162461bcd60e51b835282015260096024820152682d32b9379030b2323960b91b6044820152fd5b6107f09150893d8b1161072b5761071d81836120a2565b85513d8b823e3d90fd5b600435906001600160a01b0382168203610d0357565b6004359061ffff82168203610d0357565b67ffffffffffffffff811161208c57604052565b634e487b7160e01b600052604160045260246000fd5b90601f8019910116810190811067ffffffffffffffff82111761208c57604052565b90816020910312610d0357516001600160a01b0381168103610d035790565b156120ea57565b60405162461bcd60e51b815260206004820152601260248201527127b7363c903330b1ba37b93c9037bbb732b960711b6044820152606490fd5b811561212e570490565b634e487b7160e01b600052601260045260246000fd5b8181029291811591840414171561215757565b634e487b7160e01b600052601160045260246000fd5b9190820180921161215757565b9190820391821161215757565b600254806121a957506121a5670de0b6b3a764000091600154612144565b0490565b6121d99061052360015491610510670de0b6b3a76400009561051d6105166104fb8980600a540494048098612144565b8181029181830414901517156121575790565b156121f357565b60405162461bcd60e51b8152602060048201526011602482015270131a5c5d5a591a5d1e4818dc99585d1959607a1b6044820152606490fd5b1561223357565b60405162461bcd60e51b815260206004820152600a602482015269139bdd081cd95959195960b21b6044820152606490fd5b1561226c57565b60405162461bcd60e51b815260206004820152600e60248201526d125b9d985b1a5908185b5bdd5b9d60921b6044820152606490fd5b3d156122dd573d9067ffffffffffffffff821161208c57604051916122d1601f8201601f1916602001846120a2565b82523d6000602084013e565b606090565b156122e957565b60405162461bcd60e51b81526020600482015260166024820152751499599d5b99081d1c985b9cd9995c8819985a5b195960521b6044820152606490fd5b1561232e57565b60405162461bcd60e51b815260206004820152600b60248201526a526566756e64206d6f646560a81b6044820152606490fd5b1561236857565b60405162461bcd60e51b815260206004820152601060248201526f14d85b19481b9bdd081cdd185c9d195960821b6044820152606490fd5b90816020910312610d0357518015158103610d035790565b156123bf57565b60405162461bcd60e51b815260206004820152601c60248201527f506c6174666f726d20666565207472616e73666572206661696c6564000000006044820152606490fd5b6001600160a01b0390811690811561245f57600080516020612c0983398151915280546001600160a01b031981168417909155167f8be0079c531659141344cd1fd0a4f28419497f9722a3daafe3b4186f6b6457e0600080a3565b604051631e4fbdf760e01b815260006004820152602490fd5b600080516020612c4983398151915260028154146124965760029055565b604051633ee5aeb560e01b8152600490fd5b600080516020612c09833981519152546001600160a01b031633036124c957565b60405163118cdaa760e01b8152336004820152602490fd5b60ff600080516020612c2983398151915254166124fa57565b60405163d93c066560e01b8152600490fd5b600180821115612628576125c9908083600160801b811015612616575b80600160401b6004921015612609575b6401000000008110156125fc575b620100008110156125ef575b6101008110156125e3575b60108110156125d7575b10156125d0575b600302811c61257e8185612124565b01811c61258b8185612124565b01811c6125988185612124565b01811c6125a58185612124565b01811c6125b28185612124565b01811c6125bf8185612124565b01901c8092612124565b8111900390565b811b61256f565b811c9160021b91612568565b60081c91811b9161255e565b60101c9160081b91612553565b60201c9160101b91612547565b60401c9160201b91612539565b50600160401b9050608084901c612529565b5090565b600d5460ff8160401c161590816126e7575b50806126d3575b61264b57565b600c5480156126b557600154670de0b6b3a76400009081810291818304149015171561215757612684906102f7600254600a5490612144565b9081156126cf576ec097ce7bc90715b34b9f1000000000916126a591612144565b0480471015806126c3575b6126b8575b50565b6126c1906126f6565b565b504760035411156126b0565b5050565b506005546001600160a01b03161515612645565b60ff915060481c16153861263e565b600d5460009160409161270e60ff82851c1615612327565b61271e60ff8260481c16156121ec565b600554916001600160a01b03918284168015612b9657855194858092638da5cb5b60e01b825260209384916004998a915afa908115612b8c578991612b6f575b508530911603612b3857600a5493600154670de0b6b3a76400009586820291808304881490151715612af657906102f761279a92600254612144565b948515612b0957808202828104821483151715612af6576ec097ce7bc90715b34b9f1000000000809302918183041490151715612ae357856127db91612124565b948515612aaf57602484888c54168b51928380926370a0823160e01b82528d30908301525afa908115610d0f578b91612a7e575b50868110612a74575b506128239086612144565b049284151580612a6b575b15612a2f5761271061286861ffff8b9469010000000000000000006128709569ff000000000000000000191617600d5560a01c1686612144565b04809461217a565b92806129c3575b5050600c548015158185826129b8575b50506129b0575b508654600554875163a9059cbb60e01b81529086166001600160a01b03168782019081526020810186905290918391839188169082908c90829060400103925af180156129a657612988575b50508260055416908387541690823b15611ed25786516256688760e81b81526001600160a01b03929092168683019081526020810194909452909287928492918390036040019183915af180156108cf57612975575b5083600c5583541691823b156109e0576024849283809351958694859363c22dc7e760e01b85528401525af1612964575050565b61296e8291612078565b6102865750565b61298190949194612078565b9238612930565b8161299e92903d106105a65761059781836120a2565b5038806128da565b87513d8a823e3d90fd5b92503861288e565b101590508138612887565b8180809288600654165af16129d66122a2565b50156129e3578638612877565b8460849187519162461bcd60e51b8352820152602160248201527f466163746f7279206f776e657220666565207472616e73666572206661696c656044820152601960fa1b6064820152fd5b875162461bcd60e51b81528088018490526016602482015275496e73756666696369656e7420696e76656e746f727960501b6044820152606490fd5b5083151561282e565b9550612823612818565b90508481813d8311612aa8575b612a9581836120a2565b81010312612aa457513861280f565b8a80fd5b503d612a8b565b885162461bcd60e51b8152808901859052600e60248201526d0a8dede40d8d2e8e8d8ca408aa8960931b6044820152606490fd5b634e487b7160e01b8a526011885260248afd5b634e487b7160e01b8b526011895260248bfd5b885162461bcd60e51b8152808901859052600960248201526842616420707269636560b81b6044820152606490fd5b865162461bcd60e51b8152808701839052601160248201527013585b9859d95c881b9bdd081bdddb9959607a1b6044820152606490fd5b612b869150833d851161072b5761071d81836120a2565b3861275e565b88513d8b823e3d90fd5b855162461bcd60e51b815260206004820152600a60248201526927379036b0b730b3b2b960b11b6044820152606490fd5b60ff7ff0c57e16840df040f15088dc2f81fe391c3923bec73e23a9662efc9c229c6a005460401c1615612bf657565b604051631afcd79f60e31b8152600490fdfe9016d09d72d40fdae2fd8ceac6b6234c7706214fd39c1cd1e609a0528c199300cd5ed15c6e187e77e9aee88184c21f4f2182ab5827cb3b7e07fbedcd63f033009b779b17422d0df92223018b32b4d1fa46e071723d6817e2486d003becc55f00a2646970667358221220bac71368e05887f4bf31501129bf0f76a3a9d75a756d094f93218b92f5fb415664736f6c63430008180033",
  "linkReferences": {},
  "deployedLinkReferences": {}
}