{
  "_format": "hh-sol-artifact-1",
  "contractName": "BondingCurveLaunch",
  "sourceName": "contracts/BondingCurveLaunch.sol",
  "abi": [
    {
      "inputs": [],
      "name": "EnforcedPause",
      "type": "error"
    },
    {
      "inputs": [],
      "name": "ExpectedPause",
      "type": "error"
    },
    {
      "inputs": [],
      "name": "InvalidInitialization",
      "type": "error"
    },
    {
      "inputs": [],
      "name": "NotInitializing",
      "type": "error"
    },
    {
      "inputs": [
        {
          "internalType": "address",
          "name": "owner",
          "type": "address"
        }
      ],
      "name": "OwnableInvalidOwner",
      "type": "error"
    },
    {
      "inputs": [
        {
          "internalType": "address",
          "name": "account",
          "type": "address"
        }
      ],
      "name": "OwnableUnauthorizedAccount",
      "type": "error"
    },
    {
      "inputs": [],
      "name": "ReentrancyGuardReentrantCall",
      "type": "error"
    },
    {
      "anonymous": false,
      "inputs": [
        {
          "indexed": true,
          "internalType": "address",
          "name": "buyer",
          "type": "address"
        },
        {
          "indexed": false,
          "internalType": "uint256",
          "name": "amountIn",
          "type": "uint256"
        },
        {
          "indexed": false,
          "internalType": "uint256",
          "name": "amountOut",
          "type": "uint256"
        }
      ],
      "name": "Bought",
      "type": "event"
    },
    {
      "anonymous": false,
      "inputs": [
        {
          "indexed": false,
          "internalType": "uint256",
          "name": "amount",
          "type": "uint256"
        }
      ],
      "name": "InitialSupplySeeded",
      "type": "event"
    },
    {
      "anonymous": false,
      "inputs": [
        {
          "indexed": false,
          "internalType": "uint64",
          "name": "version",
          "type": "uint64"
        }
      ],
      "name": "Initialized",
      "type": "event"
    },
    {
      "anonymous": false,
      "inputs": [
        {
          "indexed": false,
          "internalType": "uint256",
          "name": "reserve",
          "type": "uint256"
        }
      ],
      "name": "LPThresholdReached",
      "type": "event"
    },
    {
      "anonymous": false,
      "inputs": [
        {
          "indexed": true,
          "internalType": "address",
          "name": "newManager",
          "type": "address"
        }
      ],
      "name": "LiquidityManagerChanged",
      "type": "event"
    },
    {
      "anonymous": false,
      "inputs": [
        {
          "indexed": false,
          "internalType": "uint256",
          "name": "newThreshold",
          "type": "uint256"
        }
      ],
      "name": "LpThresholdChanged",
      "type": "event"
    },
    {
      "anonymous": false,
      "inputs": [
        {
          "indexed": true,
          "internalType": "address",
          "name": "account",
          "type": "address"
        },
        {
          "indexed": false,
          "internalType": "bool",
          "name": "isModerator",
          "type": "bool"
        }
      ],
      "name": "ModUpdated",
      "type": "event"
    },
    {
      "anonymous": false,
      "inputs": [
        {
          "indexed": true,
          "internalType": "address",
          "name": "previousOwner",
          "type": "address"
        },
        {
          "indexed": true,
          "internalType": "address",
          "name": "newOwner",
          "type": "address"
        }
      ],
      "name": "OwnershipTransferred",
      "type": "event"
    },
    {
      "anonymous": false,
      "inputs": [
        {
          "indexed": false,
          "internalType": "address",
          "name": "account",
          "type": "address"
        }
      ],
      "name": "Paused",
      "type": "event"
    },
    {
      "anonymous": false,
      "inputs": [
        {
          "indexed": true,
          "internalType": "address",
          "name": "caller",
          "type": "address"
        }
      ],
      "name": "RefundModeEnabled",
      "type": "event"
    },
    {
      "anonymous": false,
      "inputs": [
        {
          "indexed": true,
          "internalType": "address",
          "name": "user",
          "type": "address"
        },
        {
          "indexed": false,
          "internalType": "uint256",
          "name": "amountIn",
          "type": "uint256"
        },
        {
          "indexed": false,
          "internalType": "uint256",
          "name": "ethOut",
          "type": "uint256"
        }
      ],
      "name": "Refunded",
      "type": "event"
    },
    {
      "anonymous": false,
      "inputs": [
        {
          "indexed": false,
          "internalType": "uint64",
          "name": "start",
          "type": "uint64"
        }
      ],
      "name": "SaleStartScheduled",
      "type": "event"
    },
    {
      "anonymous": false,
      "inputs": [
        {
          "indexed": true,
          "internalType": "address",
          "name": "seller",
          "type": "address"
        },
        {
          "indexed": false,
          "internalType": "uint256",
          "name": "amountIn",
          "type": "uint256"
        },
        {
          "indexed": false,
          "internalType": "uint256",
          "name": "amountOut",
          "type": "uint256"
        }
      ],
      "name": "Sold",
      "type": "event"
    },
    {
      "anonymous": false,
      "inputs": [
        {
          "indexed": false,
          "internalType": "uint16",
          "name": "newFeeBps",
          "type": "uint16"
        }
      ],
      "name": "TradeFeeBpsChanged",
      "type": "event"
    },
    {
      "anonymous": false,
      "inputs": [
        {
          "indexed": false,
          "internalType": "address",
          "name": "account",
          "type": "address"
        }
      ],
      "name": "Unpaused",
      "type": "event"
    },
    {
      "inputs": [],
      "name": "buy",
      "outputs": [],
      "stateMutability": "payable",
      "type": "function"
    },
    {
      "inputs": [],
      "name": "createLiquidity",
      "outputs": [],
      "stateMutability": "nonpayable",
      "type": "function"
    },
    {
      "inputs": [],
      "name": "enableRefundMode",
      "outputs": [],
      "stateMutability": "nonpayable",
      "type": "function"
    },
    {
      "inputs": [],
      "name": "factory",
      "outputs": [
        {
          "internalType": "address",
          "name": "",
          "type": "address"
        }
      ],
      "stateMutability": "view",
      "type": "function"
    },
    {
      "inputs": [],
      "name": "feeRecipient",
      "outputs": [
        {
          "internalType": "address",
          "name": "",
          "type": "address"
        }
      ],
      "stateMutability": "view",
      "type": "function"
    },
    {
      "inputs": [],
      "name": "getCurrentPrice",
      "outputs": [
        {
          "internalType": "uint256",
          "name": "",
          "type": "uint256"
        }
      ],
      "stateMutability": "view",
      "type": "function"
    },
    {
      "inputs": [
        {
          "internalType": "uint256",
          "name": "tokenAmount",
          "type": "uint256"
        }
      ],
      "name": "getPriceForAmount",
      "outputs": [
        {
          "internalType": "uint256",
          "name": "",
          "type": "uint256"
        }
      ],
      "stateMutability": "view",
      "type": "function"
    },
    {
      "inputs": [
        {
          "internalType": "address",
          "name": "_tokenAddress",
          "type": "address"
        },
        {
          "internalType": "address",
          "name": "_owner",
          "type": "address"
        },
        {
          "internalType": "uint256",
          "name": "_p0",
          "type": "uint256"
        },
        {
          "internalType": "uint256",
          "name": "_k",
          "type": "uint256"
        },
        {
          "internalType": "uint256",
          "name": "_lpThreshold",
          "type": "uint256"
        },
        {
          "internalType": "uint16",
          "name": "_tradeFeeBps",
          "type": "uint16"
        },
        {
          "internalType": "address",
          "name": "_feeRecipient",
          "type": "address"
        },
        {
          "internalType": "address",
          "name": "_liquidityManager",
          "type": "address"
        },
        {
          "internalType": "uint256",
          "name": "_maxSupply",
          "type": "uint256"
        },
        {
          "internalType": "address",
          "name": "_factory",
          "type": "address"
        }
      ],
      "name": "initialize",
      "outputs": [],
      "stateMutability": "nonpayable",
      "type": "function"
    },
    {
      "inputs": [
        {
          "internalType": "address",
          "name": "",
          "type": "address"
        }
      ],
      "name": "isMod",
      "outputs": [
        {
          "internalType": "bool",
          "name": "",
          "type": "bool"
        }
      ],
      "stateMutability": "view",
      "type": "function"
    },
    {
      "inputs": [],
      "name": "isSaleLive",
      "outputs": [
        {
          "internalType": "bool",
          "name": "",
          "type": "bool"
        }
      ],
      "stateMutability": "view",
      "type": "function"
    },
    {
      "inputs": [],
      "name": "k",
      "outputs": [
        {
          "internalType": "uint256",
          "name": "",
          "type": "uint256"
        }
      ],
      "stateMutability": "view",
      "type": "function"
    },
    {
      "inputs": [],
      "name": "liquidityCreated",
      "outputs": [
        {
          "internalType": "bool",
          "name": "",
          "type": "bool"
        }
      ],
      "stateMutability": "view",
      "type": "function"
    },
    {
      "inputs": [],
      "name": "liquidityManager",
      "outputs": [
        {
          "internalType": "address",
          "name": "",
          "type": "address"
        }
      ],
      "stateMutability": "view",
      "type": "function"
    },
    {
      "inputs": [],
      "name": "lpReserveBps",
      "outputs": [
        {
          "internalType": "uint16",
          "name": "",
          "type": "uint16"
        }
      ],
      "stateMutability": "view",
      "type": "function"
    },
    {
      "inputs": [],
      "name": "lpThreshold",
      "outputs": [
        {
          "internalType": "uint256",
          "name": "",
          "type": "uint256"
        }
      ],
      "stateMutability": "view",
      "type": "function"
    },
    {
      "inputs": [],
      "name": "lpTokensReserved",
      "outputs": [
        {
          "internalType": "uint256",
          "name": "",
          "type": "uint256"
        }
      ],
      "stateMutability": "view",
      "type": "function"
    },
    {
      "inputs": [],
      "name": "maxSupply",
      "outputs": [
        {
          "internalType": "uint256",
          "name": "",
          "type": "uint256"
        }
      ],
      "stateMutability": "view",
      "type": "function"
    },
    {
      "inputs": [],
      "name": "moonToken",
      "outputs": [
        {
          "internalType": "contract IMoonToken",
          "name": "",
          "type": "address"
        }
      ],
      "stateMutability": "view",
      "type": "function"
    },
    {
      "inputs": [],
      "name": "owner",
      "outputs": [
        {
          "internalType": "address",
          "name": "",
          "type": "address"
        }
      ],
      "stateMutability": "view",
      "type": "function"
    },
    {
      "inputs": [],
      "name": "p0",
      "outputs": [
        {
          "internalType": "uint256",
          "name": "",
          "type": "uint256"
        }
      ],
      "stateMutability": "view",
      "type": "function"
    },
    {
      "inputs": [],
      "name": "pause",
      "outputs": [],
      "stateMutability": "nonpayable",
      "type": "function"
    },
    {
      "inputs": [],
      "name": "paused",
      "outputs": [
        {
          "internalType": "bool",
          "name": "",
          "type": "bool"
        }
      ],
      "stateMutability": "view",
      "type": "function"
    },
    {
      "inputs": [
        {
          "internalType": "uint256",
          "name": "amount",
          "type": "uint256"
        }
      ],
      "name": "refund",
      "outputs": [],
      "stateMutability": "nonpayable",
      "type": "function"
    },
    {
      "inputs": [],
      "name": "refundMode",
      "outputs": [
        {
          "internalType": "bool",
          "name": "",
          "type": "bool"
        }
      ],
      "stateMutability": "view",
      "type": "function"
    },
    {
      "inputs": [],
      "name": "renounceOwnership",
      "outputs": [],
      "stateMutability": "nonpayable",
      "type": "function"
    },
    {
      "inputs": [],
      "name": "saleStart",
      "outputs": [
        {
          "internalType": "uint64",
          "name": "",
          "type": "uint64"
        }
      ],
      "stateMutability": "view",
      "type": "function"
    },
    {
      "inputs": [],
      "name": "seedInitialSupply",
      "outputs": [],
      "stateMutability": "nonpayable",
      "type": "function"
    },
    {
      "inputs": [],
      "name": "seeded",
      "outputs": [
        {
          "internalType": "bool",
          "name": "",
          "type": "bool"
        }
      ],
      "stateMutability": "view",
      "type": "function"
    },
    {
      "inputs": [
        {
          "internalType": "uint256",
          "name": "amount",
          "type": "uint256"
        }
      ],
      "name": "sell",
      "outputs": [],
      "stateMutability": "nonpayable",
      "type": "function"
    },
    {
      "inputs": [
        {
          "internalType": "address",
          "name": "_manager",
          "type": "address"
        }
      ],
      "name": "setLiquidityManager",
      "outputs": [],
      "stateMutability": "nonpayable",
      "type": "function"
    },
    {
      "inputs": [
        {
          "internalType": "uint256",
          "name": "_newThreshold",
          "type": "uint256"
        }
      ],
      "name": "setLpThreshold",
      "outputs": [],
      "stateMutability": "nonpayable",
      "type": "function"
    },
    {
      "inputs": [
        {
          "internalType": "address",
          "name": "account",
          "type": "address"
        },
        {
          "internalType": "bool",
          "name": "mod_",
          "type": "bool"
        }
      ],
      "name": "setMod",
      "outputs": [],
      "stateMutability": "nonpayable",
      "type": "function"
    },
    {
      "inputs": [
        {
          "internalType": "uint64",
          "name": "start",
          "type": "uint64"
        }
      ],
      "name": "setSaleStart",
      "outputs": [],
      "stateMutability": "nonpayable",
      "type": "function"
    },
    {
      "inputs": [
        {
          "internalType": "uint16",
          "name": "_newFeeBps",
          "type": "uint16"
        }
      ],
      "name": "setTradeFeeBps",
      "outputs": [],
      "stateMutability": "nonpayable",
      "type": "function"
    },
    {
      "inputs": [],
      "name": "sold",
      "outputs": [
        {
          "internalType": "uint256",
          "name": "",
          "type": "uint256"
        }
      ],
      "stateMutability": "view",
      "type": "function"
    },
    {
      "inputs": [],
      "name": "tradeFeeBps",
      "outputs": [
        {
          "internalType": "uint16",
          "name": "",
          "type": "uint16"
        }
      ],
      "stateMutability": "view",
      "type": "function"
    },
    {
      "inputs": [
        {
          "internalType": "address",
          "name": "newOwner",
          "type": "address"
        }
      ],
      "name": "transferOwnership",
      "outputs": [],
      "stateMutability": "nonpayable",
      "type": "function"
    },
    {
      "inputs": [],
      "name": "unpause",
      "outputs": [],
      "stateMutability": "nonpayable",
      "type": "function"
    }
  ],
  "bytecode": "0x608080604052346100165761289b908161001c8239f35b600080fdfe608060408181526004918236101561001657600080fd5b600092833560e01c91826299b23014611be75750816302c7e7af14611bc8578163078a424514611ba857816318cedbfc14611b8157816320f6d6431461184f578163264e49db14611830578163278ecde1146115ec578163334041a6146115c8578163338274381461159f5781633468145a146115775781633c1624d4146114c45781633f4ba83a146113fe57816346904840146113d25781635c975abb146113a15781635faad8c51461137f578163708ba45514611360578163715018a6146112f55781637b6113e41461114a5781638456cb59146110795781638988b2841461103b5781638da5cb5b146110055781639da36bbf14610e68578163a474030314610e49578163a6f2ae3a146109bf578163ab0bcc4114610996578163b3a891c9146108d3578163b4f40c61146108b4578163c45a01551461088b578163c7af2a9c146107d5578163c8cb47cb146107b2578163ce544e2e146106ee578163d35ddacb146105be578163d5abeb011461059f578163e4849b32146102e8578163e8aba58e146102c3578163eb91d37e1461025d57508063f2fde38b1461022d5763f71143ca146101c657600080fd5b34610229578160031936011261022957600c5460209167ffffffffffffffff8216421015918261021b575b5081610200575b519015158152f35b6000805160206128268339815191525460ff161591506101f8565b811c60ff16159150836101f1565b5080fd5b823461025a57602036600319011261025a5761025761024a611cf4565b61025261213a565b612096565b80f35b80fd5b82843461025a578060031936011261025a5760015492670de0b6b3a7640000938481029481860414901517156102b0576020836102a9866102a360025460095490611dd6565b90611dff565b9051908152f35b634e487b7160e01b825260119052602490fd5b505034610229578160031936011261022957600c548151911c60ff1615158152602090f35b838334610229576020908160031936011261059b5783359161030861210a565b610310612173565b61033767ffffffffffffffff600c5461032e60ff82871c1615611fb9565b16421015611ff3565b82156105635761034b60ff60085416611ebe565b6009549061035b84831015611ef7565b845483516323b872dd60e01b81523388820152306024820152604481018690526001600160a01b0393918390829060649082908b9089165af180156105595761052c575b506002548061047a5750846104319187988298670de0b6b3a76400006103e87fbac9694ac0daa55169abd117086fe32c89401d9a3b15dd1d34e55e0aa4e47a9d9a600154611dd6565b04915b549161040961271061040161ffff861684611dd6565b048092611e0c565b9781610454575b505061042c915080808089335af1610426611f34565b50611f74565b611e0c565b60095582519485528401523392a260016000805160206128468339815191525580f35b82809281926104719660101c165af161046b611f34565b5061204a565b89898180610410565b6104d86001546104cf670de0b6b3a7640000936104bc8a6104c96104c26104a789808c0494048098611dd6565b966104bc6104b58286611dff565b9185611dff565b90611dd6565b9180611dd6565b90611e0c565b60011c90611dff565b818102918183041490151715610519579461043191879882987fbac9694ac0daa55169abd117086fe32c89401d9a3b15dd1d34e55e0aa4e47a9d98916103eb565b634e487b7160e01b875260118852602487fd5b61054b90833d8511610552575b6105438183611d34565b810190612032565b508761039f565b503d610539565b85513d89823e3d90fd5b8490606492519162461bcd60e51b835282015260136024820152724d7573742073656c6c20736f6d657468696e6760681b6044820152fd5b8280fd5b5050346102295781600319360112610229576020906007549051908152f35b83915034610229576020908160031936011261059b5780359061ffff82168092036106e9576006548551638da5cb5b60e01b81526001600160a01b03918216919085818581865afa9081156106df579061062d93929188916106b2575b501633149081156106a8575b50611d75565b6103e8821161066d57937f08f6c2b2b5b95a33c6a8871acf4e7a0ff9c68627cbfed148744d97691e3f46ba93948261ffff1982541617905551908152a180f35b845162461bcd60e51b815290810183905260156024820152744665652063616e6e6f74206578636565642031302560581b6044820152606490fd5b9050331487610627565b6106d29150873d89116106d8575b6106ca8183611d34565b810190611d56565b8961061b565b503d6106c0565b88513d89823e3d90fd5b600080fd5b90503461059b57602036600319011261059b576006548251638da5cb5b60e01b81528235926001600160a01b03928316929190602090829081865afa9081156107a857927fffdfcd8eae5905cc8c33f87cb13a5df06766499318d99a5fcd3e5fa60fe74a2395926107759260209695899161078b575b501633149081156107815750611d75565b8160035551908152a180f35b9050331438610627565b6107a29150873d89116106d8576106ca8183611d34565b38610764565b85513d88823e3d90fd5b50503461022957816003193601126102295760209061ffff600a54169051908152f35b90503461059b578260031936011261059b576006548251638da5cb5b60e01b81526001600160a01b0391821692602090829081865afa908115610881579261084a94926108369260ff95889161086857501633149081156107815750611d75565b61083e61210a565b600c54901c1615611fb9565b61085347612388565b60016000805160206128468339815191525580f35b6107a2915060203d6020116106d8576106ca8183611d34565b84513d87823e3d90fd5b50503461022957816003193601126102295760065490516001600160a01b039091168152602090f35b5050346102295781600319360112610229576020906002549051908152f35b90503461059b57602036600319011261059b5780359067ffffffffffffffff8216809203610992576006548351638da5cb5b60e01b81526001600160a01b0391821692602090829081865afa9081156107a857927ef6cd547296c70c9cab792bbd7b7bab0c7107640a3f5a6e3c7041e2451d8be195926109689260209695899161078b57501633149081156107815750611d75565b81600c5461097b60ff82851c1615611fb9565b67ffffffffffffffff191617600c5551908152a180f35b8380fd5b50503461022957816003193601126102295760209067ffffffffffffffff600c54169051908152f35b90508260031936011261059b576109d461210a565b6109dc612173565b600c54906109ef60ff83851c1615611fb9565b610a0d67ffffffffffffffff60ff8460481c169361032e8515611e7e565b3415610e1157610a2160ff60085416611ebe565b612710610a3361ffff83541634611dd6565b0490610a3f8234611e0c565b91600954926002548015600014610d175750600154908115610ceb5790670de0b6b3a7640000610a6f9202611db6565b925b8315610cb457865486516370a0823160e01b815230858201526020966001600160a01b03939284169291908882602481875afa918215610caa578b92610c7b575b5015610c725789905b610ac58883611dff565b11610c4457610ae0610ad78884611dff565b91600754611e0c565b10610c0d57875163a9059cbb60e01b815233868201908152602081018890528a959493919291899184919082908990829060400103925af1908115610c0357610b30928892610be6575b50611dff565b60095581610bc5575b50505050825190348252828201527fa9a40dec7a304e5915d11358b968c1e8d365992abf20f82285d1df1b30c8e24c833392a2476003541115610b8d575b8260016000805160206128468339815191525580f35b7fc1b6170c1a12e8e6e16ac11093d782c998b06d4fb9ecda78f4eba96d24aaa9f391479051908152a1610bbe6122be565b3880610b77565b8280928192610bdd965460101c165af161046b611f34565b38848180610b39565b610bfc908a3d8c11610552576105438183611d34565b5038610b2a565b89513d87823e3d90fd5b875162461bcd60e51b815280860188905260116024820152704578636565647320617661696c61626c6560781b6044820152606490fd5b885162461bcd60e51b8152808701899052600860248201526714dbdb19081bdd5d60c21b6044820152606490fd5b600b5490610abb565b9091508881813d8311610ca3575b610c938183611d34565b810103126106e957519038610ab2565b503d610c89565b8a513d8d823e3d90fd5b855162461bcd60e51b8152602081850152601160248201527021b0b631bab630ba34b7b71032b93937b960791b6044820152606490fd5b865162461bcd60e51b8152602081860152600660248201526504261642070360d41b6044820152606490fd5b610d316001546102a3670de0b6b3a7640000880484611dd6565b6001600160ff1b0392600182901b9184811603610dfe57610d528280611dd6565b906001600160fd1b0384168403610deb57610d7c916102a3610d77928660031b611dd6565b61219e565b818110610dbd5790610d8d91611e0c565b9181168103610daa5790610da49160011b90611db6565b92610a71565b634e487b7160e01b885260118452602488fd5b885162461bcd60e51b8152602081880152600860248201526726b0ba341032b93960c11b6044820152606490fd5b634e487b7160e01b8b526011875260248bfd5b634e487b7160e01b8a526011865260248afd5b606490602084519162461bcd60e51b835282015260126024820152714d7573742070617920736f6d657468696e6760701b6044820152fd5b505034610229578160031936011261022957602090600b549051908152f35b90503461059b578260031936011261059b576008549060ff8216610fd15783548351638da5cb5b60e01b81526001600160a01b0391821693916020828581885afa918215610fc7578792610fa6575b5030911603610f635760ff191660011760085560075484929190823b156109925784516340c10f1960e01b815230928101928352602083019190915291839183919082908490829060400103925af18015610f5657610f42575b507f325346a443e76d906638205113ba2a0a570c592d6700780ca605c087616abc726020836007549051908152a180f35b610f4b90611d0a565b610229578138610f11565b50505051903d90823e3d90fd5b835162461bcd60e51b8152602081840152601860248201527f546f6b656e206e6f74206f776e656420627920637572766500000000000000006044820152606490fd5b610fc091925060203d6020116106d8576106ca8183611d34565b9038610eb7565b86513d89823e3d90fd5b606490602084519162461bcd60e51b8352820152600e60248201526d105b1c9958591e481cd95959195960921b6044820152fd5b5050346102295781600319360112610229576000805160206128068339815191525490516001600160a01b039091168152602090f35b5050346102295760203660031901126102295760209160ff9082906001600160a01b03611066611cf4565b168152600d855220541690519015158152f35b90503461059b578260031936011261059b576006548251638da5cb5b60e01b81526001600160a01b0391821692602090829081865afa90811561088157927f62e78cea01bee320cd4e420270b5ea74000d11b0c9f74754ebdbfc544b05a25894926110f892602095889161113357501633149081156107815750611d75565b61110960ff600c54831c1615611fb9565b611111612173565b600080516020612826833981519152805460ff1916600117905551338152a180f35b6107a29150863d88116106d8576106ca8183611d34565b839150346102295781600319360112610229576006548351638da5cb5b60e01b81526001600160a01b0394918516906020818581855afa9081156112eb576111a79291879187916112cc575b501633149081156112c25750611d75565b600c549360ff85831c1661128d57600160401b856111cc60ff879860481c1615611e7e565b68ff0000000000000000191617600c556111e4612173565b600080516020612826833981519152600160ff198254161790557f62e78cea01bee320cd4e420270b5ea74000d11b0c9f74754ebdbfc544b05a25860208351338152a1835416803b1561128857839283925180948193638456cb5960e01b83525af1611274575b50337f2bb0c8f95b782c7d886b752278cc521ffa38550690cdbd399395e640ee967fb08280a280f35b61127d90611d0a565b61025a57808261124b565b505050fd5b815162461bcd60e51b8152602081850152600f60248201526e105b1c9958591e48195b98589b1959608a1b6044820152606490fd5b9050331486610627565b6112e5915060203d6020116106d8576106ca8183611d34565b88611196565b83513d87823e3d90fd5b833461025a578060031936011261025a5761130e61213a565b60008051602061280683398151915280546001600160a01b031981169091556000906001600160a01b03167f8be0079c531659141344cd1fd0a4f28419497f9722a3daafe3b4186f6b6457e08280a380f35b5050346102295781600319360112610229576020906003549051908152f35b82843461025a578060031936011261025a575061ffff60209254169051908152f35b50503461022957816003193601126102295760209060ff600080516020612826833981519152541690519015158152f35b90503461059b578260031936011261059b5754905160109190911c6001600160a01b0316815260209150f35b90503461059b578260031936011261059b576006548251638da5cb5b60e01b8152906001600160a01b03908116906020838581855afa80156107a85761145593879161086857501633149081156107815750611d75565b61146660ff600c54841c1615611fb9565b6000805160206128268339815191529081549060ff8216156114b6575060ff19169055513381527f5db9ee0a495bf2e6ff9c91a7834c1ba4fdd244a5e8aa4e537bd38aeae4b073aa90602090a180f35b8351638dfc202b60e01b8152fd5b90503461059b57602036600319011261059b576114df611cf4565b6006548351638da5cb5b60e01b81526001600160a01b039492939185169291602090829081865afa91821561156e575061152d92918591879161086857501633149081156107815750611d75565b16806bffffffffffffffffffffffff60a01b60055416176005557f3d34cc8a188b0116ebbbbab43310493807ae037bdab3d6746427d0e815dce3e08280a280f35b513d87823e3d90fd5b505034610229578160031936011261022957905490516001600160a01b039091168152602090f35b50503461022957816003193601126102295760055490516001600160a01b039091168152602090f35b50503461022957816003193601126102295760209060ff6008541690519015158152f35b9190503461059b57602036600319011261059b5781359161160b61210a565b600c5460ff81841c16156118015760ff6116299160481c1615611e7e565b82156117d45761163d60ff60085416611ebe565b60095461164c84821015611ef7565b845485906001600160a01b0316803b1561022957845163079cc67960e41b815233858201908152602081018890529091839183919082908490829060400103925af180156117ca576117b2575b50506002548061175c5750670de0b6b3a76400006116b985600154611dd6565b04915b8247106117245750906116ff847f2dc8e290002f06fc0085bbca9dfb8b415cf4d1178950c72ff9ee8f4d8878ee66949361042c8880808088335af1610426611f34565b600955815193845260208401523392a260016000805160206128468339815191525580f35b606490602085519162461bcd60e51b83528201526012602482015271496e73756666696369656e742066756e647360701b6044820152fd5b6117896001546104cf670de0b6b3a7640000936104bc896104c96104c26104a789808c0494048098611dd6565b81810291818304149015171561179f57916116bc565b634e487b7160e01b865260118352602486fd5b6117bb90611d0a565b6117c6578438611699565b8480fd5b85513d84823e3d90fd5b6020606492519162461bcd60e51b835282015260086024820152670416d6f756e743d360c41b6044820152fd5b506020606492519162461bcd60e51b83528201526009602482015268139bc81c99599d5b9960ba1b6044820152fd5b5050346102295781600319360112610229576020906001549051908152f35b90503461059b5761014036600319011261059b5761186b611cf4565b6001600160a01b0391602435908382168203611b7d5760a4359361ffff8516809503611b795760c435918183168303611b755760e43592828416809403611b715761012435838116809103611b6d577ff0c57e16840df040f15088dc2f81fe391c3923bec73e23a9662efc9c229c6a009788549760ff898c1c16159767ffffffffffffffff8a16998a1580611b66575b6001809c149081611b5c575b159081611b53575b50611b43579161194988928f979695948e908d8f67ffffffffffffffff198316178355611b23575b50506119416127c4565b6102526127c4565b6119516127c4565b6119596127c4565b8a600080516020612846833981519152556119726127c4565b16926bffffffffffffffffffffffff60a01b9184838754161786556044358b5560643560025560843560035586549162010000600160b01b039060101b169169ffffffffffffffffffff60b01b1617178555868160055416176005556101043560075560065416176006556107d061ffff19600a541617600a556aa56fa5b99019a5c8000000600b55803b1561022957819060248a518094819363c22dc7e760e01b83528b888401525af1611b0c575b50908792918184541691823b156117c657848080899560448d518094819363bb4628d160e01b9a8b8452308b85015260248401525af1611af8575b505083611ab3575b5050505050611a72578380f35b7fc7f505b2f371ae2175ee4913f4499e1f2633a7b5936321eed1cdaeb6115181d29260209268ff000000000000000019815416905551908152a13880808380f35b845416803b156117c6578492836044928b51968795869485528401528960248401525af1611ae4575b808080611a65565b611aed90611d0a565b6117c6578438611adc565b611b0190611d0a565b6117c6578438611a5d565b611b1a909891939298611d0a565b96909138611a22565b68ffffffffffffffffff1916680100000000000000011790558d38611937565b8c5163f92ee8a960e01b81528790fd5b9050153861190f565b303b159150611907565b50896118fb565b8980fd5b8880fd5b8780fd5b8680fd5b8580fd5b50503461022957816003193601126102295760209060ff600c5460481c1690519015158152f35b82843461025a57602036600319011261025a57506102a960209235611e19565b5050346102295781600319360112610229576020906009549051908152f35b91509134610992578060031936011261099257611c02611cf4565b9060243591821515809303611b7d57600654638da5cb5b60e01b85526020946001600160a01b03929183169086818981855afa908115611cea57611c5a929185918b91611cd357501633149081156107815750611d75565b16938415611ca65750907fbd32e1e1567f9829f1feb1a1ed82721ae3d1492ea1c4de614ddd34e717880e919291848652600d835280862060ff1981541660ff841617905551908152a280f35b83606492519162461bcd60e51b835282015260096024820152682d32b9379030b2323960b91b6044820152fd5b6107a29150893d8b116106d8576106ca8183611d34565b85513d8b823e3d90fd5b600435906001600160a01b03821682036106e957565b67ffffffffffffffff8111611d1e57604052565b634e487b7160e01b600052604160045260246000fd5b90601f8019910116810190811067ffffffffffffffff821117611d1e57604052565b908160209103126106e957516001600160a01b03811681036106e95790565b15611d7c57565b60405162461bcd60e51b815260206004820152601260248201527127b7363c903330b1ba37b93c9037bbb732b960711b6044820152606490fd5b8115611dc0570490565b634e487b7160e01b600052601260045260246000fd5b81810292918115918404141715611de957565b634e487b7160e01b600052601160045260246000fd5b91908201809211611de957565b91908203918211611de957565b60025480611e3b5750611e37670de0b6b3a764000091600154611dd6565b0490565b611e6b906104cf600154916104bc670de0b6b3a7640000956104c96104c26104a789806009540494048098611dd6565b818102918183041490151715611de95790565b15611e8557565b60405162461bcd60e51b8152602060048201526011602482015270131a5c5d5a591a5d1e4818dc99585d1959607a1b6044820152606490fd5b15611ec557565b60405162461bcd60e51b815260206004820152600a602482015269139bdd081cd95959195960b21b6044820152606490fd5b15611efe57565b60405162461bcd60e51b815260206004820152600e60248201526d125b9d985b1a5908185b5bdd5b9d60921b6044820152606490fd5b3d15611f6f573d9067ffffffffffffffff8211611d1e5760405191611f63601f8201601f191660200184611d34565b82523d6000602084013e565b606090565b15611f7b57565b60405162461bcd60e51b81526020600482015260166024820152751499599d5b99081d1c985b9cd9995c8819985a5b195960521b6044820152606490fd5b15611fc057565b60405162461bcd60e51b815260206004820152600b60248201526a526566756e64206d6f646560a81b6044820152606490fd5b15611ffa57565b60405162461bcd60e51b815260206004820152601060248201526f14d85b19481b9bdd081cdd185c9d195960821b6044820152606490fd5b908160209103126106e9575180151581036106e95790565b1561205157565b60405162461bcd60e51b815260206004820152601c60248201527f506c6174666f726d20666565207472616e73666572206661696c6564000000006044820152606490fd5b6001600160a01b039081169081156120f15760008051602061280683398151915280546001600160a01b031981168417909155167f8be0079c531659141344cd1fd0a4f28419497f9722a3daafe3b4186f6b6457e0600080a3565b604051631e4fbdf760e01b815260006004820152602490fd5b60008051602061284683398151915260028154146121285760029055565b604051633ee5aeb560e01b8152600490fd5b600080516020612806833981519152546001600160a01b0316330361215b57565b60405163118cdaa760e01b8152336004820152602490fd5b60ff600080516020612826833981519152541661218c57565b60405163d93c066560e01b8152600490fd5b6001808211156122ba5761225b908083600160801b8110156122a8575b80600160401b600492101561229b575b64010000000081101561228e575b62010000811015612281575b610100811015612275575b6010811015612269575b1015612262575b600302811c6122108185611db6565b01811c61221d8185611db6565b01811c61222a8185611db6565b01811c6122378185611db6565b01811c6122448185611db6565b01811c6122518185611db6565b01901c8092611db6565b8111900390565b811b612201565b811c9160021b916121fa565b60081c91811b916121f0565b60101c9160081b916121e5565b60201c9160101b916121d9565b60401c9160201b916121cb565b50600160401b9050608084901c6121bb565b5090565b600c5460ff8160401c16159081612379575b5080612365575b6122dd57565b600b54801561234757600154670de0b6b3a764000090818102918183041490151715611de957612316906102a360025460095490611dd6565b908115612361576ec097ce7bc90715b34b9f10000000009161233791611dd6565b048047101580612355575b61234a575b50565b61235390612388565b565b50476003541115612342565b5050565b506005546001600160a01b031615156122d7565b60ff915060481c1615386122d0565b600c54906000916040916123a160ff83851c1615611fb9565b6123b160ff8360481c1615611e7e565b6005546001600160a01b03908116929091908315612793578451638da5cb5b60e01b815260049460209182818881855afa90811561278957899161276c575b5085309116036127355760095490600154670de0b6b3a764000092838202918083048514901517156126f357906102a361242c92600254611dd6565b918215612706578086028681048214871517156126f3576ec097ce7bc90715b34b9f10000000008097029181830414901517156126e0578261246d91611db6565b9485156126ac57868a54169289516370a0823160e01b8152308a8201528581602481885afa9081156126a2578c91612671575b50878110612667575b506124b49087611dd6565b04938515158061265e575b156126225769ff0000000000000000001916690100000000000000000017600c55600b54801515818782612617575b505061260f575b50875163a9059cbb60e01b81526001600160a01b03909116818801908152602081018690529091839183919082908c90829060400103925af18015612605576125e7575b50508260055416908387541690823b15611b755786516256688760e81b81526001600160a01b03929092168683019081526020810194909452909287928492918390036040019183915af18015610881576125d4575b5083600b5583541691823b15610992576024849283809351958694859363c22dc7e760e01b85528401525af16125c3575050565b6125cd8291611d0a565b61025a5750565b6125e090949194611d0a565b923861258f565b816125fd92903d10610552576105438183611d34565b503880612539565b87513d8a823e3d90fd5b9450826124f5565b1015905081386124ee565b885162461bcd60e51b81528089018590526016602482015275496e73756666696369656e7420696e76656e746f727960501b6044820152606490fd5b508415156124bf565b96506124b46124a9565b90508581813d831161269b575b6126888183611d34565b810103126126975751386124a0565b8b80fd5b503d61267e565b8b513d8e823e3d90fd5b885162461bcd60e51b8152808901859052600e60248201526d0a8dede40d8d2e8e8d8ca408aa8960931b6044820152606490fd5b634e487b7160e01b8a526011885260248afd5b634e487b7160e01b8b526011895260248bfd5b885162461bcd60e51b8152808901859052600960248201526842616420707269636560b81b6044820152606490fd5b865162461bcd60e51b8152808701839052601160248201527013585b9859d95c881b9bdd081bdddb9959607a1b6044820152606490fd5b6127839150833d85116106d8576106ca8183611d34565b386123f0565b88513d8b823e3d90fd5b845162461bcd60e51b815260206004820152600a60248201526927379036b0b730b3b2b960b11b6044820152606490fd5b60ff7ff0c57e16840df040f15088dc2f81fe391c3923bec73e23a9662efc9c229c6a005460401c16156127f357565b604051631afcd79f60e31b8152600490fdfe9016d09d72d40fdae2fd8ceac6b6234c7706214fd39c1cd1e609a0528c199300cd5ed15c6e187e77e9aee88184c21f4f2182ab5827cb3b7e07fbedcd63f033009b779b17422d0df92223018b32b4d1fa46e071723d6817e2486d003becc55f00a26469706673582212209430fef608498412e93debe5c507d536ddcfbdaeb40a0c7a9b3737610243601364736f6c63430008180033",
  "linkReferences": {},
  "deployedLinkReferences": {}
}