{
  "_format": "hh-sol-artifact-1",
  "contractName": "LiquidityManager",
  "sourceName": "contracts/LiquidityManager.sol",
  "abi": [
    {
      "inputs": [
        {
          "internalType": "address",
          "name": "_routerAddress",
          "type": "address"
        },
        {
          "internalType": "address",
          "name": "_owner",
          "type": "address"
        }
      ],
      "stateMutability": "nonpayable",
      "type": "constructor"
    },
    {
      "inputs": [
        {
          "internalType": "address",
          "name": "owner",
          "type": "address"
        }
      ],
      "name": "OwnableInvalidOwner",
      "type": "error"
    },
    {
      "inputs": [
        {
          "internalType": "address",
          "name": "account",
          "type": "address"
        }
      ],
      "name": "OwnableUnauthorizedAccount",
      "type": "error"
    },
    {
      "anonymous": false,
      "inputs": [
        {
          "indexed": true,
          "internalType": "address",
          "name": "previousOwner",
          "type": "address"
        },
        {
          "indexed": true,
          "internalType": "address",
          "name": "newOwner",
          "type": "address"
        }
      ],
      "name": "OwnershipTransferred",
      "type": "event"
    },
    {
      "inputs": [
        {
          "internalType": "address",
          "name": "_tokenAddress",
          "type": "address"
        },
        {
          "internalType": "uint256",
          "name": "_tokenAmount",
          "type": "uint256"
        }
      ],
      "name": "addLiquidity",
      "outputs": [],
      "stateMutability": "payable",
      "type": "function"
    },
    {
      "inputs": [],
      "name": "owner",
      "outputs": [
        {
          "internalType": "address",
          "name": "",
          "type": "address"
        }
      ],
      "stateMutability": "view",
      "type": "function"
    },
    {
      "inputs": [],
      "name": "pancakeRouter",
      "outputs": [
        {
          "internalType": "contract IPancakeRouter02",
          "name": "",
          "type": "address"
        }
      ],
      "stateMutability": "view",
      "type": "function"
    },
    {
      "inputs": [],
      "name": "renounceOwnership",
      "outputs": [],
      "stateMutability": "nonpayable",
      "type": "function"
    },
    {
      "inputs": [
        {
          "internalType": "address",
          "name": "newOwner",
          "type": "address"
        }
      ],
      "name": "transferOwnership",
      "outputs": [],
      "stateMutability": "nonpayable",
      "type": "function"
    }
  ],
  "bytecode": "0x60a0346100de57601f61051938819003918201601f19168301916001600160401b038311848410176100e35780849260409485528339810103126100de576020610048826100f9565b916001600160a01b0391829161005e91016100f9565b169182156100c557600080546001600160a01b03198116851782556040519491908416907f8be0079c531659141344cd1fd0a4f28419497f9722a3daafe3b4186f6b6457e09080a31660805261040b908161010e823960805181818160f601526101ed0152f35b604051631e4fbdf760e01b815260006004820152602490fd5b600080fd5b634e487b7160e01b600052604160045260246000fd5b51906001600160a01b03821682036100de5756fe6040608081526004908136101561001557600080fd5b600091823560e01c806356688700146101ae578063715018a6146101515780638da5cb5b14610129578063c21ebd07146100e15763f2fde38b1461005857600080fd5b346100dd5760203660031901126100dd57610071610356565b9061007a6103a9565b6001600160a01b039182169283156100c757505082546001600160a01b0319811683178455167f8be0079c531659141344cd1fd0a4f28419497f9722a3daafe3b4186f6b6457e08380a380f35b51631e4fbdf760e01b8152908101849052602490fd5b8280fd5b505034610125578160031936011261012557517f00000000000000000000000000000000000000000000000000000000000000006001600160a01b03168152602090f35b5080fd5b505034610125578160031936011261012557905490516001600160a01b039091168152602090f35b83346101ab57806003193601126101ab5761016a6103a9565b80546001600160a01b03198116825581906001600160a01b03167f8be0079c531659141344cd1fd0a4f28419497f9722a3daafe3b4186f6b6457e08280a380f35b80fd5b50919080600319360112610125576101c4610356565b90602435916101d16103a9565b341561032057815163095ea7b360e01b81526001600160a01b037f000000000000000000000000000000000000000000000000000000000000000081168783018190526024830186905292811692916020816044818a885af18015610316576102d6575b508554166103844201908142116102c3576060939260c49289928751988996879563f305d71960e01b87528601526024850152896044850152896064850152608484015260a483015234905af19081156102ba5750610292575080f35b606090813d83116102b3575b6102a88183610371565b810103126101ab5780f35b503d61029e565b513d84823e3d90fd5b634e487b7160e01b875260118852602487fd5b6020813d60201161030e575b816102ef60209383610371565b8101031261030a5751801515036103065738610235565b8580fd5b8680fd5b3d91506102e2565b85513d89823e3d90fd5b815162461bcd60e51b8152602081870152601060248201526f09aeae6e840e0e4deecd2c8ca408aa8960831b6044820152606490fd5b600435906001600160a01b038216820361036c57565b600080fd5b90601f8019910116810190811067ffffffffffffffff82111761039357604052565b634e487b7160e01b600052604160045260246000fd5b6000546001600160a01b031633036103bd57565b60405163118cdaa760e01b8152336004820152602490fdfea2646970667358221220cde6ebdf420a80660cbb98bbfae88efa060f1d80365ef66bfc6a417c34547f5264736f6c63430008180033",
  "linkReferences": {},
  "deployedLinkReferences": {}
}