{
  "_format": "hh-sol-artifact-1",
  "contractName": "LPLocker",
  "sourceName": "contracts/LPLocker.sol",
  "abi": [
    {
      "inputs": [
        {
          "internalType": "address",
          "name": "_owner",
          "type": "address"
        }
      ],
      "stateMutability": "nonpayable",
      "type": "constructor"
    },
    {
      "inputs": [
        {
          "internalType": "address",
          "name": "owner",
          "type": "address"
        }
      ],
      "name": "OwnableInvalidOwner",
      "type": "error"
    },
    {
      "inputs": [
        {
          "internalType": "address",
          "name": "account",
          "type": "address"
        }
      ],
      "name": "OwnableUnauthorizedAccount",
      "type": "error"
    },
    {
      "anonymous": false,
      "inputs": [
        {
          "indexed": true,
          "internalType": "uint256",
          "name": "lockId",
          "type": "uint256"
        },
        {
          "indexed": true,
          "internalType": "address",
          "name": "owner",
          "type": "address"
        },
        {
          "indexed": true,
          "internalType": "address",
          "name": "token",
          "type": "address"
        },
        {
          "indexed": false,
          "internalType": "uint256",
          "name": "amount",
          "type": "uint256"
        },
        {
          "indexed": false,
          "internalType": "uint256",
          "name": "unlockTime",
          "type": "uint256"
        }
      ],
      "name": "Locked",
      "type": "event"
    },
    {
      "anonymous": false,
      "inputs": [
        {
          "indexed": true,
          "internalType": "address",
          "name": "previousOwner",
          "type": "address"
        },
        {
          "indexed": true,
          "internalType": "address",
          "name": "newOwner",
          "type": "address"
        }
      ],
      "name": "OwnershipTransferred",
      "type": "event"
    },
    {
      "anonymous": false,
      "inputs": [
        {
          "indexed": true,
          "internalType": "uint256",
          "name": "lockId",
          "type": "uint256"
        },
        {
          "indexed": true,
          "internalType": "address",
          "name": "owner",
          "type": "address"
        },
        {
          "indexed": true,
          "internalType": "address",
          "name": "token",
          "type": "address"
        },
        {
          "indexed": false,
          "internalType": "uint256",
          "name": "amount",
          "type": "uint256"
        }
      ],
      "name": "Withdrawn",
      "type": "event"
    },
    {
      "inputs": [
        {
          "internalType": "address",
          "name": "token",
          "type": "address"
        },
        {
          "internalType": "uint256",
          "name": "amount",
          "type": "uint256"
        },
        {
          "internalType": "uint256",
          "name": "unlockTime",
          "type": "uint256"
        }
      ],
      "name": "lock",
      "outputs": [
        {
          "internalType": "uint256",
          "name": "lockId",
          "type": "uint256"
        }
      ],
      "stateMutability": "nonpayable",
      "type": "function"
    },
    {
      "inputs": [
        {
          "internalType": "uint256",
          "name": "",
          "type": "uint256"
        }
      ],
      "name": "locks",
      "outputs": [
        {
          "internalType": "address",
          "name": "token",
          "type": "address"
        },
        {
          "internalType": "address",
          "name": "owner",
          "type": "address"
        },
        {
          "internalType": "uint256",
          "name": "amount",
          "type": "uint256"
        },
        {
          "internalType": "uint256",
          "name": "unlockTime",
          "type": "uint256"
        },
        {
          "internalType": "bool",
          "name": "withdrawn",
          "type": "bool"
        }
      ],
      "stateMutability": "view",
      "type": "function"
    },
    {
      "inputs": [],
      "name": "nextLockId",
      "outputs": [
        {
          "internalType": "uint256",
          "name": "",
          "type": "uint256"
        }
      ],
      "stateMutability": "view",
      "type": "function"
    },
    {
      "inputs": [],
      "name": "owner",
      "outputs": [
        {
          "internalType": "address",
          "name": "",
          "type": "address"
        }
      ],
      "stateMutability": "view",
      "type": "function"
    },
    {
      "inputs": [],
      "name": "renounceOwnership",
      "outputs": [],
      "stateMutability": "nonpayable",
      "type": "function"
    },
    {
      "inputs": [
        {
          "internalType": "address",
          "name": "newOwner",
          "type": "address"
        }
      ],
      "name": "transferOwnership",
      "outputs": [],
      "stateMutability": "nonpayable",
      "type": "function"
    },
    {
      "inputs": [
        {
          "internalType": "uint256",
          "name": "lockId",
          "type": "uint256"
        }
      ],
      "name": "withdraw",
      "outputs": [],
      "stateMutability": "nonpayable",
      "type": "function"
    }
  ],
  "bytecode": "0x6080346100bb57601f6107c938819003918201601f19168301916001600160401b038311848410176100c0578084926020946040528339810103126100bb57516001600160a01b0390818116908190036100bb5780156100a257600080546001600160a01b03198116831782556040519316907f8be0079c531659141344cd1fd0a4f28419497f9722a3daafe3b4186f6b6457e09080a36106f290816100d78239f35b604051631e4fbdf760e01b815260006004820152602490fd5b600080fd5b634e487b7160e01b600052604160045260246000fdfe608060408181526004908136101561001657600080fd5b600092833560e01c9081632e1a7d4d1461045b575080636518a0b31461043c578063715018a6146103df5780638da5cb5b146103b3578063e2ab691d1461015b578063f2fde38b146100d45763f4dadc611461007157600080fd5b346100d05760203660031901126100d0578060a09383358152600260205220600180851b039283825416936001830154169260ff6002840154926003850154940154169381519586526020860152840152606083015215156080820152f35b8280fd5b5090346100d05760203660031901126100d0576100ef6105e7565b906100f8610690565b6001600160a01b0391821692831561014557505082546001600160a01b0319811683178455167f8be0079c531659141344cd1fd0a4f28419497f9722a3daafe3b4186f6b6457e08380a380f35b51631e4fbdf760e01b8152908101849052602490fd5b5090346100d05760603660031901126100d0576101766105e7565b6024936001600160a01b039291831691853591604435918415610381578315610354574283111561032157600154600019811461030f57600101958660015587519060a0820182811067ffffffffffffffff8211176102fd57899a92899a999285928b5289825260209c8d918284019033825280838601938d855260608701958d875260808801998d8b528d52600290528b20955116906bffffffffffffffffffffffff60a01b91828754161786556001860192511690825416179055516002830155516003820155019051151560ff198254169060ff161790558651916323b872dd60e01b83523390830152309082015283604482015287818681855a92606493f19182156102f25790610290926102c5575b50610652565b835191825285820152837f1cb39d6ecc8f823fa6183785ee795ddcb2873e92effbff9b9a377ef761035676843393a451908152f35b6102e59150883d8a116102eb575b6102dd8183610602565b81019061063a565b3861028a565b503d6102d3565b8651903d90823e3d90fd5b634e487b7160e01b8552604184528a85fd5b634e487b7160e01b8352601182528883fd5b606490600e8960208a519362461bcd60e51b85528401528201526d155b9b1bd8dac81a5b881c185cdd60921b6044820152fd5b60649060088960208a519362461bcd60e51b8552840152820152670416d6f756e743d360c41b6044820152fd5b606490600d8960208a519362461bcd60e51b85528401528201526c24b73b30b634b2103a37b5b2b760991b6044820152fd5b8382346103db57816003193601126103db57905490516001600160a01b039091168152602090f35b5080fd5b83346104395780600319360112610439576103f8610690565b80546001600160a01b03198116825581906001600160a01b03167f8be0079c531659141344cd1fd0a4f28419497f9722a3daafe3b4186f6b6457e08280a380f35b80fd5b8382346103db57816003193601126103db576020906001549051908152f35b9050346105e3576020806003193601126105df57833580865260028252838620600181015491936001600160a01b0392831633036105b25750858101805460ff811661057b576003830154421061054f5760019060ff19161790558181541683600283019760448954918b8a51958694859363a9059cbb60e01b8552339085015260248401525af1908115610545577fe5df19de43c8c04fd192bc68e484b2593570925fbb6ad8c07ccafbc2aa5c37a19493929161051f918a9161052e5750610652565b5416945493519384523393a480f35b6102e59150853d87116102eb576102dd8183610602565b86513d8a823e3d90fd5b865162461bcd60e51b81528089018690526006602482015265131bd8dad95960d21b6044820152606490fd5b865162461bcd60e51b8152808901869052601160248201527020b63932b0b23c903bb4ba34323930bbb760791b6044820152606490fd5b62461bcd60e51b815286810184905260096024820152682737ba1037bbb732b960b91b6044820152606490fd5b8480fd5b8380fd5b600435906001600160a01b03821682036105fd57565b600080fd5b90601f8019910116810190811067ffffffffffffffff82111761062457604052565b634e487b7160e01b600052604160045260246000fd5b908160209103126105fd575180151581036105fd5790565b1561065957565b60405162461bcd60e51b815260206004820152600f60248201526e151c985b9cd9995c8819985a5b1959608a1b6044820152606490fd5b6000546001600160a01b031633036106a457565b60405163118cdaa760e01b8152336004820152602490fdfea2646970667358221220a342541605eaf62ef60d75e735e8fee7e1f089b0239eda032fc4d4929459c9dc64736f6c63430008180033",
  "linkReferences": {},
  "deployedLinkReferences": {}
}