{
  "_format": "hh-sol-artifact-1",
  "contractName": "MetadataRegistry",
  "sourceName": "contracts/MetadataRegistry.sol",
  "abi": [
    {
      "inputs": [
        {
          "internalType": "address",
          "name": "_owner",
          "type": "address"
        }
      ],
      "stateMutability": "nonpayable",
      "type": "constructor"
    },
    {
      "inputs": [
        {
          "internalType": "address",
          "name": "sender",
          "type": "address"
        },
        {
          "internalType": "uint256",
          "name": "tokenId",
          "type": "uint256"
        },
        {
          "internalType": "address",
          "name": "owner",
          "type": "address"
        }
      ],
      "name": "ERC721IncorrectOwner",
      "type": "error"
    },
    {
      "inputs": [
        {
          "internalType": "address",
          "name": "operator",
          "type": "address"
        },
        {
          "internalType": "uint256",
          "name": "tokenId",
          "type": "uint256"
        }
      ],
      "name": "ERC721InsufficientApproval",
      "type": "error"
    },
    {
      "inputs": [
        {
          "internalType": "address",
          "name": "approver",
          "type": "address"
        }
      ],
      "name": "ERC721InvalidApprover",
      "type": "error"
    },
    {
      "inputs": [
        {
          "internalType": "address",
          "name": "operator",
          "type": "address"
        }
      ],
      "name": "ERC721InvalidOperator",
      "type": "error"
    },
    {
      "inputs": [
        {
          "internalType": "address",
          "name": "owner",
          "type": "address"
        }
      ],
      "name": "ERC721InvalidOwner",
      "type": "error"
    },
    {
      "inputs": [
        {
          "internalType": "address",
          "name": "receiver",
          "type": "address"
        }
      ],
      "name": "ERC721InvalidReceiver",
      "type": "error"
    },
    {
      "inputs": [
        {
          "internalType": "address",
          "name": "sender",
          "type": "address"
        }
      ],
      "name": "ERC721InvalidSender",
      "type": "error"
    },
    {
      "inputs": [
        {
          "internalType": "uint256",
          "name": "tokenId",
          "type": "uint256"
        }
      ],
      "name": "ERC721NonexistentToken",
      "type": "error"
    },
    {
      "inputs": [
        {
          "internalType": "address",
          "name": "owner",
          "type": "address"
        }
      ],
      "name": "OwnableInvalidOwner",
      "type": "error"
    },
    {
      "inputs": [
        {
          "internalType": "address",
          "name": "account",
          "type": "address"
        }
      ],
      "name": "OwnableUnauthorizedAccount",
      "type": "error"
    },
    {
      "anonymous": false,
      "inputs": [
        {
          "indexed": true,
          "internalType": "address",
          "name": "owner",
          "type": "address"
        },
        {
          "indexed": true,
          "internalType": "address",
          "name": "approved",
          "type": "address"
        },
        {
          "indexed": true,
          "internalType": "uint256",
          "name": "tokenId",
          "type": "uint256"
        }
      ],
      "name": "Approval",
      "type": "event"
    },
    {
      "anonymous": false,
      "inputs": [
        {
          "indexed": true,
          "internalType": "address",
          "name": "owner",
          "type": "address"
        },
        {
          "indexed": true,
          "internalType": "address",
          "name": "operator",
          "type": "address"
        },
        {
          "indexed": false,
          "internalType": "bool",
          "name": "approved",
          "type": "bool"
        }
      ],
      "name": "ApprovalForAll",
      "type": "event"
    },
    {
      "anonymous": false,
      "inputs": [
        {
          "indexed": false,
          "internalType": "uint256",
          "name": "_fromTokenId",
          "type": "uint256"
        },
        {
          "indexed": false,
          "internalType": "uint256",
          "name": "_toTokenId",
          "type": "uint256"
        }
      ],
      "name": "BatchMetadataUpdate",
      "type": "event"
    },
    {
      "anonymous": false,
      "inputs": [
        {
          "indexed": true,
          "internalType": "address",
          "name": "newFactory",
          "type": "address"
        }
      ],
      "name": "FactoryChanged",
      "type": "event"
    },
    {
      "anonymous": false,
      "inputs": [
        {
          "indexed": true,
          "internalType": "address",
          "name": "token",
          "type": "address"
        },
        {
          "indexed": true,
          "internalType": "uint256",
          "name": "tokenId",
          "type": "uint256"
        },
        {
          "indexed": true,
          "internalType": "address",
          "name": "owner",
          "type": "address"
        },
        {
          "indexed": false,
          "internalType": "string",
          "name": "uri",
          "type": "string"
        }
      ],
      "name": "LogoRegistered",
      "type": "event"
    },
    {
      "anonymous": false,
      "inputs": [
        {
          "indexed": true,
          "internalType": "address",
          "name": "token",
          "type": "address"
        },
        {
          "indexed": true,
          "internalType": "uint256",
          "name": "tokenId",
          "type": "uint256"
        },
        {
          "indexed": false,
          "internalType": "string",
          "name": "newURI",
          "type": "string"
        }
      ],
      "name": "LogoURIUpdated",
      "type": "event"
    },
    {
      "anonymous": false,
      "inputs": [
        {
          "indexed": false,
          "internalType": "uint256",
          "name": "_tokenId",
          "type": "uint256"
        }
      ],
      "name": "MetadataUpdate",
      "type": "event"
    },
    {
      "anonymous": false,
      "inputs": [
        {
          "indexed": true,
          "internalType": "address",
          "name": "token",
          "type": "address"
        },
        {
          "indexed": false,
          "internalType": "bool",
          "name": "locked",
          "type": "bool"
        }
      ],
      "name": "NameLocked",
      "type": "event"
    },
    {
      "anonymous": false,
      "inputs": [
        {
          "indexed": true,
          "internalType": "address",
          "name": "token",
          "type": "address"
        },
        {
          "indexed": true,
          "internalType": "string",
          "name": "name",
          "type": "string"
        }
      ],
      "name": "NameRegistered",
      "type": "event"
    },
    {
      "anonymous": false,
      "inputs": [
        {
          "indexed": true,
          "internalType": "string",
          "name": "name",
          "type": "string"
        },
        {
          "indexed": false,
          "internalType": "bool",
          "name": "reserved",
          "type": "bool"
        }
      ],
      "name": "NameReserved",
      "type": "event"
    },
    {
      "anonymous": false,
      "inputs": [
        {
          "indexed": true,
          "internalType": "address",
          "name": "token",
          "type": "address"
        },
        {
          "indexed": true,
          "internalType": "string",
          "name": "oldName",
          "type": "string"
        }
      ],
      "name": "NameUnregistered",
      "type": "event"
    },
    {
      "anonymous": false,
      "inputs": [
        {
          "indexed": true,
          "internalType": "address",
          "name": "token",
          "type": "address"
        },
        {
          "indexed": true,
          "internalType": "string",
          "name": "oldName",
          "type": "string"
        },
        {
          "indexed": true,
          "internalType": "string",
          "name": "newName",
          "type": "string"
        }
      ],
      "name": "NameUpdated",
      "type": "event"
    },
    {
      "anonymous": false,
      "inputs": [
        {
          "indexed": true,
          "internalType": "address",
          "name": "previousOwner",
          "type": "address"
        },
        {
          "indexed": true,
          "internalType": "address",
          "name": "newOwner",
          "type": "address"
        }
      ],
      "name": "OwnershipTransferred",
      "type": "event"
    },
    {
      "anonymous": false,
      "inputs": [
        {
          "indexed": true,
          "internalType": "address",
          "name": "from",
          "type": "address"
        },
        {
          "indexed": true,
          "internalType": "address",
          "name": "to",
          "type": "address"
        },
        {
          "indexed": true,
          "internalType": "uint256",
          "name": "tokenId",
          "type": "uint256"
        }
      ],
      "name": "Transfer",
      "type": "event"
    },
    {
      "inputs": [
        {
          "internalType": "address",
          "name": "to",
          "type": "address"
        },
        {
          "internalType": "uint256",
          "name": "tokenId",
          "type": "uint256"
        }
      ],
      "name": "approve",
      "outputs": [],
      "stateMutability": "nonpayable",
      "type": "function"
    },
    {
      "inputs": [
        {
          "internalType": "address",
          "name": "owner",
          "type": "address"
        }
      ],
      "name": "balanceOf",
      "outputs": [
        {
          "internalType": "uint256",
          "name": "",
          "type": "uint256"
        }
      ],
      "stateMutability": "view",
      "type": "function"
    },
    {
      "inputs": [],
      "name": "factory",
      "outputs": [
        {
          "internalType": "address",
          "name": "",
          "type": "address"
        }
      ],
      "stateMutability": "view",
      "type": "function"
    },
    {
      "inputs": [
        {
          "internalType": "uint256",
          "name": "tokenId",
          "type": "uint256"
        }
      ],
      "name": "getApproved",
      "outputs": [
        {
          "internalType": "address",
          "name": "",
          "type": "address"
        }
      ],
      "stateMutability": "view",
      "type": "function"
    },
    {
      "inputs": [
        {
          "internalType": "address",
          "name": "",
          "type": "address"
        }
      ],
      "name": "idOfToken",
      "outputs": [
        {
          "internalType": "uint256",
          "name": "",
          "type": "uint256"
        }
      ],
      "stateMutability": "view",
      "type": "function"
    },
    {
      "inputs": [
        {
          "internalType": "address",
          "name": "owner",
          "type": "address"
        },
        {
          "internalType": "address",
          "name": "operator",
          "type": "address"
        }
      ],
      "name": "isApprovedForAll",
      "outputs": [
        {
          "internalType": "bool",
          "name": "",
          "type": "bool"
        }
      ],
      "stateMutability": "view",
      "type": "function"
    },
    {
      "inputs": [
        {
          "internalType": "address",
          "name": "token",
          "type": "address"
        },
        {
          "internalType": "address",
          "name": "to",
          "type": "address"
        },
        {
          "internalType": "string",
          "name": "logoURI",
          "type": "string"
        },
        {
          "internalType": "string",
          "name": "name",
          "type": "string"
        }
      ],
      "name": "mintAndRegister",
      "outputs": [
        {
          "internalType": "uint256",
          "name": "tokenId",
          "type": "uint256"
        }
      ],
      "stateMutability": "nonpayable",
      "type": "function"
    },
    {
      "inputs": [
        {
          "internalType": "address",
          "name": "token",
          "type": "address"
        },
        {
          "internalType": "address",
          "name": "to",
          "type": "address"
        },
        {
          "internalType": "string",
          "name": "logoURI",
          "type": "string"
        }
      ],
      "name": "mintForToken",
      "outputs": [
        {
          "internalType": "uint256",
          "name": "tokenId",
          "type": "uint256"
        }
      ],
      "stateMutability": "nonpayable",
      "type": "function"
    },
    {
      "inputs": [],
      "name": "name",
      "outputs": [
        {
          "internalType": "string",
          "name": "",
          "type": "string"
        }
      ],
      "stateMutability": "view",
      "type": "function"
    },
    {
      "inputs": [
        {
          "internalType": "address",
          "name": "",
          "type": "address"
        }
      ],
      "name": "nameLocked",
      "outputs": [
        {
          "internalType": "bool",
          "name": "",
          "type": "bool"
        }
      ],
      "stateMutability": "view",
      "type": "function"
    },
    {
      "inputs": [
        {
          "internalType": "address",
          "name": "",
          "type": "address"
        }
      ],
      "name": "nameOf",
      "outputs": [
        {
          "internalType": "string",
          "name": "",
          "type": "string"
        }
      ],
      "stateMutability": "view",
      "type": "function"
    },
    {
      "inputs": [],
      "name": "nextId",
      "outputs": [
        {
          "internalType": "uint256",
          "name": "",
          "type": "uint256"
        }
      ],
      "stateMutability": "view",
      "type": "function"
    },
    {
      "inputs": [],
      "name": "owner",
      "outputs": [
        {
          "internalType": "address",
          "name": "",
          "type": "address"
        }
      ],
      "stateMutability": "view",
      "type": "function"
    },
    {
      "inputs": [
        {
          "internalType": "uint256",
          "name": "tokenId",
          "type": "uint256"
        }
      ],
      "name": "ownerOf",
      "outputs": [
        {
          "internalType": "address",
          "name": "",
          "type": "address"
        }
      ],
      "stateMutability": "view",
      "type": "function"
    },
    {
      "inputs": [],
      "name": "renounceOwnership",
      "outputs": [],
      "stateMutability": "nonpayable",
      "type": "function"
    },
    {
      "inputs": [
        {
          "internalType": "string",
          "name": "name",
          "type": "string"
        },
        {
          "internalType": "bool",
          "name": "isReserved",
          "type": "bool"
        }
      ],
      "name": "reserveName",
      "outputs": [],
      "stateMutability": "nonpayable",
      "type": "function"
    },
    {
      "inputs": [
        {
          "internalType": "string",
          "name": "",
          "type": "string"
        }
      ],
      "name": "reservedName",
      "outputs": [
        {
          "internalType": "bool",
          "name": "",
          "type": "bool"
        }
      ],
      "stateMutability": "view",
      "type": "function"
    },
    {
      "inputs": [
        {
          "internalType": "address",
          "name": "from",
          "type": "address"
        },
        {
          "internalType": "address",
          "name": "to",
          "type": "address"
        },
        {
          "internalType": "uint256",
          "name": "tokenId",
          "type": "uint256"
        }
      ],
      "name": "safeTransferFrom",
      "outputs": [],
      "stateMutability": "nonpayable",
      "type": "function"
    },
    {
      "inputs": [
        {
          "internalType": "address",
          "name": "from",
          "type": "address"
        },
        {
          "internalType": "address",
          "name": "to",
          "type": "address"
        },
        {
          "internalType": "uint256",
          "name": "tokenId",
          "type": "uint256"
        },
        {
          "internalType": "bytes",
          "name": "data",
          "type": "bytes"
        }
      ],
      "name": "safeTransferFrom",
      "outputs": [],
      "stateMutability": "nonpayable",
      "type": "function"
    },
    {
      "inputs": [
        {
          "internalType": "address",
          "name": "operator",
          "type": "address"
        },
        {
          "internalType": "bool",
          "name": "approved",
          "type": "bool"
        }
      ],
      "name": "setApprovalForAll",
      "outputs": [],
      "stateMutability": "nonpayable",
      "type": "function"
    },
    {
      "inputs": [
        {
          "internalType": "address",
          "name": "_factory",
          "type": "address"
        }
      ],
      "name": "setFactory",
      "outputs": [],
      "stateMutability": "nonpayable",
      "type": "function"
    },
    {
      "inputs": [
        {
          "internalType": "address",
          "name": "token",
          "type": "address"
        },
        {
          "internalType": "bool",
          "name": "locked",
          "type": "bool"
        }
      ],
      "name": "setNameLocked",
      "outputs": [],
      "stateMutability": "nonpayable",
      "type": "function"
    },
    {
      "inputs": [
        {
          "internalType": "uint256",
          "name": "tokenId",
          "type": "uint256"
        },
        {
          "internalType": "string",
          "name": "newURI",
          "type": "string"
        }
      ],
      "name": "setTokenLogoURI",
      "outputs": [],
      "stateMutability": "nonpayable",
      "type": "function"
    },
    {
      "inputs": [
        {
          "internalType": "address",
          "name": "token",
          "type": "address"
        },
        {
          "internalType": "string",
          "name": "newURI",
          "type": "string"
        }
      ],
      "name": "setTokenLogoURIForToken",
      "outputs": [],
      "stateMutability": "nonpayable",
      "type": "function"
    },
    {
      "inputs": [
        {
          "internalType": "address",
          "name": "token",
          "type": "address"
        },
        {
          "internalType": "string",
          "name": "name",
          "type": "string"
        }
      ],
      "name": "setTokenName",
      "outputs": [],
      "stateMutability": "nonpayable",
      "type": "function"
    },
    {
      "inputs": [
        {
          "internalType": "address",
          "name": "token",
          "type": "address"
        },
        {
          "internalType": "string",
          "name": "name",
          "type": "string"
        }
      ],
      "name": "setTokenNameByFactory",
      "outputs": [],
      "stateMutability": "nonpayable",
      "type": "function"
    },
    {
      "inputs": [
        {
          "internalType": "bytes4",
          "name": "interfaceId",
          "type": "bytes4"
        }
      ],
      "name": "supportsInterface",
      "outputs": [
        {
          "internalType": "bool",
          "name": "",
          "type": "bool"
        }
      ],
      "stateMutability": "view",
      "type": "function"
    },
    {
      "inputs": [],
      "name": "symbol",
      "outputs": [
        {
          "internalType": "string",
          "name": "",
          "type": "string"
        }
      ],
      "stateMutability": "view",
      "type": "function"
    },
    {
      "inputs": [
        {
          "internalType": "uint256",
          "name": "",
          "type": "uint256"
        }
      ],
      "name": "tokenOfId",
      "outputs": [
        {
          "internalType": "address",
          "name": "",
          "type": "address"
        }
      ],
      "stateMutability": "view",
      "type": "function"
    },
    {
      "inputs": [
        {
          "internalType": "string",
          "name": "",
          "type": "string"
        }
      ],
      "name": "tokenOfName",
      "outputs": [
        {
          "internalType": "address",
          "name": "",
          "type": "address"
        }
      ],
      "stateMutability": "view",
      "type": "function"
    },
    {
      "inputs": [
        {
          "internalType": "uint256",
          "name": "tokenId",
          "type": "uint256"
        }
      ],
      "name": "tokenURI",
      "outputs": [
        {
          "internalType": "string",
          "name": "",
          "type": "string"
        }
      ],
      "stateMutability": "view",
      "type": "function"
    },
    {
      "inputs": [
        {
          "internalType": "address",
          "name": "from",
          "type": "address"
        },
        {
          "internalType": "address",
          "name": "to",
          "type": "address"
        },
        {
          "internalType": "uint256",
          "name": "tokenId",
          "type": "uint256"
        }
      ],
      "name": "transferFrom",
      "outputs": [],
      "stateMutability": "nonpayable",
      "type": "function"
    },
    {
      "inputs": [
        {
          "internalType": "address",
          "name": "newOwner",
          "type": "address"
        }
      ],
      "name": "transferOwnership",
      "outputs": [],
      "stateMutability": "nonpayable",
      "type": "function"
    },
    {
      "inputs": [
        {
          "internalType": "address",
          "name": "token",
          "type": "address"
        }
      ],
      "name": "unsetTokenName",
      "outputs": [],
      "stateMutability": "nonpayable",
      "type": "function"
    }
  ],
  "bytecode": "0x608034620003bf57601f906001600160401b0390601f199062002adb388190038581018416830185811184821017620003a957839282916040528339602092839181010312620003bf57516001600160a01b03948582169491859003620003bf576200006a620003c4565b92600f84526e4d6f6f6e4578204d6574616461746160881b8185015262000090620003c4565b9060088252674d4f4f4e4d45544160c01b81830152845195848711620003a9576000968754966001978881811c911680156200039e575b858210146200038a5790818784931162000337575b508490878311600114620002d6578a92620002ca575b5050600019600383901b1c191690871b1787555b8251948511620002b65785548681811c91168015620002ab575b8382101462000297579081858796959493116200023e575b5081938511600114620001d95750508592620001cd575b5050600019600383901b1c191690821b1790555b8115620001b557600780546001600160a01b0319811684179091556040519316907f8be0079c531659141344cd1fd0a4f28419497f9722a3daafe3b4186f6b6457e09080a36126f69081620003e58239f35b60249060405190631e4fbdf760e01b82526004820152fd5b0151905038806200014f565b869593929193168588528388209388905b8282106200022457505084116200020a575b505050811b01905562000163565b015160001960f88460031b161c19169055388080620001fc565b8484015186558897909501949384019390810190620001ea565b9091929394508688528288208580880160051c8201928589106200028d575b9188978a9297969594930160051c01915b8281106200027e57505062000138565b8a81558897508991016200026e565b925081926200025d565b634e487b7160e01b88526022600452602488fd5b90607f169062000120565b634e487b7160e01b87526041600452602487fd5b015190503880620000f2565b90848a9416918b8052868c20928c5b8882821062000320575050841162000306575b505050811b01875562000106565b015160001960f88460031b161c19169055388080620002f8565b8385015186558d97909501949384019301620002e5565b909150898052848a208780850160051c82019287861062000380575b918b91869594930160051c01915b82811062000371575050620000dc565b8c81558594508b910162000361565b9250819262000353565b634e487b7160e01b8a52602260045260248afd5b90607f1690620000c7565b634e487b7160e01b600052604160045260246000fd5b600080fd5b60408051919082016001600160401b03811183821017620003a95760405256fe608060408181526004918236101561001657600080fd5b600092833560e01c91826301ffc9a71461188e5750816306fdde03146117dd578163081812fc146117a1578163095ea7b3146116c45781631db2d381146115de578163200e5a8a146115a0578163233ade20146113d157816323b872dd146113b9578163370a3eae1461135e5781633deb57d61461132b57816342842e0e146112fc5781635bb478081461125c5781635ccb6822146111d05781635d6265ff1461118957816361b8ce8c1461116a5781636352211e1461113957816370a08231146110e4578163715018a6146110875781637878fd1c14610fd75781638da5cb5b14610fae57816395d89b4114610ec0578163a1d80d6014610e88578163a22cb46514610de4578163b840d28d14610afd578163b88d4fde14610a8b578163c0f6e76314610a4b578163c370c86d146106f3578163c45a0155146106ca578163c5f3fb751461059c578163c87b56dd14610549578163cc68d898146102cc578163e985e9c51461027e578163f2fde38b146101ef575063f5c573821461019b57600080fd5b346101eb5760203660031901126101eb576101e7916101d49082906001600160a01b036101c661195b565b168152600b60205220611b5c565b9051918291602083526020830190611936565b0390f35b5080fd5b90503461027a57602036600319011261027a5761020a61195b565b90610213612493565b6001600160a01b03918216928315610264575050600754826001600160601b0360a01b821617600755167f8be0079c531659141344cd1fd0a4f28419497f9722a3daafe3b4186f6b6457e08380a380f35b51631e4fbdf760e01b8152908101849052602490fd5b8280fd5b5050346101eb57806003193601126101eb5760ff8160209361029e61195b565b6102a6611976565b6001600160a01b0391821683526005875283832091168252855220549151911615158152f35b90503461027a576102dc36611adf565b91909360018060a01b0380926102f782600f54163314611ecd565b1694610304861515611c85565b858752602093600b855261031a83892054611b22565b610518576103329161032d913691611a6a565b6124e6565b9361033f85511515612241565b61039382519361037060ff8851968881818c019961035e81838d611913565b8101600d81520301902054161561227a565b83518681895161038181838b611913565b8101600c8152030190205416156122b6565b858752600b8452818720908551906001600160401b03821161050557506103ba8254611b22565b601f81116104cc575b5084601f821160011461046257916103fc8261042f9897959361040e97958c91610457575b508160011b916000199060031b1c19161790565b90555b51809381928651928391611913565b8101600c815203019020836001600160601b0360a01b825416179055611d0e565b907f56a1a2764a85c689329fbc04f299b64690a26b1dc5ac82e903cf8ad805cd53968380a380f35b9050880151386103e8565b82895285892090601f1983168a5b8181106104b557509261040e9694926001928261042f9b9a98961061049c575b5050811b0190556103ff565b89015160001960f88460031b161c191690553880610490565b91928860018192868d015181550194019201610470565b6104f590838a52868a20601f840160051c8101918885106104fb575b601f0160051c0190611cf7565b386103c3565b90915081906104e8565b634e487b7160e01b895260419052602488fd5b825162461bcd60e51b8152808701869052600b60248201526a4e616d652065786973747360a81b6044820152606490fd5b8383346101eb5760203660031901126101eb576101e7923561056a816122ef565b508252600660205261057d818320611b5c565b918151610589816119fd565b5251918291602083526020830190611936565b90503461027a576105ac36611adf565b9060018060a01b038093169283875260096020528587205494851561069857602087518092638da5cb5b60e01b825281885afa90811561068e578261064b937fbb9d42db22311d244ed8685e46f0aea9d14428da2b4034de70d8b01d23e2498e9798999361062d938c9161065f575b50163314908115610651575b50611c20565b61064161063b368686611a6a565b8861232a565b5192839283611c5d565b0390a380f35b905060075416331438610627565b610681915060203d602011610687575b6106798183611a2e565b810190611c01565b3861061b565b503d61066f565b87513d8a823e3d90fd5b606490602088519162461bcd60e51b8352820152600c60248201526b155b9c9959da5cdd195c995960a21b6044820152fd5b5050346101eb57816003193601126101eb57600f5490516001600160a01b039091168152602090f35b9190503461027a5761070436611adf565b6001600160a01b0392831694909161071d861515611c85565b8451638da5cb5b60e01b815260209390848185818b5afa908115610a41579186610787949261032d948c91610a24575b501633148015610a17575b61076190611c20565b888a52600e865260ff888b205416158015610a0a575b61078090611cbd565b3691611a6a565b9361079485511515612241565b8051916107b060ff8751948681818b019761035e81838b611913565b868852600b84526107c2828920611b5c565b94855180610971575b506107e190835186818a5161038181838b611913565b868852600b8452818820908651906001600160401b03821161095e57506108088254611b22565b601f8111610930575b5084601f82116001146108c857816108579695949392610845928c916108bd57508160011b916000199060031b1c19161790565b90555b51809381928751928391611913565b600c9082019081520301902080546001600160a01b031916841790558051610883575061042f90611d0e565b61088f61089591611d0e565b91611d0e565b917f46fc935c3fa417ca2b48f402b8c148aca59d0380ae964496652bd20b0a322b128480a480f35b9050890151386103e8565b828a52858a2090601f1983168b5b8a828210610919575050918391610857989796959460019410610900575b5050811b019055610848565b8a015160001960f88460031b161c1916905538806108f4565b600184958b939584930151815501940192016108d6565b61095890838b52868b20601f840160051c8101918885106104fb57601f0160051c0190611cf7565b38610811565b634e487b7160e01b8a5260419052602489fd5b888285518881818c0195610986818389611913565b8101600c8152030190205416036109d057906109b0866107e1938651809381928c51928391611913565b8101600c8152030190206001600160601b0360a01b8154169055906107cb565b835162461bcd60e51b81528084018790526014602482015273496e636f6e73697374656e74206d617070696e6760601b6044820152606490fd5b5060075487163314610777565b5060075487163314610758565b610a3b9150883d8a11610687576106798183611a2e565b3861074d565b87513d8b823e3d90fd5b5050346101eb5760209060ff610a7683610a6436611aa1565b81855193828580945193849201611913565b8101600d815203019020541690519015158152f35b8390346101eb5760803660031901126101eb57610aa661195b565b610aae611976565b604435906064356001600160401b038111610af95736602382011215610af957610af694816024610ae493369301359101611a6a565b92610af0838383611d2e565b33612572565b80f35b8580fd5b8383346101eb5760803660031901126101eb57610b1861195b565b91610b21611976565b936001600160401b03604435818111610de057610b41903690840161198c565b969092606435838111610af957610b5e610b7e913690840161198c565b99909560018060a01b0394610b7886600f54163314611ecd565b8a611f07565b9688610b8f575b6020888851908152f35b8290610ba082600f54163314611ecd565b1693610bad851515611c85565b848652602098600b8a52610bc388882054611b22565b610daf57610bd69161032d913691611a6a565b92610be384511515612241565b610c13875193610c0260ff8751968d81818b019961035e81838d611913565b88518b81885161038181838b611913565b848652600b8952868620918451918211610d9c5750610c328254611b22565b601f8111610d6e575b5088601f8211600114610ce25798610cc9937f56a1a2764a85c689329fbc04f299b64690a26b1dc5ac82e903cf8ad805cd53969593610c9584610ca89560209e8c91610cd757508160011b916000199060031b1c19161790565b90555b8851809381928651928391611913565b8101600c815203019020846001600160601b0360a01b825416179055611d0e565b9280a3838080808080610b85565b90508701518f6103e8565b82875289872090601f198316885b818110610d5757509360018460209d94610cc99894610ca8977f56a1a2764a85c689329fbc04f299b64690a26b1dc5ac82e903cf8ad805cd53969b9910610d3e575b5050811b019055610c98565b88015160001960f88460031b161c191690558e80610d32565b91928c60018192868b015181550194019201610cf0565b610d96908388528a8820601f840160051c8101918c85106104fb57601f0160051c0190611cf7565b89610c3b565b634e487b7160e01b875260419052602486fd5b875162461bcd60e51b81528084018b9052600b60248201526a4e616d652065786973747360a81b6044820152606490fd5b8380fd5b9190503461027a578060031936011261027a57610dff61195b565b90610e086119ee565b6001600160a01b03909216928315610e7357503384526005602052808420838552602052610e44828286209060ff801983541691151516179055565b5190151581527f17307eab39ab6107e8899845ad3d59bd9653f200f220920489ca2b5937696c3160203392a380f35b836024925191630b61174360e31b8352820152fd5b5050346101eb5760203660031901126101eb5760209181906001600160a01b03610eb061195b565b1681526009845220549051908152f35b828434610fab5780600319360112610fab57815191828260019360015494610ee786611b22565b9182855260209687600182169182600014610f84575050600114610f28575b5050506101e79291610f19910385611a2e565b51928284938452830190611936565b9190869350600183527fb10e2d527612073b26eecdfd717e6a320cf44b4afac2b0732d9fcbe2b7fa0cf65b828410610f6c5750505082010181610f196101e7610f06565b8054848a018601528895508794909301928101610f53565b60ff19168782015293151560051b86019093019350849250610f1991506101e79050610f06565b80fd5b5050346101eb57816003193601126101eb5760075490516001600160a01b039091168152602090f35b90503461027a578160031936011261027a5780356001600160401b038111610de05761032d61107c6110456110327f3991f588a604787469eff195387d64a0412af48ef404233dadc122594114f38f9560209536910161198c565b939061103c6119ee565b94610780612493565b6110778387518681855161105c8183858a01611913565b8101600d8152030190209060ff801983541691151516179055565b611d0e565b93519015158152a280f35b8334610fab5780600319360112610fab576110a0612493565b600780546001600160a01b0319811690915581906001600160a01b03167f8be0079c531659141344cd1fd0a4f28419497f9722a3daafe3b4186f6b6457e08280a380f35b828434610fab576020366003190112610fab576001600160a01b0361110761195b565b169283156111245750806020938392526003845220549051908152f35b91516322718ad960e21b815291820152602490fd5b828434610fab576020366003190112610fab5750611159602092356122ef565b90516001600160a01b039091168152f35b5050346101eb57816003193601126101eb576020906008549051908152f35b5050346101eb5760209061119c36611aa1565b826111af83519283815193849201611913565b600c908201908152819003830190205490516001600160a01b039091168152f35b5050346101eb57806003193601126101eb577f376757f59845483b1d399738a47bf921921d17e0ee6d1c726c1cc77ee4e1d168602061120d61195b565b6112156119ee565b9061121e612493565b6001600160a01b031693611233851515611c85565b848652600e8352611252828288209060ff801983541691151516179055565b519015158152a280f35b90503461027a57602036600319011261027a5761127761195b565b61127f612493565b6001600160a01b03169182156112ca575050600f80546001600160a01b031916821790557f7ead54cd1fd7e5ddea18605dec62ecb6a27d1f68bee1054cbf93b7abb4e1dc6b8280a280f35b906020606492519162461bcd60e51b8352820152600c60248201526b5a65726f20666163746f727960a01b6044820152fd5b5050346101eb57610af690611310366119b9565b9192519261131d846119fd565b858452610af0838383611d2e565b90503461027a57602036600319011261027a57358252600a6020908152918190205490516001600160a01b039091168152f35b90503461027a57606036600319011261027a5761137961195b565b90611382611976565b93604435906001600160401b038211610fab5750916113aa602095926113b29436910161198c565b929091611f07565b9051908152f35b8334610fab57610af66113cb366119b9565b91611d2e565b839150346101eb576020908160031936011261027a576001600160a01b0391826113f961195b565b1692611406841515611c85565b8551638da5cb5b60e01b815282818581885afa9081156115965791809161145f938891611579575b50163314801561156c575b61144290611c20565b848652600e835260ff87872054161590811561155e575b50611cbd565b828452600b8152611471858520611b5c565b9182511561153357508394836114cf949552600b8252858181206114958154611b22565b806114f7575b50505051908183516114b08183858801611913565b8101600c8152030190206001600160601b0360a01b8154169055611d0e565b907f6d33aec13c4fc5bf50a810431c0dffa2d5b9f77a8786d9c4305b5265985cbea68380a380f35b82601f821160011461150f575050555b85878061149b565b909180825261152c601f878420940160051c840160018501611cf7565b5555611507565b60649186519162461bcd60e51b835282015260076024820152664e6f206e616d6560c81b6044820152fd5b905060075416331487611459565b5060075481163314611439565b6115909150853d8711610687576106798183611a2e565b8961142e565b87513d88823e3d90fd5b5050346101eb5760203660031901126101eb5760209160ff9082906001600160a01b036115cb61195b565b168152600e855220541690519015158152f35b90503461027a578160031936011261027a578035906024356001600160401b0381116116c057611611903690830161198c565b838652600a602052848620546001600160a01b0390811693919291841561169257602087518092638da5cb5b60e01b825281885afa90811561068e578261064b937fbb9d42db22311d244ed8685e46f0aea9d14428da2b4034de70d8b01d23e2498e9798999361062d938c9161065f57501633149081156106515750611c20565b606490602088519162461bcd60e51b835282015260086024820152672737903a37b5b2b760c11b6044820152fd5b8480fd5b9190503461027a578060031936011261027a576116df61195b565b916024356116ec816122ef565b3315158061178e575b80611765575b61174f576001600160a01b039485169482918691167f8c5be1e5ebec7d5bd14f71427d1e84f3dd0314c0f7b2291e5b200ac8c7c3b9258880a48452602052822080546001600160a01b031916909117905580f35b835163a9fbf51f60e01b81523381850152602490fd5b506001600160a01b03811686526005602090815284872033885290528386205460ff16156116fb565b506001600160a01b0381163314156116f5565b90503461027a57602036600319011261027a579182602093356117c3816122ef565b50825283528190205490516001600160a01b039091168152f35b828434610fab5780600319360112610fab57815191828283546117ff81611b22565b9081845260209560019187600182169182600014610f84575050600114611833575050506101e79291610f19910385611a2e565b91908693508280527f290decd9548b62a8d60345a988386fc84ba6bc95484008f6362f93160ef3e5635b8284106118765750505082010181610f196101e7610f06565b8054848a01860152889550879490930192810161185d565b84913461027a57602036600319011261027a573563ffffffff60e01b811680910361027a5760209250632483248360e11b81149081156118d0575b5015158152f35b6380ac58cd60e01b811491508115611902575b81156118f1575b50836118c9565b6301ffc9a760e01b149050836118ea565b635b5e139f60e01b811491506118e3565b60005b8381106119265750506000910152565b8181015183820152602001611916565b9060209161194f81518092818552858086019101611913565b601f01601f1916010190565b600435906001600160a01b038216820361197157565b600080fd5b602435906001600160a01b038216820361197157565b9181601f84011215611971578235916001600160401b038311611971576020838186019501011161197157565b6060906003190112611971576001600160a01b0390600435828116810361197157916024359081168103611971579060443590565b60243590811515820361197157565b602081019081106001600160401b03821117611a1857604052565b634e487b7160e01b600052604160045260246000fd5b90601f801991011681019081106001600160401b03821117611a1857604052565b6001600160401b038111611a1857601f01601f191660200190565b929192611a7682611a4f565b91611a846040519384611a2e565b829481845281830111611971578281602093846000960137010152565b602060031982011261197157600435906001600160401b038211611971578060238301121561197157816024611adc93600401359101611a6a565b90565b906040600319830112611971576004356001600160a01b03811681036119715791602435906001600160401b03821161197157611b1e9160040161198c565b9091565b90600182811c92168015611b52575b6020831014611b3c57565b634e487b7160e01b600052602260045260246000fd5b91607f1691611b31565b90604051918260008254611b6f81611b22565b90818452602094600191600181169081600014611bdf5750600114611ba0575b505050611b9e92500383611a2e565b565b600090815285812095935091905b818310611bc7575050611b9e9350820101388080611b8f565b85548884018501529485019487945091830191611bae565b92505050611b9e94925060ff191682840152151560051b820101388080611b8f565b9081602091031261197157516001600160a01b03811681036119715790565b15611c2757565b60405162461bcd60e51b815260206004820152600e60248201526d139bdd08185d5d1a1bdc9a5e995960921b6044820152606490fd5b90918060409360208452816020850152848401376000828201840152601f01601f1916010190565b15611c8c57565b60405162461bcd60e51b81526020600482015260096024820152682130b2103a37b5b2b760b91b6044820152606490fd5b15611cc457565b60405162461bcd60e51b815260206004820152600b60248201526a13985b59481b1bd8dad95960aa1b6044820152606490fd5b818110611d02575050565b60008155600101611cf7565b611d2690602060405192828480945193849201611913565b810103902090565b6001600160a01b039182169290918315611eb457600092828452826020956002875260409684888820541696879133151580611e1e575b509060027fddf252ad1be2c89b69c2b068fc378daa952ba7f163c4a11628f55a4df523b3ef9284611deb575b858352600381528b8320805460010190558683525289812080546001600160a01b0319168517905580a41692838303611dca5750505050565b6064945051926364283d7b60e01b8452600484015260248301526044820152fd5b600087815260046020526040902080546001600160a01b0319169055848352600381528b83208054600019019055611d91565b91939450915080611e73575b15611e3a57859291879138611d65565b878688611e57576024915190637e27328960e01b82526004820152fd5b604491519063177e802f60e01b82523360048301526024820152fd5b503387148015611e98575b80611e2a5750858252600481523385898420541614611e2a565b5086825260058152878220338352815260ff8883205416611e7e565b604051633250574960e11b815260006004820152602490fd5b15611ed457565b60405162461bcd60e51b815260206004820152600b60248201526a4e6f7420666163746f727960a81b6044820152606490fd5b91909260018060a01b038093611f2282600f54163314611ecd565b1691611f2f831515611c85565b838516938415612210576000848152602060098152604092838320546121d75760085460001999908a81146121c357600101998a600855888552600984528a868620558a8552600a84528a8a8787206001600160601b0360a01b908c82825416179055885195611f9e876119fd565b888752838952600288528989205416908115159485612191575b50828952600388528989206001815401905583895260028852828a8a20918254161790557fddf252ad1be2c89b69c2b068fc378daa952ba7f163c4a11628f55a4df523b3ef8880a4612179573b61204a575b505050917f496201fef183813ebd6e14630fe39b73f00b8ffd4b975f054c2916b4add9f7cb9161204487959461064161063b368686611a6a565b0390a490565b878284869a9b979499969c98959c519283809281612090630a85bd0160e11b988983523360048401528360248401528d6044840152608060648401526084830190611936565b03925af18b9181612135575b506120fb578a8a8a8a3d156120f2573d6120b581611a4f565b906120c284519283611a2e565b81528094823d92013e5b835193846120ec578251633250574960e11b815260048101859052602490fd5b84925001fd5b606093506120cc565b919498979396509194985063ffffffff60e01b160361211e57816120448761200a565b51633250574960e11b815260048101859052602490fd5b9091508881813d8311612172575b61214d8183611a2e565b8101031261216e57516001600160e01b03198116810361216e57903861209c565b8b80fd5b503d612143565b84516339e3563760e11b815260048101859052602490fd5b600085815260046020526040902080546001600160a01b0319169055828a52600389528a8a2090815401905538611fb8565b634e487b7160e01b85526011600452602485fd5b835162461bcd60e51b8152600481018390526012602482015271105b1c9958591e481c9959da5cdd195c995960721b6044820152606490fd5b60405162461bcd60e51b81526020600482015260096024820152682130b21037bbb732b960b91b6044820152606490fd5b1561224857565b60405162461bcd60e51b815260206004820152600a602482015269456d707479206e616d6560b01b6044820152606490fd5b1561228157565b60405162461bcd60e51b815260206004820152600d60248201526c5265736572766564206e616d6560981b6044820152606490fd5b156122bd57565b60405162461bcd60e51b815260206004820152600a6024820152692730b6b2903a30b5b2b760b11b6044820152606490fd5b6000818152600260205260409020546001600160a01b0316908115612312575090565b60249060405190637e27328960e01b82526004820152fd5b9190916000908082526020916006835260408120908551956001600160401b03871161247f5761235a8354611b22565b601f8111612451575b508491601f88116001146123cd57966123b69281927ff8e1a15aba9398e019f0b49df1a4fde98ee17ae345cb5f6b5e2c27f5033e8ce79899926123c2575b50508160011b916000199060031b1c19161790565b90555b604051908152a1565b0151905038806123a1565b9190601f198816848452868420935b81811061243a57509160019391897ff8e1a15aba9398e019f0b49df1a4fde98ee17ae345cb5f6b5e2c27f5033e8ce7999a9410612421575b505050811b0190556123b9565b015160001960f88460031b161c19169055388080612414565b9293876001819287860151815501950193016123dc565b61247990848452868420601f8a0160051c810191888b106104fb57601f0160051c0190611cf7565b38612363565b634e487b7160e01b82526041600452602482fd5b6007546001600160a01b031633036124a757565b60405163118cdaa760e01b8152336004820152602490fd5b9081518110156124d0570160200190565b634e487b7160e01b600052603260045260246000fd5b9060009160005b815181101561256d5761250081836124bf565b5160f890811c604181101580612562575b612520575b50506001016124ed565b60200160ff811161254e57600192911b6001600160f81b031916851a61254682856124bf565b539038612516565b634e487b7160e01b86526011600452602486fd5b50605a811115612511565b509150565b90939192833b612584575b5050505050565b604051630a85bd0160e11b8082526001600160a01b0393841660048301529583166024820152604481019190915260806064820152949216926020929185906125d1906084830190611936565b039483816000978189895af186918161267c575b50612646575050503d60001461263d573d6125ff81611a4f565b9061260d6040519283611a2e565b81528093823d92013e5b8251928361263857604051633250574960e11b815260048101849052602490fd5b019050fd5b60609250612617565b919450915063ffffffff60e01b16036126645750388080808061257d565b60249060405190633250574960e11b82526004820152fd5b9091508481813d83116126b9575b6126948183611a2e565b810103126126b557516001600160e01b0319811681036126b55790386125e5565b8680fd5b503d61268a56fea2646970667358221220dd563458f09448d0b667a33498c38972846d4b2580bdf64a1563efa21bfe5ec664736f6c63430008180033",
  "linkReferences": {},
  "deployedLinkReferences": {}
}