{
  "_format": "hh-sol-artifact-1",
  "contractName": "MoonToken",
  "sourceName": "contracts/MoonToken.sol",
  "abi": [
    {
      "inputs": [],
      "stateMutability": "nonpayable",
      "type": "constructor"
    },
    {
      "inputs": [
        {
          "internalType": "address",
          "name": "spender",
          "type": "address"
        },
        {
          "internalType": "uint256",
          "name": "allowance",
          "type": "uint256"
        },
        {
          "internalType": "uint256",
          "name": "needed",
          "type": "uint256"
        }
      ],
      "name": "ERC20InsufficientAllowance",
      "type": "error"
    },
    {
      "inputs": [
        {
          "internalType": "address",
          "name": "sender",
          "type": "address"
        },
        {
          "internalType": "uint256",
          "name": "balance",
          "type": "uint256"
        },
        {
          "internalType": "uint256",
          "name": "needed",
          "type": "uint256"
        }
      ],
      "name": "ERC20InsufficientBalance",
      "type": "error"
    },
    {
      "inputs": [
        {
          "internalType": "address",
          "name": "approver",
          "type": "address"
        }
      ],
      "name": "ERC20InvalidApprover",
      "type": "error"
    },
    {
      "inputs": [
        {
          "internalType": "address",
          "name": "receiver",
          "type": "address"
        }
      ],
      "name": "ERC20InvalidReceiver",
      "type": "error"
    },
    {
      "inputs": [
        {
          "internalType": "address",
          "name": "sender",
          "type": "address"
        }
      ],
      "name": "ERC20InvalidSender",
      "type": "error"
    },
    {
      "inputs": [
        {
          "internalType": "address",
          "name": "spender",
          "type": "address"
        }
      ],
      "name": "ERC20InvalidSpender",
      "type": "error"
    },
    {
      "inputs": [],
      "name": "EnforcedPause",
      "type": "error"
    },
    {
      "inputs": [],
      "name": "ExpectedPause",
      "type": "error"
    },
    {
      "inputs": [],
      "name": "InvalidInitialization",
      "type": "error"
    },
    {
      "inputs": [],
      "name": "NotInitializing",
      "type": "error"
    },
    {
      "inputs": [
        {
          "internalType": "address",
          "name": "owner",
          "type": "address"
        }
      ],
      "name": "OwnableInvalidOwner",
      "type": "error"
    },
    {
      "inputs": [
        {
          "internalType": "address",
          "name": "account",
          "type": "address"
        }
      ],
      "name": "OwnableUnauthorizedAccount",
      "type": "error"
    },
    {
      "anonymous": false,
      "inputs": [
        {
          "indexed": true,
          "internalType": "address",
          "name": "account",
          "type": "address"
        },
        {
          "indexed": false,
          "internalType": "bool",
          "name": "allowed",
          "type": "bool"
        }
      ],
      "name": "AllowedWhileRestrictedSet",
      "type": "event"
    },
    {
      "anonymous": false,
      "inputs": [
        {
          "indexed": true,
          "internalType": "address",
          "name": "owner",
          "type": "address"
        },
        {
          "indexed": true,
          "internalType": "address",
          "name": "spender",
          "type": "address"
        },
        {
          "indexed": false,
          "internalType": "uint256",
          "name": "value",
          "type": "uint256"
        }
      ],
      "name": "Approval",
      "type": "event"
    },
    {
      "anonymous": false,
      "inputs": [
        {
          "indexed": false,
          "internalType": "uint16",
          "name": "newFeeBps",
          "type": "uint16"
        }
      ],
      "name": "FeeBpsChanged",
      "type": "event"
    },
    {
      "anonymous": false,
      "inputs": [
        {
          "indexed": false,
          "internalType": "address",
          "name": "account",
          "type": "address"
        },
        {
          "indexed": false,
          "internalType": "bool",
          "name": "isExempt",
          "type": "bool"
        }
      ],
      "name": "FeeExemptionChanged",
      "type": "event"
    },
    {
      "anonymous": false,
      "inputs": [
        {
          "indexed": false,
          "internalType": "address",
          "name": "newFeeRecipient",
          "type": "address"
        }
      ],
      "name": "FeeRecipientChanged",
      "type": "event"
    },
    {
      "anonymous": false,
      "inputs": [
        {
          "indexed": false,
          "internalType": "uint64",
          "name": "version",
          "type": "uint64"
        }
      ],
      "name": "Initialized",
      "type": "event"
    },
    {
      "anonymous": false,
      "inputs": [
        {
          "indexed": true,
          "internalType": "address",
          "name": "previousOwner",
          "type": "address"
        },
        {
          "indexed": true,
          "internalType": "address",
          "name": "newOwner",
          "type": "address"
        }
      ],
      "name": "OwnershipTransferred",
      "type": "event"
    },
    {
      "anonymous": false,
      "inputs": [
        {
          "indexed": false,
          "internalType": "address",
          "name": "account",
          "type": "address"
        }
      ],
      "name": "Paused",
      "type": "event"
    },
    {
      "anonymous": false,
      "inputs": [
        {
          "indexed": true,
          "internalType": "address",
          "name": "from",
          "type": "address"
        },
        {
          "indexed": true,
          "internalType": "address",
          "name": "to",
          "type": "address"
        },
        {
          "indexed": false,
          "internalType": "uint256",
          "name": "value",
          "type": "uint256"
        }
      ],
      "name": "Transfer",
      "type": "event"
    },
    {
      "anonymous": false,
      "inputs": [
        {
          "indexed": false,
          "internalType": "bool",
          "name": "enabled",
          "type": "bool"
        }
      ],
      "name": "TransfersRestrictedSet",
      "type": "event"
    },
    {
      "anonymous": false,
      "inputs": [
        {
          "indexed": false,
          "internalType": "address",
          "name": "account",
          "type": "address"
        }
      ],
      "name": "Unpaused",
      "type": "event"
    },
    {
      "inputs": [],
      "name": "BURN_ADDRESS",
      "outputs": [
        {
          "internalType": "address",
          "name": "",
          "type": "address"
        }
      ],
      "stateMutability": "view",
      "type": "function"
    },
    {
      "inputs": [
        {
          "internalType": "address",
          "name": "owner",
          "type": "address"
        },
        {
          "internalType": "address",
          "name": "spender",
          "type": "address"
        }
      ],
      "name": "allowance",
      "outputs": [
        {
          "internalType": "uint256",
          "name": "",
          "type": "uint256"
        }
      ],
      "stateMutability": "view",
      "type": "function"
    },
    {
      "inputs": [
        {
          "internalType": "address",
          "name": "",
          "type": "address"
        }
      ],
      "name": "allowedWhileRestricted",
      "outputs": [
        {
          "internalType": "bool",
          "name": "",
          "type": "bool"
        }
      ],
      "stateMutability": "view",
      "type": "function"
    },
    {
      "inputs": [
        {
          "internalType": "address",
          "name": "spender",
          "type": "address"
        },
        {
          "internalType": "uint256",
          "name": "value",
          "type": "uint256"
        }
      ],
      "name": "approve",
      "outputs": [
        {
          "internalType": "bool",
          "name": "",
          "type": "bool"
        }
      ],
      "stateMutability": "nonpayable",
      "type": "function"
    },
    {
      "inputs": [
        {
          "internalType": "address",
          "name": "account",
          "type": "address"
        }
      ],
      "name": "balanceOf",
      "outputs": [
        {
          "internalType": "uint256",
          "name": "",
          "type": "uint256"
        }
      ],
      "stateMutability": "view",
      "type": "function"
    },
    {
      "inputs": [],
      "name": "bondingCurve",
      "outputs": [
        {
          "internalType": "address",
          "name": "",
          "type": "address"
        }
      ],
      "stateMutability": "view",
      "type": "function"
    },
    {
      "inputs": [
        {
          "internalType": "uint256",
          "name": "value",
          "type": "uint256"
        }
      ],
      "name": "burn",
      "outputs": [],
      "stateMutability": "nonpayable",
      "type": "function"
    },
    {
      "inputs": [
        {
          "internalType": "address",
          "name": "account",
          "type": "address"
        },
        {
          "internalType": "uint256",
          "name": "value",
          "type": "uint256"
        }
      ],
      "name": "burnFrom",
      "outputs": [],
      "stateMutability": "nonpayable",
      "type": "function"
    },
    {
      "inputs": [],
      "name": "decimals",
      "outputs": [
        {
          "internalType": "uint8",
          "name": "",
          "type": "uint8"
        }
      ],
      "stateMutability": "view",
      "type": "function"
    },
    {
      "inputs": [],
      "name": "factory",
      "outputs": [
        {
          "internalType": "address",
          "name": "",
          "type": "address"
        }
      ],
      "stateMutability": "view",
      "type": "function"
    },
    {
      "inputs": [],
      "name": "feeBps",
      "outputs": [
        {
          "internalType": "uint16",
          "name": "",
          "type": "uint16"
        }
      ],
      "stateMutability": "view",
      "type": "function"
    },
    {
      "inputs": [],
      "name": "feeRecipient",
      "outputs": [
        {
          "internalType": "address",
          "name": "",
          "type": "address"
        }
      ],
      "stateMutability": "view",
      "type": "function"
    },
    {
      "inputs": [
        {
          "internalType": "string",
          "name": "name",
          "type": "string"
        },
        {
          "internalType": "string",
          "name": "symbol",
          "type": "string"
        },
        {
          "internalType": "address",
          "name": "owner",
          "type": "address"
        },
        {
          "internalType": "address",
          "name": "_factory",
          "type": "address"
        },
        {
          "internalType": "uint16",
          "name": "_feeBps",
          "type": "uint16"
        }
      ],
      "name": "initialize",
      "outputs": [],
      "stateMutability": "nonpayable",
      "type": "function"
    },
    {
      "inputs": [
        {
          "internalType": "address",
          "name": "",
          "type": "address"
        }
      ],
      "name": "isFeeExempt",
      "outputs": [
        {
          "internalType": "bool",
          "name": "",
          "type": "bool"
        }
      ],
      "stateMutability": "view",
      "type": "function"
    },
    {
      "inputs": [
        {
          "internalType": "address",
          "name": "to",
          "type": "address"
        },
        {
          "internalType": "uint256",
          "name": "amount",
          "type": "uint256"
        }
      ],
      "name": "mint",
      "outputs": [],
      "stateMutability": "nonpayable",
      "type": "function"
    },
    {
      "inputs": [],
      "name": "name",
      "outputs": [
        {
          "internalType": "string",
          "name": "",
          "type": "string"
        }
      ],
      "stateMutability": "view",
      "type": "function"
    },
    {
      "inputs": [],
      "name": "owner",
      "outputs": [
        {
          "internalType": "address",
          "name": "",
          "type": "address"
        }
      ],
      "stateMutability": "view",
      "type": "function"
    },
    {
      "inputs": [],
      "name": "pause",
      "outputs": [],
      "stateMutability": "nonpayable",
      "type": "function"
    },
    {
      "inputs": [],
      "name": "paused",
      "outputs": [
        {
          "internalType": "bool",
          "name": "",
          "type": "bool"
        }
      ],
      "stateMutability": "view",
      "type": "function"
    },
    {
      "inputs": [],
      "name": "renounceOwnership",
      "outputs": [],
      "stateMutability": "nonpayable",
      "type": "function"
    },
    {
      "inputs": [
        {
          "internalType": "address",
          "name": "account",
          "type": "address"
        },
        {
          "internalType": "bool",
          "name": "allowed",
          "type": "bool"
        }
      ],
      "name": "setAllowedWhileRestricted",
      "outputs": [],
      "stateMutability": "nonpayable",
      "type": "function"
    },
    {
      "inputs": [
        {
          "internalType": "address",
          "name": "_bondingCurve",
          "type": "address"
        }
      ],
      "name": "setBondingCurve",
      "outputs": [],
      "stateMutability": "nonpayable",
      "type": "function"
    },
    {
      "inputs": [
        {
          "internalType": "uint16",
          "name": "_newFeeBps",
          "type": "uint16"
        }
      ],
      "name": "setFeeBps",
      "outputs": [],
      "stateMutability": "nonpayable",
      "type": "function"
    },
    {
      "inputs": [
        {
          "internalType": "address",
          "name": "_account",
          "type": "address"
        },
        {
          "internalType": "bool",
          "name": "_isExempt",
          "type": "bool"
        }
      ],
      "name": "setFeeExemption",
      "outputs": [],
      "stateMutability": "nonpayable",
      "type": "function"
    },
    {
      "inputs": [
        {
          "internalType": "address",
          "name": "_newFeeRecipient",
          "type": "address"
        }
      ],
      "name": "setFeeRecipient",
      "outputs": [],
      "stateMutability": "nonpayable",
      "type": "function"
    },
    {
      "inputs": [
        {
          "internalType": "bool",
          "name": "enabled",
          "type": "bool"
        }
      ],
      "name": "setTransfersRestricted",
      "outputs": [],
      "stateMutability": "nonpayable",
      "type": "function"
    },
    {
      "inputs": [],
      "name": "symbol",
      "outputs": [
        {
          "internalType": "string",
          "name": "",
          "type": "string"
        }
      ],
      "stateMutability": "view",
      "type": "function"
    },
    {
      "inputs": [],
      "name": "totalSupply",
      "outputs": [
        {
          "internalType": "uint256",
          "name": "",
          "type": "uint256"
        }
      ],
      "stateMutability": "view",
      "type": "function"
    },
    {
      "inputs": [
        {
          "internalType": "address",
          "name": "to",
          "type": "address"
        },
        {
          "internalType": "uint256",
          "name": "value",
          "type": "uint256"
        }
      ],
      "name": "transfer",
      "outputs": [
        {
          "internalType": "bool",
          "name": "",
          "type": "bool"
        }
      ],
      "stateMutability": "nonpayable",
      "type": "function"
    },
    {
      "inputs": [
        {
          "internalType": "address",
          "name": "from",
          "type": "address"
        },
        {
          "internalType": "address",
          "name": "to",
          "type": "address"
        },
        {
          "internalType": "uint256",
          "name": "value",
          "type": "uint256"
        }
      ],
      "name": "transferFrom",
      "outputs": [
        {
          "internalType": "bool",
          "name": "",
          "type": "bool"
        }
      ],
      "stateMutability": "nonpayable",
      "type": "function"
    },
    {
      "inputs": [
        {
          "internalType": "address",
          "name": "newOwner",
          "type": "address"
        }
      ],
      "name": "transferOwnership",
      "outputs": [],
      "stateMutability": "nonpayable",
      "type": "function"
    },
    {
      "inputs": [],
      "name": "transfersRestricted",
      "outputs": [
        {
          "internalType": "bool",
          "name": "",
          "type": "bool"
        }
      ],
      "stateMutability": "view",
      "type": "function"
    },
    {
      "inputs": [],
      "name": "unpause",
      "outputs": [],
      "stateMutability": "nonpayable",
      "type": "function"
    }
  ],
  "bytecode": "0x608080604052346100b8577ff0c57e16840df040f15088dc2f81fe391c3923bec73e23a9662efc9c229c6a009081549060ff8260401c166100a957506001600160401b036002600160401b031982821601610064575b60405161226090816100be8239f35b6001600160401b031990911681179091556040519081527fc7f505b2f371ae2175ee4913f4499e1f2633a7b5936321eed1cdaeb6115181d290602090a1388080610055565b63f92ee8a960e01b8152600490fd5b600080fdfe608080604052600436101561001357600080fd5b60003560e01c908163023b1fc91461146d5750806306fdde03146113c9578063095ea7b31461131657806318160ddd146112eb57806323b872dd146112b357806324a9d85314611291578063313ce567146112755780633f4218e0146112365780633f4ba83a1461117d57806340c10f19146110bf57806342966c68146110a257806343ff1fb814610ff35780634690484014610fc65780635a5c1823146109a65780635c975abb1461097657806370a082311461092f578063715018a6146108c5578063751fd179146107e757806379cc6790146107b75780638423df79146107945780638456cb59146106c15780638da5cb5b1461068b57806395d89b41146105a9578063a9059cbb14610578578063bb4628d11461048f578063c22dc7e7146103ea578063c45a0155146103c1578063cee7980c14610382578063dd62ed3e14610339578063e74b981b14610200578063eff1d50e146101d7578063f2fde38b146101ac5763fccc28131461018a57600080fd5b346101a75760003660031901126101a757602060405161dead8152f35b600080fd5b346101a75760203660031901126101a7576101d56101c86115fb565b6101d0611909565b611782565b005b346101a75760003660031901126101a7576005546040516001600160a01b039091168152602090f35b346101a7576020806003193601126101a75761021a6115fb565b9060018060a01b03806004541660405190638da5cb5b60e01b82528382600481845afa91821561032d57610264928491600091610300575b501633149081156102f6575b50611707565b821680156102bf576000805462010000600160b01b03191660109490941b62010000600160b01b0316939093179092556040519182527f167cccccc6e9b2892a740ec13fc1e51d3de8ea384f25bd87fee7412d588637e291a1005b60405162461bcd60e51b815260048101839052600f60248201526e496e76616c6964206164647265737360881b6044820152606490fd5b905033148561025e565b6103209150863d8811610326575b6103188183611660565b8101906116e8565b87610252565b503d61030e565b6040513d6000823e3d90fd5b346101a75760403660031901126101a7576103526115fb565b61036361035d611611565b91611627565b9060018060a01b03166000526020526020604060002054604051908152f35b346101a75760203660031901126101a7576001600160a01b036103a36115fb565b166000526003602052602060ff604060002054166040519015158152f35b346101a75760003660031901126101a7576004546040516001600160a01b039091168152602090f35b346101a75760203660031901126101a7576004358015158091036101a75760048054604051638da5cb5b60e01b81526001600160a01b039391841692602090829081865afa92831561032d577f58d55705c6f0421e19500567e258f86b7da5cd924a6a9d7d759f82ff2ad413b7946020946104779360009161030057501633149081156102f65750611707565b60ff196002541660ff821617600255604051908152a1005b346101a75760403660031901126101a7576104a86115fb565b6104b06116d9565b60048054604051638da5cb5b60e01b815292936001600160a01b039182169392602090849081875afa801561032d577f984e1b4f4af5d0948a5ddaad4cfd8980aeb249aac7f9d2e574dacffd7c51a44c94836105229260209660009161055b575b501633149081156105515750611707565b169283600052600382526105468160406000209060ff801983541691151516179055565b6040519015158152a2005b905033148761025e565b6105729150873d8911610326576103188183611660565b89610511565b346101a75760403660031901126101a75761059e6105946115fb565b60243590336118cc565b602060405160018152f35b346101a75760003660031901126101a757604051600060008051602061214b8339815191528054906105da82611748565b8085529160209160019182811690811561065e5750600114610617575b6106138661060781880382611660565b604051918291826115b2565b0390f35b600090815293506000805160206121eb8339815191525b83851061064b5750505050810160200161060782610613856105f7565b805486860184015293820193810161062e565b90508695506106139693506020925061060794915060ff191682840152151560051b8201019293856105f7565b346101a75760003660031901126101a75760008051602061216b833981519152546040516001600160a01b039091168152602090f35b346101a75760003660031901126101a75760048054604051638da5cb5b60e01b8152916001600160a01b039182169190602090849081855afa801561032d5761071d93600091610775575b5016331490811561076b5750611707565b610725611dec565b6000805160206121cb833981519152600160ff198254161790557f62e78cea01bee320cd4e420270b5ea74000d11b0c9f74754ebdbfc544b05a2586020604051338152a1005b905033148261025e565b61078e915060203d602011610326576103188183611660565b8461070c565b346101a75760003660031901126101a757602060ff600254166040519015158152f35b346101a75760403660031901126101a7576101d56107d36115fb565b602435906107e28233836117f6565b611942565b346101a75760403660031901126101a7576108006115fb565b6108086116d9565b60048054604051638da5cb5b60e01b81526001600160a01b0391821694909392602090859081885afa801561032d577f9f1eaee9ad9cb68284f0dc523aa42c465ed33b53f8da7fc7294ccea47358bbdf9583610879926040976000916108ac57501633149081156105515750611707565b169081600052600160205261089d81846000209060ff801983541691151516179055565b825191825215156020820152a1005b610572915060203d602011610326576103188183611660565b346101a75760003660031901126101a7576108de611909565b60008051602061216b83398151915280546001600160a01b031981169091556000906001600160a01b03167f8be0079c531659141344cd1fd0a4f28419497f9722a3daafe3b4186f6b6457e08280a3005b346101a75760203660031901126101a7576001600160a01b036109506115fb565b1660005260008051602061212b8339815191526020526020604060002054604051908152f35b346101a75760003660031901126101a757602060ff6000805160206121cb83398151915254166040519015158152f35b346101a75760a03660031901126101a75760043567ffffffffffffffff81116101a7576109d7903690600401611682565b60243567ffffffffffffffff81116101a7576109f7903690600401611682565b906001600160a01b0360443580821690036101a75760643581811681036101a7576084359361ffff851685036101a75760008051602061220b833981519152549367ffffffffffffffff851680159081610fb6575b6001149081610fac575b159081610fa3575b50610f9157600167ffffffffffffffff1986161760008051602061220b8339815191525560ff8560401c1615610f64575b610a97611dbd565b610a9f611dbd565b80519067ffffffffffffffff8211610e30578190610acb60008051602061210b83398151915254611748565b601f8111610ee3575b50602090601f8311600114610e5157600092610e46575b50508160011b916000199060031b1c19161760008051602061210b833981519152555b80519067ffffffffffffffff8211610e30578190610b3a60008051602061214b83398151915254611748565b601f8111610dac575b50602090601f8311600114610d1e57600092610d13575b50508160011b916000199060031b1c19161760008051602061214b833981519152555b610b85611dbd565b610b8d611dbd565b610b98604435611782565b610ba0611dbd565b816bffffffffffffffffffffffff60a01b9116816004541617600455600054908260443516906005541617600555606461ffff8516101580610d03575b15610cbe5761ffff60ff94169062010000600160b01b0360443560101b169069ffffffffffffffffffff60b01b161717600055604435166000526001602052604060002082199060018282541617905530600052604060002060018282541617905561dead60005260406000206001828254161790556002541660025560401c1615610c6557005b68ff00000000000000001960008051602061220b833981519152541660008051602061220b833981519152557fc7f505b2f371ae2175ee4913f4499e1f2633a7b5936321eed1cdaeb6115181d2602060405160018152a1005b60405162461bcd60e51b815260206004820152601f60248201527f466565206d757374206265203130302d33303020627073202831252d332529006044820152606490fd5b5061012c61ffff85161115610bdd565b015190508680610b5a565b60008051602061214b83398151915260009081526000805160206121eb8339815191529350601f198516905b818110610d945750908460019594939210610d7b575b505050811b0160008051602061214b83398151915255610b7d565b015160001960f88460031b161c19169055868080610d60565b92936020600181928786015181550195019301610d4a565b90915060008051602061214b833981519152600052601f830160051c6000805160206121eb833981519152019060208410610e1a575b90601f8493920160051c6000805160206121eb83398151915201905b818110610e0b5750610b43565b60008155849350600101610dfe565b6000805160206121eb8339815191529150610de2565b634e487b7160e01b600052604160045260246000fd5b015190508780610aeb565b925060008051602061210b8339815191526000526000805160206120eb833981519152906000935b601f1984168510610ec8576001945083601f19811610610eaf575b505050811b0160008051602061210b83398151915255610b0e565b015160001960f88460031b161c19169055878080610e94565b81810151835560209485019460019093019290910190610e79565b90915060008051602061210b833981519152600052601f830160051c6000805160206120eb8339815191520160208410610f4f575b908392915b601f820160051c6000805160206120eb833981519152018110610f405750610ad4565b60008155849350600101610f1d565b506000805160206120eb833981519152610f18565b68ffffffffffffffffff198516680100000000000000011760008051602061220b83398151915255610a8f565b60405163f92ee8a960e01b8152600490fd5b90501587610a5e565b303b159150610a56565b604087901c60ff16159150610a4c565b346101a75760003660031901126101a75760005460405160109190911c6001600160a01b03168152602090f35b346101a75760203660031901126101a75761100c6115fb565b60048054604051638da5cb5b60e01b81526001600160a01b0393929091841690602090839081845afa91821561032d5761105b928591600091611083575b501633149081156110795750611707565b166bffffffffffffffffffffffff60a01b6005541617600555600080f35b905033148461025e565b61109c915060203d602011610326576103188183611660565b8661104a565b346101a75760203660031901126101a7576101d560043533611942565b346101a75760403660031901126101a7576110d86115fb565b602435906110e4611909565b6001600160a01b03169081156111645760008051602061218b83398151915280549082820180921161114e576000926000805160206121ab833981519152926020925584845260008051602061212b833981519152825260408420818154019055604051908152a3005b634e487b7160e01b600052601160045260246000fd5b60405163ec442f0560e01b815260006004820152602490fd5b346101a75760003660031901126101a75760048054604051638da5cb5b60e01b8152916001600160a01b039182169190602090849081855afa801561032d576111d893600091610775575016331490811561076b5750611707565b6000805160206121cb833981519152805460ff8116156112245760ff191690557f5db9ee0a495bf2e6ff9c91a7834c1ba4fdd244a5e8aa4e537bd38aeae4b073aa6020604051338152a1005b604051638dfc202b60e01b8152600490fd5b346101a75760203660031901126101a7576001600160a01b036112576115fb565b166000526001602052602060ff604060002054166040519015158152f35b346101a75760003660031901126101a757602060405160128152f35b346101a75760003660031901126101a757602061ffff60005416604051908152f35b346101a75760603660031901126101a75761059e6112cf6115fb565b6112d7611611565b604435916112e68333836117f6565b6118cc565b346101a75760003660031901126101a757602060008051602061218b83398151915254604051908152f35b346101a75760403660031901126101a75761132f6115fb565b6024359033156113b0576001600160a01b03169081156113975761135233611627565b82600052602052806040600020556040519081527f8c5be1e5ebec7d5bd14f71427d1e84f3dd0314c0f7b2291e5b200ac8c7c3b92560203392a3602060405160018152f35b604051634a1406b160e11b815260006004820152602490fd5b60405163e602df0560e01b815260006004820152602490fd5b346101a75760003660031901126101a757604051600060008051602061210b8339815191528054906113fa82611748565b8085529160209160019182811690811561065e5750600114611426576106138661060781880382611660565b600090815293506000805160206120eb8339815191525b83851061145a5750505050810160200161060782610613856105f7565b805486860184015293820193810161143d565b346101a7576020806003193601126101a7576004359161ffff83168093036101a75760048054638da5cb5b60e01b83526001600160a01b03908116918490849081855afa801561032d576114d39360009161159b57501633149081156110795750611707565b606482106115575761012c821161151c57817fdc6955ea20a55f86ea1771707139f41c9203dc8e859a084e1cc80d6902417cff9261ffff196000541617600055604051908152a1005b6064906040519062461bcd60e51b8252600482015260146024820152734665652063616e6e6f742065786365656420332560601b6044820152fd5b6064906040519062461bcd60e51b82526004820152601a60248201527f4665652063616e6e6f74206265206c657373207468616e2031250000000000006044820152fd5b61109c9150853d8711610326576103188183611660565b6020808252825181830181905290939260005b8281106115e757505060409293506000838284010152601f8019910116010190565b8181018601518482016040015285016115c5565b600435906001600160a01b03821682036101a757565b602435906001600160a01b03821682036101a757565b6001600160a01b031660009081527f52c63247e1f47db19d5ce0460030c497f067ca4cebf71ba98eeadabe20bace016020526040902090565b90601f8019910116810190811067ffffffffffffffff821117610e3057604052565b81601f820112156101a75780359067ffffffffffffffff8211610e3057604051926116b7601f8401601f191660200185611660565b828452602083830101116101a757816000926020809301838601378301015290565b6024359081151582036101a757565b908160209103126101a757516001600160a01b03811681036101a75790565b1561170e57565b60405162461bcd60e51b815260206004820152601260248201527127b7363c903330b1ba37b93c9037bbb732b960711b6044820152606490fd5b90600182811c92168015611778575b602083101461176257565b634e487b7160e01b600052602260045260246000fd5b91607f1691611757565b6001600160a01b039081169081156117dd5760008051602061216b83398151915280546001600160a01b031981168417909155167f8be0079c531659141344cd1fd0a4f28419497f9722a3daafe3b4186f6b6457e0600080a3565b604051631e4fbdf760e01b815260006004820152602490fd5b919061180183611627565b9260018060a01b0390818316916000958387526020526040862054936000198510611830575b50505050505050565b85851061189b575081161561188257811561186957906118536040949392611627565b9085526020520391205538808080808080611827565b604051634a1406b160e11b815260048101869052602490fd5b60405163e602df0560e01b815260048101869052602490fd5b604051637dc7a0d960e11b81526001600160a01b039190911660048201526024810185905260448101869052606490fd5b91906001600160a01b03808416156118f057811615611164576118ee92611be2565b565b604051634b637e8f60e11b815260006004820152602490fd5b60008051602061216b833981519152546001600160a01b0316330361192a57565b60405163118cdaa760e01b8152336004820152602490fd5b906001600160a01b038216156118f0576118ee9161197b565b8181029291811591840414171561114e57565b9190820391821161114e57565b6001600160a01b0380821692919083151580611bda575b6119a157506118ee9250611ef3565b6119a9611dec565b60ff8060025416611b26575b600684028481046006148515171561114e57620186a090049081611b17575b60009586526001602052806040872054168015611b07575b159081611af8575b81611aeb575b5015611a8a57611a2690611a21612710611a1961ffff8954168861195b565b04809661196e565b61196e565b938415611a4557611a3a6118ee9584611ef3565b5460101c1690611fd7565b60405162461bcd60e51b815260206004820152601b60248201527f416d6f756e7420746f6f20736d616c6c206166746572206665657300000000006044820152606490fd5b91935050611a979161196e565b8015611aa6576118ee91611ef3565b60405162461bcd60e51b815260206004820152601b60248201527f416d6f756e7420746f6f20736d616c6c206166746572206275726e00000000006044820152606490fd5b90506002541615386119fa565b865461ffff16151591506119f4565b50858052806040872054166119ec565b611b218285611e17565b6119d4565b60008260008051602061216b8339815191525416808714908115611bd1575b50611bc9575b801580611ba0575b611b98575b6119b55760405162461bcd60e51b8152602060048201526014602482015273151c985b9cd9995c9cc81c995cdd1c9a58dd195960621b6044820152606490fd5b506001611b58565b50856000526003602052816040600020541680611b535750600080528160406000205416611b53565b506001611b4b565b90501538611b45565b506000611992565b9091906001600160a01b0380821680151580611db2575b611c09575050916118ee92611fd7565b611c11611dec565b60ff8060025416611cf9575b600685028581046006148615171561114e57620186a090049081611cea575b60009283526001602052806040842054168015611cd8575b159081611cc9575b81611cbc575b5015611c9e57611c8990611a21612710611c8161ffff8654168961195b565b04809761196e565b948515611a45576118ee95611a3a9185611fd7565b915050611cac91939261196e565b908115611aa6576118ee92611fd7565b9050600254161538611c62565b835461ffff1615159150611c5c565b50838716835280604084205416611c54565b611cf48286611e17565b611c3c565b60008360008051602061216b8339815191525416808414908115611da6575b50611d9e575b801580611d73575b611d6b575b611c1d5760405162461bcd60e51b8152602060048201526014602482015273151c985b9cd9995c9cc81c995cdd1c9a58dd195960621b6044820152606490fd5b506001611d2b565b50826000526003602052816040600020541680611d2657508387166000528160406000205416611d26565b506001611d1e565b90508488161438611d18565b508185161515611bf9565b60ff60008051602061220b8339815191525460401c1615611dda57565b604051631afcd79f60e31b8152600490fd5b60ff6000805160206121cb8339815191525416611e0557565b60405163d93c066560e01b8152600490fd5b6001600160a01b0381169081611e84575060008051602061218b83398151915280549083820180921161114e57555b6000805160206121ab833981519152602061dead938460005260008051602061212b83398151915282526040600020818154019055604051908152a3565b8160005260008051602061212b8339815191528060205260406000205491848310611ec057509083918360005260205203604060002055611e46565b60405163391434e360e21b81526001600160a01b0391909116600482015260248101929092525060448101839052606490fd5b6001600160a01b0381169081611f56575060008051602061218b83398151915280549083820180921161114e576000936000805160206121ab83398151915292602092555b60008051602061218b833981519152818154039055604051908152a3565b92918160005260008051602061212b8339815191528060205260406000205494828610611fa65750816000805160206121ab83398151915292600095966020938688528452036040862055611f38565b60405163391434e360e21b81526001600160a01b039190911660048201526024810186905260448101839052606490fd5b6001600160a01b038082169290918361206957509060008051602061218b8339815191529081549285840180941161114e576000805160206121ab83398151915293602093555b1693846120445760008051602061218b8339815191528181540390555b604051908152a3565b8460005260008051602061212b8339815191528252604060002081815401905561203b565b8360005260008051602061212b83398151915280602052604060002054918683106120b7575091856000805160206121ab83398151915294926020948760005285520360406000205561201e565b60405163391434e360e21b81526001600160a01b0391909116600482015260248101929092525060448101859052606490fdfe2ae08a8e29253f69ac5d979a101956ab8f8d9d7ded63fa7a83b16fc47648eab052c63247e1f47db19d5ce0460030c497f067ca4cebf71ba98eeadabe20bace0352c63247e1f47db19d5ce0460030c497f067ca4cebf71ba98eeadabe20bace0052c63247e1f47db19d5ce0460030c497f067ca4cebf71ba98eeadabe20bace049016d09d72d40fdae2fd8ceac6b6234c7706214fd39c1cd1e609a0528c19930052c63247e1f47db19d5ce0460030c497f067ca4cebf71ba98eeadabe20bace02ddf252ad1be2c89b69c2b068fc378daa952ba7f163c4a11628f55a4df523b3efcd5ed15c6e187e77e9aee88184c21f4f2182ab5827cb3b7e07fbedcd63f0330046a2803e59a4de4e7a4c574b1243f25977ac4c77d5a1a4a609b5394cebb4a2aaf0c57e16840df040f15088dc2f81fe391c3923bec73e23a9662efc9c229c6a00a264697066735822122085ed5bc81612ad3c55aa36f627bf5b7d1e69c71907bb7c05366e4f9d638defd964736f6c63430008180033",
  "linkReferences": {},
  "deployedLinkReferences": {}
}