{
  "_format": "hh-sol-artifact-1",
  "contractName": "MoonExFactory",
  "sourceName": "contracts/MoonExFactory.sol",
  "abi": [
    {
      "inputs": [
        {
          "internalType": "address",
          "name": "owner",
          "type": "address"
        }
      ],
      "stateMutability": "nonpayable",
      "type": "constructor"
    },
    {
      "inputs": [],
      "name": "FailedDeployment",
      "type": "error"
    },
    {
      "inputs": [
        {
          "internalType": "uint256",
          "name": "balance",
          "type": "uint256"
        },
        {
          "internalType": "uint256",
          "name": "needed",
          "type": "uint256"
        }
      ],
      "name": "InsufficientBalance",
      "type": "error"
    },
    {
      "inputs": [
        {
          "internalType": "address",
          "name": "owner",
          "type": "address"
        }
      ],
      "name": "OwnableInvalidOwner",
      "type": "error"
    },
    {
      "inputs": [
        {
          "internalType": "address",
          "name": "account",
          "type": "address"
        }
      ],
      "name": "OwnableUnauthorizedAccount",
      "type": "error"
    },
    {
      "anonymous": false,
      "inputs": [
        {
          "indexed": true,
          "internalType": "address",
          "name": "token",
          "type": "address"
        },
        {
          "indexed": true,
          "internalType": "address",
          "name": "curve",
          "type": "address"
        },
        {
          "indexed": false,
          "internalType": "address",
          "name": "liquidityManager",
          "type": "address"
        },
        {
          "indexed": true,
          "internalType": "address",
          "name": "user",
          "type": "address"
        },
        {
          "indexed": false,
          "internalType": "string",
          "name": "name",
          "type": "string"
        },
        {
          "indexed": false,
          "internalType": "string",
          "name": "symbol",
          "type": "string"
        }
      ],
      "name": "FairLaunchDeployed",
      "type": "event"
    },
    {
      "anonymous": false,
      "inputs": [
        {
          "indexed": true,
          "internalType": "address",
          "name": "registry",
          "type": "address"
        }
      ],
      "name": "LogoRegistrySet",
      "type": "event"
    },
    {
      "anonymous": false,
      "inputs": [
        {
          "indexed": true,
          "internalType": "address",
          "name": "previousOwner",
          "type": "address"
        },
        {
          "indexed": true,
          "internalType": "address",
          "name": "newOwner",
          "type": "address"
        }
      ],
      "name": "OwnershipTransferred",
      "type": "event"
    },
    {
      "anonymous": false,
      "inputs": [
        {
          "indexed": true,
          "internalType": "address",
          "name": "tokenAddress",
          "type": "address"
        },
        {
          "indexed": true,
          "internalType": "address",
          "name": "owner",
          "type": "address"
        },
        {
          "indexed": false,
          "internalType": "string",
          "name": "name",
          "type": "string"
        },
        {
          "indexed": false,
          "internalType": "string",
          "name": "symbol",
          "type": "string"
        }
      ],
      "name": "TokenDeployed",
      "type": "event"
    },
    {
      "inputs": [],
      "name": "CURVE_SLOPE",
      "outputs": [
        {
          "internalType": "uint256",
          "name": "",
          "type": "uint256"
        }
      ],
      "stateMutability": "view",
      "type": "function"
    },
    {
      "inputs": [],
      "name": "INITIAL_PRICE",
      "outputs": [
        {
          "internalType": "uint256",
          "name": "",
          "type": "uint256"
        }
      ],
      "stateMutability": "view",
      "type": "function"
    },
    {
      "inputs": [],
      "name": "LP_THRESHOLD",
      "outputs": [
        {
          "internalType": "uint256",
          "name": "",
          "type": "uint256"
        }
      ],
      "stateMutability": "view",
      "type": "function"
    },
    {
      "inputs": [],
      "name": "MAX_SUPPLY",
      "outputs": [
        {
          "internalType": "uint256",
          "name": "",
          "type": "uint256"
        }
      ],
      "stateMutability": "view",
      "type": "function"
    },
    {
      "inputs": [],
      "name": "PANCAKESWAP_ROUTER",
      "outputs": [
        {
          "internalType": "address",
          "name": "",
          "type": "address"
        }
      ],
      "stateMutability": "view",
      "type": "function"
    },
    {
      "inputs": [
        {
          "internalType": "address",
          "name": "curve",
          "type": "address"
        }
      ],
      "name": "createCurveLiquidity",
      "outputs": [],
      "stateMutability": "nonpayable",
      "type": "function"
    },
    {
      "inputs": [
        {
          "internalType": "string",
          "name": "name",
          "type": "string"
        },
        {
          "internalType": "string",
          "name": "symbol",
          "type": "string"
        },
        {
          "internalType": "bytes32",
          "name": "salt",
          "type": "bytes32"
        },
        {
          "internalType": "string",
          "name": "logoURI",
          "type": "string"
        },
        {
          "internalType": "string",
          "name": "displayName",
          "type": "string"
        },
        {
          "internalType": "uint16",
          "name": "tradeFeeBps",
          "type": "uint16"
        },
        {
          "internalType": "address",
          "name": "feeRecipient",
          "type": "address"
        },
        {
          "internalType": "uint64",
          "name": "saleStart",
          "type": "uint64"
        },
        {
          "internalType": "uint16",
          "name": "tokenFeeBps",
          "type": "uint16"
        }
      ],
      "name": "deployFairLaunch",
      "outputs": [
        {
          "internalType": "address",
          "name": "token",
          "type": "address"
        },
        {
          "internalType": "address",
          "name": "curve",
          "type": "address"
        },
        {
          "internalType": "address",
          "name": "lm",
          "type": "address"
        }
      ],
      "stateMutability": "nonpayable",
      "type": "function"
    },
    {
      "inputs": [
        {
          "internalType": "string",
          "name": "name",
          "type": "string"
        },
        {
          "internalType": "string",
          "name": "symbol",
          "type": "string"
        },
        {
          "internalType": "bytes32",
          "name": "salt",
          "type": "bytes32"
        },
        {
          "internalType": "uint16",
          "name": "tokenFeeBps",
          "type": "uint16"
        }
      ],
      "name": "deployToken",
      "outputs": [],
      "stateMutability": "nonpayable",
      "type": "function"
    },
    {
      "inputs": [
        {
          "internalType": "string",
          "name": "name",
          "type": "string"
        },
        {
          "internalType": "string",
          "name": "symbol",
          "type": "string"
        },
        {
          "internalType": "bytes32",
          "name": "salt",
          "type": "bytes32"
        },
        {
          "internalType": "string",
          "name": "logoURI",
          "type": "string"
        },
        {
          "internalType": "uint16",
          "name": "tokenFeeBps",
          "type": "uint16"
        }
      ],
      "name": "deployTokenWithLogo",
      "outputs": [],
      "stateMutability": "nonpayable",
      "type": "function"
    },
    {
      "inputs": [
        {
          "internalType": "string",
          "name": "name",
          "type": "string"
        },
        {
          "internalType": "string",
          "name": "symbol",
          "type": "string"
        },
        {
          "internalType": "bytes32",
          "name": "salt",
          "type": "bytes32"
        },
        {
          "internalType": "string",
          "name": "logoURI",
          "type": "string"
        },
        {
          "internalType": "string",
          "name": "displayName",
          "type": "string"
        },
        {
          "internalType": "uint16",
          "name": "tokenFeeBps",
          "type": "uint16"
        }
      ],
      "name": "deployTokenWithMetadata",
      "outputs": [],
      "stateMutability": "nonpayable",
      "type": "function"
    },
    {
      "inputs": [
        {
          "internalType": "address",
          "name": "curve",
          "type": "address"
        }
      ],
      "name": "enableCurveRefundMode",
      "outputs": [],
      "stateMutability": "nonpayable",
      "type": "function"
    },
    {
      "inputs": [],
      "name": "metadataRegistry",
      "outputs": [
        {
          "internalType": "contract MetadataRegistry",
          "name": "",
          "type": "address"
        }
      ],
      "stateMutability": "view",
      "type": "function"
    },
    {
      "inputs": [],
      "name": "moonTokenImplementation",
      "outputs": [
        {
          "internalType": "address",
          "name": "",
          "type": "address"
        }
      ],
      "stateMutability": "view",
      "type": "function"
    },
    {
      "inputs": [],
      "name": "owner",
      "outputs": [
        {
          "internalType": "address",
          "name": "",
          "type": "address"
        }
      ],
      "stateMutability": "view",
      "type": "function"
    },
    {
      "inputs": [
        {
          "internalType": "address",
          "name": "curve",
          "type": "address"
        }
      ],
      "name": "pauseCurve",
      "outputs": [],
      "stateMutability": "nonpayable",
      "type": "function"
    },
    {
      "inputs": [
        {
          "internalType": "address",
          "name": "token",
          "type": "address"
        }
      ],
      "name": "pauseToken",
      "outputs": [],
      "stateMutability": "nonpayable",
      "type": "function"
    },
    {
      "inputs": [
        {
          "internalType": "bytes32",
          "name": "salt",
          "type": "bytes32"
        }
      ],
      "name": "predictAddress",
      "outputs": [
        {
          "internalType": "address",
          "name": "",
          "type": "address"
        }
      ],
      "stateMutability": "view",
      "type": "function"
    },
    {
      "inputs": [],
      "name": "renounceOwnership",
      "outputs": [],
      "stateMutability": "nonpayable",
      "type": "function"
    },
    {
      "inputs": [
        {
          "internalType": "address",
          "name": "curve",
          "type": "address"
        },
        {
          "internalType": "address",
          "name": "manager",
          "type": "address"
        }
      ],
      "name": "setCurveLiquidityManager",
      "outputs": [],
      "stateMutability": "nonpayable",
      "type": "function"
    },
    {
      "inputs": [
        {
          "internalType": "address",
          "name": "curve",
          "type": "address"
        },
        {
          "internalType": "uint256",
          "name": "threshold",
          "type": "uint256"
        }
      ],
      "name": "setCurveLpThreshold",
      "outputs": [],
      "stateMutability": "nonpayable",
      "type": "function"
    },
    {
      "inputs": [
        {
          "internalType": "address",
          "name": "curve",
          "type": "address"
        },
        {
          "internalType": "address",
          "name": "account",
          "type": "address"
        },
        {
          "internalType": "bool",
          "name": "mod_",
          "type": "bool"
        }
      ],
      "name": "setCurveMod",
      "outputs": [],
      "stateMutability": "nonpayable",
      "type": "function"
    },
    {
      "inputs": [
        {
          "internalType": "address",
          "name": "curve",
          "type": "address"
        },
        {
          "internalType": "uint64",
          "name": "start",
          "type": "uint64"
        }
      ],
      "name": "setCurveSaleStart",
      "outputs": [],
      "stateMutability": "nonpayable",
      "type": "function"
    },
    {
      "inputs": [
        {
          "internalType": "address",
          "name": "curve",
          "type": "address"
        },
        {
          "internalType": "uint16",
          "name": "feeBps",
          "type": "uint16"
        }
      ],
      "name": "setCurveTradeFee",
      "outputs": [],
      "stateMutability": "nonpayable",
      "type": "function"
    },
    {
      "inputs": [
        {
          "internalType": "address",
          "name": "registry",
          "type": "address"
        }
      ],
      "name": "setLogoRegistry",
      "outputs": [],
      "stateMutability": "nonpayable",
      "type": "function"
    },
    {
      "inputs": [
        {
          "internalType": "address",
          "name": "registry",
          "type": "address"
        }
      ],
      "name": "setMetadataRegistry",
      "outputs": [],
      "stateMutability": "nonpayable",
      "type": "function"
    },
    {
      "inputs": [
        {
          "internalType": "address",
          "name": "token",
          "type": "address"
        },
        {
          "internalType": "address",
          "name": "account",
          "type": "address"
        },
        {
          "internalType": "bool",
          "name": "allowed",
          "type": "bool"
        }
      ],
      "name": "setTokenAllowedWhileRestricted",
      "outputs": [],
      "stateMutability": "nonpayable",
      "type": "function"
    },
    {
      "inputs": [
        {
          "internalType": "address",
          "name": "token",
          "type": "address"
        },
        {
          "internalType": "uint16",
          "name": "feeBps",
          "type": "uint16"
        }
      ],
      "name": "setTokenFee",
      "outputs": [],
      "stateMutability": "nonpayable",
      "type": "function"
    },
    {
      "inputs": [
        {
          "internalType": "address",
          "name": "token",
          "type": "address"
        },
        {
          "internalType": "address",
          "name": "account",
          "type": "address"
        },
        {
          "internalType": "bool",
          "name": "exempt",
          "type": "bool"
        }
      ],
      "name": "setTokenFeeExemption",
      "outputs": [],
      "stateMutability": "nonpayable",
      "type": "function"
    },
    {
      "inputs": [
        {
          "internalType": "address",
          "name": "token",
          "type": "address"
        },
        {
          "internalType": "address",
          "name": "recipient",
          "type": "address"
        }
      ],
      "name": "setTokenFeeRecipient",
      "outputs": [],
      "stateMutability": "nonpayable",
      "type": "function"
    },
    {
      "inputs": [
        {
          "internalType": "address",
          "name": "token",
          "type": "address"
        },
        {
          "internalType": "bool",
          "name": "enabled",
          "type": "bool"
        }
      ],
      "name": "setTokenTransfersRestricted",
      "outputs": [],
      "stateMutability": "nonpayable",
      "type": "function"
    },
    {
      "inputs": [
        {
          "internalType": "address",
          "name": "newOwner",
          "type": "address"
        }
      ],
      "name": "transferOwnership",
      "outputs": [],
      "stateMutability": "nonpayable",
      "type": "function"
    },
    {
      "inputs": [
        {
          "internalType": "address",
          "name": "curve",
          "type": "address"
        }
      ],
      "name": "unpauseCurve",
      "outputs": [],
      "stateMutability": "nonpayable",
      "type": "function"
    },
    {
      "inputs": [
        {
          "internalType": "address",
          "name": "token",
          "type": "address"
        }
      ],
      "name": "unpauseToken",
      "outputs": [],
      "stateMutability": "nonpayable",
      "type": "function"
    }
  ],
  "bytecode": "0x60a03461013d576001600160401b0390601f620071dc38819003918201601f1916830191848311848410176101425780849260209460405283398101031261013d57516001600160a01b0391908281169081900361013d57801561012457600080546001600160a01b0319811683178255604051919391929085167f8be0079c531659141344cd1fd0a4f28419497f9722a3daafe3b4186f6b6457e08580a361231e828101918211838310176101105790829162004ebe8339039082f0908115610104575016608052604051614d65908162000159823960805181818161025b01528181610369015281816107d601528181610dd801528181610f6101526115e90152f35b604051903d90823e3d90fd5b634e487b7160e01b84526041600452602484fd5b604051631e4fbdf760e01b815260006004820152602490fd5b600080fd5b634e487b7160e01b600052604160045260246000fdfe608060405260043610156200001357600080fd5b6000803560e01c8063100b64ff14620014675780631b0df5e814620017175780631fd309da14620015475780632783bed014620014c257806332cb6b0c14620014995780633b3bff0f14620014675780633b7beab91462001406578063468ad0a614620013de57806346d4dbbf146200118e578063552a6a2e14620013395780635cdd241a14620012c4578063715018a614620012665780637847e1fe14620011ee57806378e5939d14620011c35780637c41ad2c146200118e5780637c5e2795146200116c578063878b363514620010ec5780638da5cb5b14620010c3578063947f2d8d1462000ea65780639ba39dd01462000e3e5780639c76b6541462000da1578063a4570e211462000d1b578063a49d56671462000662578063a943ae8614620005fe578063af27cfdd146200056a578063b455f3d214620004f0578063b758e0521462000462578063da21536f146200043e578063dbe496e714620002d9578063e1a504e514620002a8578063eb3d2415146200028a578063f1afe5e814620002435763f2fde38b14620001aa57600080fd5b34620002405760203660031901126200024057620001c762001799565b620001d162001aa6565b6001600160a01b039081169081156200022757600054826bffffffffffffffffffffffff60a01b821617600055167f8be0079c531659141344cd1fd0a4f28419497f9722a3daafe3b4186f6b6457e0600080a380f35b604051631e4fbdf760e01b815260048101849052602490fd5b80fd5b503462000240578060031936011262000240576040517f00000000000000000000000000000000000000000000000000000000000000006001600160a01b03168152602090f35b50346200024057806003193601126200024057602090604051908152f35b50346200024057806003193601126200024057602060405173d99d1c33f9fc3444f8101754abc46c52416550d18152f35b503462000240576080366003190112620002405767ffffffffffffffff6004358181116200043a576200031190369060040162001839565b906024359081116200043a576200032d90369060040162001839565b6064359061ffff8216808303620004355780606462000357921015908162000427575b50620018f7565b836001600160a01b036200038e6044357f000000000000000000000000000000000000000000000000000000000000000062001ad3565b1692833b15620004235781620003bd9160405180938192635a5c182360e01b83523033898c6004870162001986565b038183885af180156200041857620003fc575b5050620003f660008051602062004d1083398151915291604051918291339683620019d5565b0390a380f35b6200040790620017eb565b62000414578338620003d0565b8380fd5b6040513d84823e3d90fd5b5080fd5b61012c915011153862000350565b600080fd5b8280fd5b50346200024057806003193601126200024057602060405166b1a2bc2ec500008152f35b5034620002405760403660031901126200024057806200048162001799565b6200048b620017c7565b906200049662001aa6565b6001600160a01b031690813b15620004ec5761ffff6024849283604051958694859363d35ddacb60e01b85521660048401525af180156200041857620004d95750f35b620004e490620017eb565b620002405780f35b5050fd5b5034620002405760403660031901126200024057806200050f62001799565b62000519620017b0565b6200052362001aa6565b6001600160a01b0391821691823b1562000565576024849283604051958694859363e74b981b60e01b85521660048401525af180156200041857620004d95750f35b505050fd5b5034620002405760603660031901126200024057806200058962001799565b62000593620017b0565b6200059d62001895565b91620005a862001aa6565b6001600160a01b031691823b15620005655760405163bb4628d160e01b81526001600160a01b039092166004830152151560248201529082908290818381604481015b03925af180156200041857620004d95750f35b5034620002405760203660031901126200024057806200061d62001799565b6200062762001aa6565b6001600160a01b0316803b156200065f57818091600460405180948193631ed844f960e21b83525af180156200041857620004d95750f35b50fd5b50346200024057610120366003190112620002405767ffffffffffffffff6004358181116200043a576200069b90369060040162001839565b906024358181116200041457620006b790369060040162001839565b9060643581811162000b5157620006d390369060040162001839565b9260843582811162000aa457620006ef90369060040162001839565b92620006fa620017d9565b60c435936001600160a01b0385168503620004355760e435918183168303620004355761ffff610104351680610104350362000435576064811015908162000d0d575b501562000cba57604051612cba808201908282108583111762000c9b5790829162001b3d833903908af095861562000caf57604051610519818181011085828401111762000c9b5790604081838e9897969594620047f7833973d99d1c33f9fc3444f8101754abc46c52416550d19082019081526001600160a01b038c16602082015203019086f098891562000c9057620007fb6044357f000000000000000000000000000000000000000000000000000000000000000062001ad3565b9a6001600160a01b038c163b1562000c8157620008469087898e8d838e60405197889586948593635a5c182360e01b85526101043592309260018060a01b0316916004870162001986565b03926001600160a01b03165af1801562000c85578d92899162000c64575b5050888a60008051602062004d108339815191526040518062000893339560018060a01b0389169583620019d5565b0390a36001546001600160a01b03168062000b55575b505050506001600160a01b0388163b1562000b51576040516320f6d64360e01b81526001600160a01b038b81166004830152336024830152640174876e8060448301526064820187905266b1a2bc2ec50000608483015261ffff9390931660a482015290821660c482015288821660e48201526b033b2e3c9fd0803ce800000061010482015230610124820152908490829061014490829084908c165af190811562000b4657849162000b2e575b505080821662000acb575b5050506001600160a01b0385163b1562000aa45760405163087fe3f760e31b81526001600160a01b03848116600483015287919082908290602490829084908c165af18015620004185762000ab3575b50506001600160a01b0383163b1562000aa457604051639da36bbf60e01b81528681600481836001600160a01b0389165af1801562000aa85762000a8c575b506040516001600160a01b038516815260606020820181905296509162000a1c908388019062001944565b828103604084015233926001600160a01b0385811693908816927f312f6a2c8cde9715ebc5ea523aa5f0026cbcb11b4a38d0e04eb28989747a01069291829162000a669162001944565b0390a4604080516001600160a01b03948516815291841660208301529190921690820152f35b62000a988791620017eb565b62000aa45785620009f1565b8580fd5b6040513d89823e3d90fd5b62000abe90620017eb565b62000aa4578538620009b2565b6001600160a01b0386163b156200043a5760405163b3a891c960e01b8152911660048201528181602481836001600160a01b038a165af18015620004185762000b16575b8062000962565b62000b2190620017eb565b62000aa457853862000b0f565b62000b3990620017eb565b6200043a57823862000957565b6040513d86823e3d90fd5b8480fd5b83511562000bf5575060015460405163b840d28d60e01b81529360209385936001600160a01b039093169284928c92849262000b98929133906004860162001a65565b03925af1801562000bea5762000bb5575b505b388a8180620008a9565b6020809296503d831162000be2575b62000bd0818362001816565b81010312620004355789933862000ba9565b503d62000bc4565b6040513d88823e3d90fd5b62000c1e935060209289604051809681958294631b851f5760e11b845233906004850162001a01565b03925af162000c2f575b5062000bab565b6020809296503d831162000c5c575b62000c4a818362001816565b81010312620004355789933862000c28565b503d62000c3e565b62000c7291929350620017eb565b62000c81578b90873862000864565b8680fd5b6040513d8a823e3d90fd5b6040513d87823e3d90fd5b634e487b7160e01b8c52604160045260248cfd5b6040513d8b823e3d90fd5b60405162461bcd60e51b815260206004820152602560248201527f546f6b656e20666565206d757374206265203130302d33303020627073202831604482015264252d33252960d81b6064820152608490fd5b61012c91501115386200073d565b50346200024057606036600319011262000240578062000d3a62001799565b62000d44620017b0565b62000d4e62001895565b9162000d5962001aa6565b6001600160a01b031691823b15620005655760405163751fd17960e01b81526001600160a01b03909216600483015215156024820152908290829081838160448101620005eb565b503462000240576020366003190112620002405760206040513060388201526f5af43d82803e903d91602b57fd5bf3ff60248201527f00000000000000000000000000000000000000000000000000000000000000006014820152733d602d80600a3d3981f3363d3d373d3d3d363d73815260043560588201526037600c82012060788201526055604360018060a01b0392012016604051908152f35b50346200024057604036600319011262000240578062000e5d62001799565b62000e6762001aa6565b6001600160a01b0316803b156200065f5781809160246040518094819363672a271760e11b8352833560048401525af180156200041857620004d95750f35b5034620002405760c0366003190112620002405767ffffffffffffffff6004358181116200043a5762000ede90369060040162001839565b602435828111620004145762000ef990369060040162001839565b60643583811162000b515762000f1490369060040162001839565b9260843590811162000b515762000f3090369060040162001839565b9062000f3b620017d9565b9262000f5861ffff851660648110159081620004275750620018f7565b62000f866044357f000000000000000000000000000000000000000000000000000000000000000062001ad3565b936001600160a01b0392838616918890833b1562000423578162000fc39160405180938192635a5c182360e01b83523033898c6004870162001986565b038183885af180156200041857620010a7575b505062000ffc60008051602062004d1083398151915291604051918291339683620019d5565b0390a360015416801562001074576200103393856020946040519687958694859363b840d28d60e01b855233906004860162001a65565b03925af18015620004185762001047575080f35b602090813d83116200106c575b62001060818362001816565b81010312620004355780f35b503d62001054565b60405162461bcd60e51b815260206004820152600b60248201526a4e6f20726567697374727960a81b6044820152606490fd5b620010b290620017eb565b620010bf57873862000fd6565b8780fd5b50346200024057806003193601126200024057546040516001600160a01b039091168152602090f35b50346200024057604036600319011262000240576200110a62001799565b60243567ffffffffffffffff8116809103620004355782916200112c62001aa6565b6001600160a01b031690813b15620004ec57829160248392604051948593849263b3a891c960e01b845260048401525af180156200041857620004d95750f35b503462000240578060031936011262000240576020604051640174876e808152f35b5034620002405760203660031901126200024057620011c0620011b062001799565b620011ba62001aa6565b62001a2c565b80f35b503462000240578060031936011262000240576001546040516001600160a01b039091168152602090f35b50346200024057604036600319011262000240576200120c62001799565b602435801515809103620004355782916200122662001aa6565b6001600160a01b031690813b15620004ec57829160248392604051948593849263c22dc7e760e01b845260048401525af180156200041857620004d95750f35b503462000240578060031936011262000240576200128362001aa6565b600080546001600160a01b0319811682556001600160a01b03167f8be0079c531659141344cd1fd0a4f28419497f9722a3daafe3b4186f6b6457e08280a380f35b503462000240576040366003190112620002405780620012e362001799565b620012ed620017b0565b620012f762001aa6565b6001600160a01b0391821691823b15620005655760248492836040519586948593630f05893560e21b85521660048401525af180156200041857620004d95750f35b50346200024057602036600319011262000240576200135762001799565b6200136162001aa6565b6001600160a01b03168015620013aa57600180546001600160a01b031916821790557f4be7ac7235b1c8ce2132cead151b872e8950091ae30a31f9a8bcae3d1dca8e8b8280a280f35b60405162461bcd60e51b815260206004820152600c60248201526b42616420726567697374727960a01b6044820152606490fd5b5034620002405760203660031901126200024057620013fc62001799565b6200135762001aa6565b5034620002405760203660031901126200024057806200142562001799565b6200142f62001aa6565b6001600160a01b0316803b156200065f578180916004604051809481936331ebcaa760e21b83525af180156200041857620004d95750f35b5034620002405760203660031901126200024057620011c06200148962001799565b6200149362001aa6565b620018a5565b5034620002405780600319360112620002405760206040516b033b2e3c9fd0803ce80000008152f35b503462000240576060366003190112620002405780620014e162001799565b620014eb620017b0565b620014f562001895565b916200150062001aa6565b6001600160a01b031691823b15620005655760405162099b2360e41b81526001600160a01b03909216600483015215156024820152908290829081838160448101620005eb565b5034620002405760a0366003190112620002405767ffffffffffffffff6004358181116200043a576200157f90369060040162001839565b60243582811162000414576200159a90369060040162001839565b916064359081116200041457620015b690369060040162001839565b916084359161ffff83168084036200043557806064620015e09210159081620004275750620018f7565b6200160e6044357f000000000000000000000000000000000000000000000000000000000000000062001ad3565b926001600160a01b0392838516918790833b156200042357816200164b9160405180938192635a5c182360e01b83523033898c6004870162001986565b038183885af180156200041857620016ff575b50506200168460008051602062004d1083398151915291604051918291339683620019d5565b0390a360015416918262001696578380f35b620016be9260209285604051809681958294631b851f5760e11b845233906004850162001a01565b03925af1620016ce575b80808380f35b602090813d8311620016f7575b620016e7818362001816565b81010312620004355738620016c8565b503d620016db565b6200170a90620017eb565b62000c815786386200165e565b50346200024057604036600319011262000240576200173562001799565b8162001740620017c7565b916200174b62001aa6565b6001600160a01b031691823b156200042357602461ffff9183604051958694859363023b1fc960e01b85521660048401525af1801562000418576200178e575080f35b620011c090620017eb565b600435906001600160a01b03821682036200043557565b602435906001600160a01b03821682036200043557565b6024359061ffff821682036200043557565b60a4359061ffff821682036200043557565b67ffffffffffffffff81116200180057604052565b634e487b7160e01b600052604160045260246000fd5b90601f8019910116810190811067ffffffffffffffff8211176200180057604052565b81601f82011215620004355780359067ffffffffffffffff821162001800576040519262001872601f8401601f19166020018562001816565b828452602083830101116200043557816000926020809301838601378301015290565b6044359081151582036200043557565b6001600160a01b0316803b15620004355760008091600460405180948193631fa5d41d60e11b83525af18015620018eb57620018de5750565b620018e990620017eb565b565b6040513d6000823e3d90fd5b15620018ff57565b60405162461bcd60e51b815260206004820152601f60248201527f466565206d757374206265203130302d33303020627073202831252d332529006044820152606490fd5b919082519283825260005b84811062001971575050826000602080949584010152601f8019910116010190565b6020818301810151848301820152016200194f565b9395949092620019b861ffff93620019a960809660a0895260a089019062001944565b90878203602089015262001944565b6001600160a01b0391821660408701529616606085015216910152565b9091620019ef620019fe9360408452604084019062001944565b91602081840391015262001944565b90565b6001600160a01b03918216815291166020820152606060408201819052620019fe9291019062001944565b6001600160a01b0316803b15620004355760008091600460405180948193638456cb5960e01b83525af18015620018eb57620018de5750565b6001600160a01b03918216815291166020820152608060408201819052620019fe93919262001a979184019062001944565b91606081840391015262001944565b6000546001600160a01b0316330362001abb57565b60405163118cdaa760e01b8152336004820152602490fd5b6e5af43d82803e903d91602b57fd5bf390763d602d80600a3d3981f3363d3d373d3d3d363d7300000062ffffff8260881c161760005260781b17602052603760096000f5906001600160a01b0382161562001b2a57565b60405163b06ebf3d60e01b8152600490fdfe6080806040523461001657612c9e908161001c8239f35b600080fdfe608060408181526004918236101561001657600080fd5b600092833560e01c91826299b23014611f445750816302c7e7af14611f25578163078a424514611f0557816318cedbfc14611ede57816320f6d64314611b4c578163264e49db14611b2d578163278ecde1146118e9578163334041a6146118c5578163338274381461189c5781633468145a146118745781633c1624d4146117c65781633f4ba83a1461170057816346904840146116d45781635c975abb146116a35781635faad8c514611681578163708ba45514611662578163715018a6146115f75781637b6113e41461144c5781637e5689a3146114265781638290f3e4146113355781638456cb59146112645781638988b284146112265781638da5cb5b146111f05781639da36bbf14611053578163a474030314611034578163a4930bb214610f0b578163a6f2ae3a14610a0d578163ab0bcc41146109e4578163b3a891c914610921578163b4f40c6114610902578163c45a0155146108d9578163c7af2a9c14610823578163c8cb47cb14610800578163ce544e2e1461073c578163d35ddacb14610612578163d5abeb01146105f3578163e4849b321461033c578163e8aba58e14610317578163eb91d37e146102b157508063ed2e1eeb14610289578063f2fde38b146102595763f71143ca146101f257600080fd5b34610255578160031936011261025557600d5460209167ffffffffffffffff82164210159182610247575b508161022c575b519015158152f35b600080516020612c298339815191525460ff16159150610224565b811c60ff161591508361021d565b5080fd5b823461028657602036600319011261028657610283610276612051565b61027e6124a8565b612404565b80f35b80fd5b503461025557816003193601126102555760065490516001600160a01b039091168152602090f35b82843461028657806003193601126102865760015492670de0b6b3a764000093848102948186041490151715610304576020836102fd866102f7600254600a5490612144565b9061216d565b9051908152f35b634e487b7160e01b825260119052602490fd5b505034610255578160031936011261025557600d548151911c60ff1615158152602090f35b83833461025557602090816003193601126105ef5783359161035c612478565b6103646124e1565b61038b67ffffffffffffffff600d5461038260ff82871c1615612327565b16421015612361565b82156105b75761039f60ff6009541661222c565b600a54906103af84831015612265565b845483516323b872dd60e01b81523388820152306024820152604481018690526001600160a01b0393918390829060649082908b9089165af180156105ad57610580575b50600254806104ce5750846104859187988298670de0b6b3a764000061043c7fbac9694ac0daa55169abd117086fe32c89401d9a3b15dd1d34e55e0aa4e47a9d9a600154612144565b04915b549161045d61271061045561ffff861684612144565b04809261217a565b97816104a8575b5050610480915080808089335af161047a6122a2565b506122e2565b61217a565b600a5582519485528401523392a26001600080516020612c498339815191525580f35b82809281926104c59660101c165af16104bf6122a2565b506123b8565b89898180610464565b61052c600154610523670de0b6b3a7640000936105108a61051d6105166104fb89808c0494048098612144565b96610510610509828661216d565b918561216d565b90612144565b9180612144565b9061217a565b60011c9061216d565b81810291818304149015171561056d579461048591879882987fbac9694ac0daa55169abd117086fe32c89401d9a3b15dd1d34e55e0aa4e47a9d989161043f565b634e487b7160e01b875260118852602487fd5b61059f90833d85116105a6575b61059781836120a2565b8101906123a0565b50876103f3565b503d61058d565b85513d89823e3d90fd5b8490606492519162461bcd60e51b835282015260136024820152724d7573742073656c6c20736f6d657468696e6760681b6044820152fd5b8280fd5b5050346102555781600319360112610255576020906008549051908152f35b8391503461025557602090816003193601126105ef57610630612067565b6007548551638da5cb5b60e01b81526001600160a01b03918216919085818681865afa908115610732579161ffff94939161067e938991610705575b501633149081156106fb575b506120e3565b16906103e882116106c057937f08f6c2b2b5b95a33c6a8871acf4e7a0ff9c68627cbfed148744d97691e3f46ba93948261ffff1982541617905551908152a180f35b845162461bcd60e51b815290810183905260156024820152744665652063616e6e6f74206578636565642031302560581b6044820152606490fd5b9050331488610678565b6107259150883d8a1161072b575b61071d81836120a2565b8101906120c4565b8a61066c565b503d610713565b88513d89823e3d90fd5b9050346105ef5760203660031901126105ef576007548251638da5cb5b60e01b81528235926001600160a01b03928316929190602090829081865afa9081156107f657927fffdfcd8eae5905cc8c33f87cb13a5df06766499318d99a5fcd3e5fa60fe74a2395926107c3926020969589916107d9575b501633149081156107cf57506120e3565b8160035551908152a180f35b9050331438610678565b6107f09150873d891161072b5761071d81836120a2565b386107b2565b85513d88823e3d90fd5b50503461025557816003193601126102555760209061ffff600b54169051908152f35b9050346105ef57826003193601126105ef576007548251638da5cb5b60e01b81526001600160a01b0391821692602090829081865afa9081156108cf579261089894926108849260ff9588916108b657501633149081156107cf57506120e3565b61088c612478565b600d54901c1615612327565b6108a1476126f6565b6001600080516020612c498339815191525580f35b6107f0915060203d60201161072b5761071d81836120a2565b84513d87823e3d90fd5b50503461025557816003193601126102555760075490516001600160a01b039091168152602090f35b5050346102555781600319360112610255576020906002549051908152f35b9050346105ef5760203660031901126105ef5780359067ffffffffffffffff82168092036109e0576007548351638da5cb5b60e01b81526001600160a01b0391821692602090829081865afa9081156107f657927ef6cd547296c70c9cab792bbd7b7bab0c7107640a3f5a6e3c7041e2451d8be195926109b6926020969589916107d957501633149081156107cf57506120e3565b81600d546109c960ff82851c1615612327565b67ffffffffffffffff191617600d5551908152a180f35b8380fd5b50503461025557816003193601126102555760209067ffffffffffffffff600d54169051908152f35b9050826003193601126105ef57610a22612478565b610a2a6124e1565b600d5490610a3d60ff83851c1615612327565b610a5b67ffffffffffffffff60ff8460481c169361038285156121ec565b3415610ed357610a6f60ff6009541661222c565b610a79344761216d565b60035410610e7657612710610a9361ffff83541634612144565b0490610a9f823461217a565b91600a54926002548015600014610d7c5750600154908115610d505790670de0b6b3a7640000610acf9202612124565b925b8315610d1957865486516370a0823160e01b815230858201526020966001600160a01b03939284169291908882602481875afa918215610d0f578b92610cdb575b5015610cd25789905b610b25888361216d565b11610ca457610b40610b37888461216d565b9160085461217a565b10610c6d57875163a9059cbb60e01b815233868201908152602081018890528a959493919291899184919082908990829060400103925af1908115610c6357610b90928892610c46575b5061216d565b600a5581610c25575b50505050825190348252828201527fa9a40dec7a304e5915d11358b968c1e8d365992abf20f82285d1df1b30c8e24c833392a2476003541115610bed575b826001600080516020612c498339815191525580f35b7fc1b6170c1a12e8e6e16ac11093d782c998b06d4fb9ecda78f4eba96d24aaa9f391479051908152a1610c1e61262c565b3880610bd7565b8280928192610c3d965460101c165af16104bf6122a2565b38848180610b99565b610c5c908a3d8c116105a65761059781836120a2565b5038610b8a565b89513d87823e3d90fd5b875162461bcd60e51b815280860188905260116024820152704578636565647320617661696c61626c6560781b6044820152606490fd5b885162461bcd60e51b8152808701899052600860248201526714dbdb19081bdd5d60c21b6044820152606490fd5b600c5490610b1b565b9091508881813d8311610d08575b610cf381836120a2565b81010312610d0357519038610b12565b600080fd5b503d610ce9565b8a513d8d823e3d90fd5b855162461bcd60e51b8152602081850152601160248201527021b0b631bab630ba34b7b71032b93937b960791b6044820152606490fd5b865162461bcd60e51b8152602081860152600660248201526504261642070360d41b6044820152606490fd5b610d966001546102f7670de0b6b3a7640000880484612144565b6001600160ff1b0392600182901b9184811603610e6357610db78280612144565b906001600160fd1b0384168403610e5057610de1916102f7610ddc928660031b612144565b61250c565b818110610e225790610df29161217a565b9181168103610e0f5790610e099160011b90612124565b92610ad1565b634e487b7160e01b885260118452602488fd5b885162461bcd60e51b8152602081880152600860248201526726b0ba341032b93960c11b6044820152606490fd5b634e487b7160e01b8b526011875260248bfd5b634e487b7160e01b8a526011865260248afd5b608490602084519162461bcd60e51b8352820152603160248201527f45786365656473206c6971756964697479207468726573686f6c64202d2070756044820152701c98da185cd9481c995cdd1c9a58dd1959607a1b6064820152fd5b606490602084519162461bcd60e51b835282015260126024820152714d7573742070617920736f6d657468696e6760701b6044820152fd5b8391503461025557602090816003193601126105ef57610f29612067565b6007548551638da5cb5b60e01b81526001600160a01b03918216919085818681865afa9081156107325790610f729392918891611017575b5016331490811561100d57506120e3565b61ffff8116916103e88311610fca5750937f26814d27a75a41026ede1aa0cf91361205c72a29fece68c99773ed5db1e6992693946005549061ffff60a01b9060a01b169061ffff60a01b19161760055551908152a180f35b855162461bcd60e51b8152908101849052601f60248201527f4c6971756964697479206665652063616e6e6f742065786365656420313025006044820152606490fd5b9050331487610678565b61102e9150873d891161072b5761071d81836120a2565b89610f61565b505034610255578160031936011261025557602090600c549051908152f35b9050346105ef57826003193601126105ef576009549060ff82166111bc5783548351638da5cb5b60e01b81526001600160a01b0391821693916020828581885afa9182156111b2578792611191575b503091160361114e5760ff191660011760095560085484929190823b156109e05784516340c10f1960e01b815230928101928352602083019190915291839183919082908490829060400103925af180156111415761112d575b507f325346a443e76d906638205113ba2a0a570c592d6700780ca605c087616abc726020836008549051908152a180f35b61113690612078565b6102555781386110fc565b50505051903d90823e3d90fd5b835162461bcd60e51b8152602081840152601860248201527f546f6b656e206e6f74206f776e656420627920637572766500000000000000006044820152606490fd5b6111ab91925060203d60201161072b5761071d81836120a2565b90386110a2565b86513d89823e3d90fd5b606490602084519162461bcd60e51b8352820152600e60248201526d105b1c9958591e481cd95959195960921b6044820152fd5b505034610255578160031936011261025557600080516020612c098339815191525490516001600160a01b039091168152602090f35b5050346102555760203660031901126102555760209160ff9082906001600160a01b03611251612051565b168152600e855220541690519015158152f35b9050346105ef57826003193601126105ef576007548251638da5cb5b60e01b81526001600160a01b0391821692602090829081865afa9081156108cf57927f62e78cea01bee320cd4e420270b5ea74000d11b0c9f74754ebdbfc544b05a25894926112e392602095889161131e57501633149081156107cf57506120e3565b6112f460ff600d54831c1615612327565b6112fc6124e1565b600080516020612c29833981519152805460ff1916600117905551338152a180f35b6107f09150863d881161072b5761071d81836120a2565b8391503461025557602090816003193601126105ef57611353612051565b6007548551638da5cb5b60e01b81526001600160a01b03929183169085818681855afa9081156107325761139b92918591899161070557501633149081156106fb57506120e3565b169081156113e357507f8d011499a9a0b5faca0fae805140d543ded6d5423a27a12d5d6e36abef775ac49293816001600160601b0360a01b600654161760065551908152a180f35b845162461bcd60e51b8152908101839052601960248201527f496e76616c696420726563697069656e742061646472657373000000000000006044820152606490fd5b50503461025557816003193601126102555760209061ffff60055460a01c169051908152f35b839150346102555781600319360112610255576007548351638da5cb5b60e01b81526001600160a01b0394918516906020818581855afa9081156115ed576114a99291879187916115ce575b501633149081156115c457506120e3565b600d549360ff85831c1661158f57600160401b856114ce60ff879860481c16156121ec565b68ff0000000000000000191617600d556114e66124e1565b600080516020612c29833981519152600160ff198254161790557f62e78cea01bee320cd4e420270b5ea74000d11b0c9f74754ebdbfc544b05a25860208351338152a1835416803b1561158a57839283925180948193638456cb5960e01b83525af1611576575b50337f2bb0c8f95b782c7d886b752278cc521ffa38550690cdbd399395e640ee967fb08280a280f35b61157f90612078565b61028657808261154d565b505050fd5b815162461bcd60e51b8152602081850152600f60248201526e105b1c9958591e48195b98589b1959608a1b6044820152606490fd5b9050331486610678565b6115e7915060203d60201161072b5761071d81836120a2565b88611498565b83513d87823e3d90fd5b83346102865780600319360112610286576116106124a8565b600080516020612c0983398151915280546001600160a01b031981169091556000906001600160a01b03167f8be0079c531659141344cd1fd0a4f28419497f9722a3daafe3b4186f6b6457e08280a380f35b5050346102555781600319360112610255576020906003549051908152f35b8284346102865780600319360112610286575061ffff60209254169051908152f35b50503461025557816003193601126102555760209060ff600080516020612c29833981519152541690519015158152f35b9050346105ef57826003193601126105ef5754905160109190911c6001600160a01b0316815260209150f35b9050346105ef57826003193601126105ef576007548251638da5cb5b60e01b8152906001600160a01b03908116906020838581855afa80156107f6576117579387916108b657501633149081156107cf57506120e3565b61176860ff600d54841c1615612327565b600080516020612c298339815191529081549060ff8216156117b8575060ff19169055513381527f5db9ee0a495bf2e6ff9c91a7834c1ba4fdd244a5e8aa4e537bd38aeae4b073aa90602090a180f35b8351638dfc202b60e01b8152fd5b9050346105ef5760203660031901126105ef576117e1612051565b6007548351638da5cb5b60e01b81526001600160a01b039492939185169291602090829081865afa91821561186b575061182f9291859187916108b657501633149081156107cf57506120e3565b16806001600160601b0360a01b60055416176005557f3d34cc8a188b0116ebbbbab43310493807ae037bdab3d6746427d0e815dce3e08280a280f35b513d87823e3d90fd5b505034610255578160031936011261025557905490516001600160a01b039091168152602090f35b50503461025557816003193601126102555760055490516001600160a01b039091168152602090f35b50503461025557816003193601126102555760209060ff6009541690519015158152f35b919050346105ef5760203660031901126105ef57813591611908612478565b600d5460ff81841c1615611afe5760ff6119269160481c16156121ec565b8215611ad15761193a60ff6009541661222c565b600a5461194984821015612265565b845485906001600160a01b0316803b1561025557845163079cc67960e41b815233858201908152602081018890529091839183919082908490829060400103925af18015611ac757611aaf575b505060025480611a595750670de0b6b3a76400006119b685600154612144565b04915b824710611a215750906119fc847f2dc8e290002f06fc0085bbca9dfb8b415cf4d1178950c72ff9ee8f4d8878ee6694936104808880808088335af161047a6122a2565b600a55815193845260208401523392a26001600080516020612c498339815191525580f35b606490602085519162461bcd60e51b83528201526012602482015271496e73756666696369656e742066756e647360701b6044820152fd5b611a86600154610523670de0b6b3a7640000936105108961051d6105166104fb89808c0494048098612144565b818102918183041490151715611a9c57916119b9565b634e487b7160e01b865260118352602486fd5b611ab890612078565b611ac3578438611996565b8480fd5b85513d84823e3d90fd5b6020606492519162461bcd60e51b835282015260086024820152670416d6f756e743d360c41b6044820152fd5b506020606492519162461bcd60e51b83528201526009602482015268139bc81c99599d5b9960ba1b6044820152fd5b5050346102555781600319360112610255576020906001549051908152f35b9050346105ef576101403660031901126105ef57611b68612051565b6001600160a01b0391602435908382168203611eda5760a4359361ffff8516809503611ed65760c435918183168303611ed25760e43592828416809403611ece576101243596838816809803611eca577ff0c57e16840df040f15088dc2f81fe391c3923bec73e23a9662efc9c229c6a009788549760ff898c1c16159767ffffffffffffffff8a16998a1580611ec3575b6001809c149081611eb9575b159081611eb0575b50611ea057928787938f9796956020948f8f928f611c4b9467ffffffffffffffff198316178355611e80575b5050611c43612bc7565b61027e612bc7565b611c53612bc7565b611c5b612bc7565b8c600080516020612c4983398151915255611c74612bc7565b16946001600160601b0360a01b9486868954161788556044358d5560643560025560843560035584549069ffffffffffffffffffff60b01b809362010000600160b01b039060101b1692161717845589600554916101043560085583876007541617600755604b60a21b921617176005558c5192838092638da5cb5b60e01b82525afa8015611e765786918591611e57575b50169060065416176006556107d061ffff19600b541617600b556aa56fa5b99019a5c8000000600c55803b1561025557819060248a518094819363c22dc7e760e01b83528b888401525af1611e40575b50908792918184541691823b15611ac357848080899560448d518094819363bb4628d160e01b9a8b8452308b85015260248401525af1611e2c575b505083611de7575b5050505050611da6578380f35b7fc7f505b2f371ae2175ee4913f4499e1f2633a7b5936321eed1cdaeb6115181d29260209268ff000000000000000019815416905551908152a13880808380f35b845416803b15611ac3578492836044928b51968795869485528401528960248401525af1611e18575b808080611d99565b611e2190612078565b611ac3578438611e10565b611e3590612078565b611ac3578438611d91565b611e4e909891939298612078565b96909138611d56565b611e70915060203d60201161072b5761071d81836120a2565b38611d06565b8b513d86823e3d90fd5b68ffffffffffffffffff1916680100000000000000011790558f38611c39565b8c5163f92ee8a960e01b81528790fd5b90501538611c0d565b303b159150611c05565b5089611bf9565b8980fd5b8880fd5b8780fd5b8680fd5b8580fd5b50503461025557816003193601126102555760209060ff600d5460481c1690519015158152f35b82843461028657602036600319011261028657506102fd60209235612187565b505034610255578160031936011261025557602090600a549051908152f35b915091346109e057806003193601126109e057611f5f612051565b9060243591821515809303611eda57600754638da5cb5b60e01b85526020946001600160a01b03929183169086818981855afa90811561204757611fb7929185918b9161203057501633149081156107cf57506120e3565b169384156120035750907fbd32e1e1567f9829f1feb1a1ed82721ae3d1492ea1c4de614ddd34e717880e919291848652600e835280862060ff1981541660ff841617905551908152a280f35b83606492519162461bcd60e51b835282015260096024820152682d32b9379030b2323960b91b6044820152fd5b6107f09150893d8b1161072b5761071d81836120a2565b85513d8b823e3d90fd5b600435906001600160a01b0382168203610d0357565b6004359061ffff82168203610d0357565b67ffffffffffffffff811161208c57604052565b634e487b7160e01b600052604160045260246000fd5b90601f8019910116810190811067ffffffffffffffff82111761208c57604052565b90816020910312610d0357516001600160a01b0381168103610d035790565b156120ea57565b60405162461bcd60e51b815260206004820152601260248201527127b7363c903330b1ba37b93c9037bbb732b960711b6044820152606490fd5b811561212e570490565b634e487b7160e01b600052601260045260246000fd5b8181029291811591840414171561215757565b634e487b7160e01b600052601160045260246000fd5b9190820180921161215757565b9190820391821161215757565b600254806121a957506121a5670de0b6b3a764000091600154612144565b0490565b6121d99061052360015491610510670de0b6b3a76400009561051d6105166104fb8980600a540494048098612144565b8181029181830414901517156121575790565b156121f357565b60405162461bcd60e51b8152602060048201526011602482015270131a5c5d5a591a5d1e4818dc99585d1959607a1b6044820152606490fd5b1561223357565b60405162461bcd60e51b815260206004820152600a602482015269139bdd081cd95959195960b21b6044820152606490fd5b1561226c57565b60405162461bcd60e51b815260206004820152600e60248201526d125b9d985b1a5908185b5bdd5b9d60921b6044820152606490fd5b3d156122dd573d9067ffffffffffffffff821161208c57604051916122d1601f8201601f1916602001846120a2565b82523d6000602084013e565b606090565b156122e957565b60405162461bcd60e51b81526020600482015260166024820152751499599d5b99081d1c985b9cd9995c8819985a5b195960521b6044820152606490fd5b1561232e57565b60405162461bcd60e51b815260206004820152600b60248201526a526566756e64206d6f646560a81b6044820152606490fd5b1561236857565b60405162461bcd60e51b815260206004820152601060248201526f14d85b19481b9bdd081cdd185c9d195960821b6044820152606490fd5b90816020910312610d0357518015158103610d035790565b156123bf57565b60405162461bcd60e51b815260206004820152601c60248201527f506c6174666f726d20666565207472616e73666572206661696c6564000000006044820152606490fd5b6001600160a01b0390811690811561245f57600080516020612c0983398151915280546001600160a01b031981168417909155167f8be0079c531659141344cd1fd0a4f28419497f9722a3daafe3b4186f6b6457e0600080a3565b604051631e4fbdf760e01b815260006004820152602490fd5b600080516020612c4983398151915260028154146124965760029055565b604051633ee5aeb560e01b8152600490fd5b600080516020612c09833981519152546001600160a01b031633036124c957565b60405163118cdaa760e01b8152336004820152602490fd5b60ff600080516020612c2983398151915254166124fa57565b60405163d93c066560e01b8152600490fd5b600180821115612628576125c9908083600160801b811015612616575b80600160401b6004921015612609575b6401000000008110156125fc575b620100008110156125ef575b6101008110156125e3575b60108110156125d7575b10156125d0575b600302811c61257e8185612124565b01811c61258b8185612124565b01811c6125988185612124565b01811c6125a58185612124565b01811c6125b28185612124565b01811c6125bf8185612124565b01901c8092612124565b8111900390565b811b61256f565b811c9160021b91612568565b60081c91811b9161255e565b60101c9160081b91612553565b60201c9160101b91612547565b60401c9160201b91612539565b50600160401b9050608084901c612529565b5090565b600d5460ff8160401c161590816126e7575b50806126d3575b61264b57565b600c5480156126b557600154670de0b6b3a76400009081810291818304149015171561215757612684906102f7600254600a5490612144565b9081156126cf576ec097ce7bc90715b34b9f1000000000916126a591612144565b0480471015806126c3575b6126b8575b50565b6126c1906126f6565b565b504760035411156126b0565b5050565b506005546001600160a01b03161515612645565b60ff915060481c16153861263e565b600d5460009160409161270e60ff82851c1615612327565b61271e60ff8260481c16156121ec565b600554916001600160a01b03918284168015612b9657855194858092638da5cb5b60e01b825260209384916004998a915afa908115612b8c578991612b6f575b508530911603612b3857600a5493600154670de0b6b3a76400009586820291808304881490151715612af657906102f761279a92600254612144565b948515612b0957808202828104821483151715612af6576ec097ce7bc90715b34b9f1000000000809302918183041490151715612ae357856127db91612124565b948515612aaf57602484888c54168b51928380926370a0823160e01b82528d30908301525afa908115610d0f578b91612a7e575b50868110612a74575b506128239086612144565b049284151580612a6b575b15612a2f5761271061286861ffff8b9469010000000000000000006128709569ff000000000000000000191617600d5560a01c1686612144565b04809461217a565b92806129c3575b5050600c548015158185826129b8575b50506129b0575b508654600554875163a9059cbb60e01b81529086166001600160a01b03168782019081526020810186905290918391839188169082908c90829060400103925af180156129a657612988575b50508260055416908387541690823b15611ed25786516256688760e81b81526001600160a01b03929092168683019081526020810194909452909287928492918390036040019183915af180156108cf57612975575b5083600c5583541691823b156109e0576024849283809351958694859363c22dc7e760e01b85528401525af1612964575050565b61296e8291612078565b6102865750565b61298190949194612078565b9238612930565b8161299e92903d106105a65761059781836120a2565b5038806128da565b87513d8a823e3d90fd5b92503861288e565b101590508138612887565b8180809288600654165af16129d66122a2565b50156129e3578638612877565b8460849187519162461bcd60e51b8352820152602160248201527f466163746f7279206f776e657220666565207472616e73666572206661696c656044820152601960fa1b6064820152fd5b875162461bcd60e51b81528088018490526016602482015275496e73756666696369656e7420696e76656e746f727960501b6044820152606490fd5b5083151561282e565b9550612823612818565b90508481813d8311612aa8575b612a9581836120a2565b81010312612aa457513861280f565b8a80fd5b503d612a8b565b885162461bcd60e51b8152808901859052600e60248201526d0a8dede40d8d2e8e8d8ca408aa8960931b6044820152606490fd5b634e487b7160e01b8a526011885260248afd5b634e487b7160e01b8b526011895260248bfd5b885162461bcd60e51b8152808901859052600960248201526842616420707269636560b81b6044820152606490fd5b865162461bcd60e51b8152808701839052601160248201527013585b9859d95c881b9bdd081bdddb9959607a1b6044820152606490fd5b612b869150833d851161072b5761071d81836120a2565b3861275e565b88513d8b823e3d90fd5b855162461bcd60e51b815260206004820152600a60248201526927379036b0b730b3b2b960b11b6044820152606490fd5b60ff7ff0c57e16840df040f15088dc2f81fe391c3923bec73e23a9662efc9c229c6a005460401c1615612bf657565b604051631afcd79f60e31b8152600490fdfe9016d09d72d40fdae2fd8ceac6b6234c7706214fd39c1cd1e609a0528c199300cd5ed15c6e187e77e9aee88184c21f4f2182ab5827cb3b7e07fbedcd63f033009b779b17422d0df92223018b32b4d1fa46e071723d6817e2486d003becc55f00a2646970667358221220bac71368e05887f4bf31501129bf0f76a3a9d75a756d094f93218b92f5fb415664736f6c6343000818003360a0346100de57601f61051938819003918201601f19168301916001600160401b038311848410176100e35780849260409485528339810103126100de576020610048826100f9565b916001600160a01b0391829161005e91016100f9565b169182156100c557600080546001600160a01b03198116851782556040519491908416907f8be0079c531659141344cd1fd0a4f28419497f9722a3daafe3b4186f6b6457e09080a31660805261040b908161010e823960805181818160f601526101ed0152f35b604051631e4fbdf760e01b815260006004820152602490fd5b600080fd5b634e487b7160e01b600052604160045260246000fd5b51906001600160a01b03821682036100de5756fe6040608081526004908136101561001557600080fd5b600091823560e01c806356688700146101ae578063715018a6146101515780638da5cb5b14610129578063c21ebd07146100e15763f2fde38b1461005857600080fd5b346100dd5760203660031901126100dd57610071610356565b9061007a6103a9565b6001600160a01b039182169283156100c757505082546001600160a01b0319811683178455167f8be0079c531659141344cd1fd0a4f28419497f9722a3daafe3b4186f6b6457e08380a380f35b51631e4fbdf760e01b8152908101849052602490fd5b8280fd5b505034610125578160031936011261012557517f00000000000000000000000000000000000000000000000000000000000000006001600160a01b03168152602090f35b5080fd5b505034610125578160031936011261012557905490516001600160a01b039091168152602090f35b83346101ab57806003193601126101ab5761016a6103a9565b80546001600160a01b03198116825581906001600160a01b03167f8be0079c531659141344cd1fd0a4f28419497f9722a3daafe3b4186f6b6457e08280a380f35b80fd5b50919080600319360112610125576101c4610356565b90602435916101d16103a9565b341561032057815163095ea7b360e01b81526001600160a01b037f000000000000000000000000000000000000000000000000000000000000000081168783018190526024830186905292811692916020816044818a885af18015610316576102d6575b508554166103844201908142116102c3576060939260c49289928751988996879563f305d71960e01b87528601526024850152896044850152896064850152608484015260a483015234905af19081156102ba5750610292575080f35b606090813d83116102b3575b6102a88183610371565b810103126101ab5780f35b503d61029e565b513d84823e3d90fd5b634e487b7160e01b875260118852602487fd5b6020813d60201161030e575b816102ef60209383610371565b8101031261030a5751801515036103065738610235565b8580fd5b8680fd5b3d91506102e2565b85513d89823e3d90fd5b815162461bcd60e51b8152602081870152601060248201526f09aeae6e840e0e4deecd2c8ca408aa8960831b6044820152606490fd5b600435906001600160a01b038216820361036c57565b600080fd5b90601f8019910116810190811067ffffffffffffffff82111761039357604052565b634e487b7160e01b600052604160045260246000fd5b6000546001600160a01b031633036103bd57565b60405163118cdaa760e01b8152336004820152602490fdfea2646970667358221220cde6ebdf420a80660cbb98bbfae88efa060f1d80365ef66bfc6a417c34547f5264736f6c63430008180033801b50b59a9c797b08c62fe4c8bee1aff31ff3246d488e359cedfc8e75ffd05fa2646970667358221220a11089940c2c542035f8588e02deb3123a58fb757e3f7dc7a9eff75904c7f19864736f6c63430008180033608080604052346100b8577ff0c57e16840df040f15088dc2f81fe391c3923bec73e23a9662efc9c229c6a009081549060ff8260401c166100a957506001600160401b036002600160401b031982821601610064575b60405161226090816100be8239f35b6001600160401b031990911681179091556040519081527fc7f505b2f371ae2175ee4913f4499e1f2633a7b5936321eed1cdaeb6115181d290602090a1388080610055565b63f92ee8a960e01b8152600490fd5b600080fdfe608080604052600436101561001357600080fd5b60003560e01c908163023b1fc91461146d5750806306fdde03146113c9578063095ea7b31461131657806318160ddd146112eb57806323b872dd146112b357806324a9d85314611291578063313ce567146112755780633f4218e0146112365780633f4ba83a1461117d57806340c10f19146110bf57806342966c68146110a257806343ff1fb814610ff35780634690484014610fc65780635a5c1823146109a65780635c975abb1461097657806370a082311461092f578063715018a6146108c5578063751fd179146107e757806379cc6790146107b75780638423df79146107945780638456cb59146106c15780638da5cb5b1461068b57806395d89b41146105a9578063a9059cbb14610578578063bb4628d11461048f578063c22dc7e7146103ea578063c45a0155146103c1578063cee7980c14610382578063dd62ed3e14610339578063e74b981b14610200578063eff1d50e146101d7578063f2fde38b146101ac5763fccc28131461018a57600080fd5b346101a75760003660031901126101a757602060405161dead8152f35b600080fd5b346101a75760203660031901126101a7576101d56101c86115fb565b6101d0611909565b611782565b005b346101a75760003660031901126101a7576005546040516001600160a01b039091168152602090f35b346101a7576020806003193601126101a75761021a6115fb565b9060018060a01b03806004541660405190638da5cb5b60e01b82528382600481845afa91821561032d57610264928491600091610300575b501633149081156102f6575b50611707565b821680156102bf576000805462010000600160b01b03191660109490941b62010000600160b01b0316939093179092556040519182527f167cccccc6e9b2892a740ec13fc1e51d3de8ea384f25bd87fee7412d588637e291a1005b60405162461bcd60e51b815260048101839052600f60248201526e496e76616c6964206164647265737360881b6044820152606490fd5b905033148561025e565b6103209150863d8811610326575b6103188183611660565b8101906116e8565b87610252565b503d61030e565b6040513d6000823e3d90fd5b346101a75760403660031901126101a7576103526115fb565b61036361035d611611565b91611627565b9060018060a01b03166000526020526020604060002054604051908152f35b346101a75760203660031901126101a7576001600160a01b036103a36115fb565b166000526003602052602060ff604060002054166040519015158152f35b346101a75760003660031901126101a7576004546040516001600160a01b039091168152602090f35b346101a75760203660031901126101a7576004358015158091036101a75760048054604051638da5cb5b60e01b81526001600160a01b039391841692602090829081865afa92831561032d577f58d55705c6f0421e19500567e258f86b7da5cd924a6a9d7d759f82ff2ad413b7946020946104779360009161030057501633149081156102f65750611707565b60ff196002541660ff821617600255604051908152a1005b346101a75760403660031901126101a7576104a86115fb565b6104b06116d9565b60048054604051638da5cb5b60e01b815292936001600160a01b039182169392602090849081875afa801561032d577f984e1b4f4af5d0948a5ddaad4cfd8980aeb249aac7f9d2e574dacffd7c51a44c94836105229260209660009161055b575b501633149081156105515750611707565b169283600052600382526105468160406000209060ff801983541691151516179055565b6040519015158152a2005b905033148761025e565b6105729150873d8911610326576103188183611660565b89610511565b346101a75760403660031901126101a75761059e6105946115fb565b60243590336118cc565b602060405160018152f35b346101a75760003660031901126101a757604051600060008051602061214b8339815191528054906105da82611748565b8085529160209160019182811690811561065e5750600114610617575b6106138661060781880382611660565b604051918291826115b2565b0390f35b600090815293506000805160206121eb8339815191525b83851061064b5750505050810160200161060782610613856105f7565b805486860184015293820193810161062e565b90508695506106139693506020925061060794915060ff191682840152151560051b8201019293856105f7565b346101a75760003660031901126101a75760008051602061216b833981519152546040516001600160a01b039091168152602090f35b346101a75760003660031901126101a75760048054604051638da5cb5b60e01b8152916001600160a01b039182169190602090849081855afa801561032d5761071d93600091610775575b5016331490811561076b5750611707565b610725611dec565b6000805160206121cb833981519152600160ff198254161790557f62e78cea01bee320cd4e420270b5ea74000d11b0c9f74754ebdbfc544b05a2586020604051338152a1005b905033148261025e565b61078e915060203d602011610326576103188183611660565b8461070c565b346101a75760003660031901126101a757602060ff600254166040519015158152f35b346101a75760403660031901126101a7576101d56107d36115fb565b602435906107e28233836117f6565b611942565b346101a75760403660031901126101a7576108006115fb565b6108086116d9565b60048054604051638da5cb5b60e01b81526001600160a01b0391821694909392602090859081885afa801561032d577f9f1eaee9ad9cb68284f0dc523aa42c465ed33b53f8da7fc7294ccea47358bbdf9583610879926040976000916108ac57501633149081156105515750611707565b169081600052600160205261089d81846000209060ff801983541691151516179055565b825191825215156020820152a1005b610572915060203d602011610326576103188183611660565b346101a75760003660031901126101a7576108de611909565b60008051602061216b83398151915280546001600160a01b031981169091556000906001600160a01b03167f8be0079c531659141344cd1fd0a4f28419497f9722a3daafe3b4186f6b6457e08280a3005b346101a75760203660031901126101a7576001600160a01b036109506115fb565b1660005260008051602061212b8339815191526020526020604060002054604051908152f35b346101a75760003660031901126101a757602060ff6000805160206121cb83398151915254166040519015158152f35b346101a75760a03660031901126101a75760043567ffffffffffffffff81116101a7576109d7903690600401611682565b60243567ffffffffffffffff81116101a7576109f7903690600401611682565b906001600160a01b0360443580821690036101a75760643581811681036101a7576084359361ffff851685036101a75760008051602061220b833981519152549367ffffffffffffffff851680159081610fb6575b6001149081610fac575b159081610fa3575b50610f9157600167ffffffffffffffff1986161760008051602061220b8339815191525560ff8560401c1615610f64575b610a97611dbd565b610a9f611dbd565b80519067ffffffffffffffff8211610e30578190610acb60008051602061210b83398151915254611748565b601f8111610ee3575b50602090601f8311600114610e5157600092610e46575b50508160011b916000199060031b1c19161760008051602061210b833981519152555b80519067ffffffffffffffff8211610e30578190610b3a60008051602061214b83398151915254611748565b601f8111610dac575b50602090601f8311600114610d1e57600092610d13575b50508160011b916000199060031b1c19161760008051602061214b833981519152555b610b85611dbd565b610b8d611dbd565b610b98604435611782565b610ba0611dbd565b816bffffffffffffffffffffffff60a01b9116816004541617600455600054908260443516906005541617600555606461ffff8516101580610d03575b15610cbe5761ffff60ff94169062010000600160b01b0360443560101b169069ffffffffffffffffffff60b01b161717600055604435166000526001602052604060002082199060018282541617905530600052604060002060018282541617905561dead60005260406000206001828254161790556002541660025560401c1615610c6557005b68ff00000000000000001960008051602061220b833981519152541660008051602061220b833981519152557fc7f505b2f371ae2175ee4913f4499e1f2633a7b5936321eed1cdaeb6115181d2602060405160018152a1005b60405162461bcd60e51b815260206004820152601f60248201527f466565206d757374206265203130302d33303020627073202831252d332529006044820152606490fd5b5061012c61ffff85161115610bdd565b015190508680610b5a565b60008051602061214b83398151915260009081526000805160206121eb8339815191529350601f198516905b818110610d945750908460019594939210610d7b575b505050811b0160008051602061214b83398151915255610b7d565b015160001960f88460031b161c19169055868080610d60565b92936020600181928786015181550195019301610d4a565b90915060008051602061214b833981519152600052601f830160051c6000805160206121eb833981519152019060208410610e1a575b90601f8493920160051c6000805160206121eb83398151915201905b818110610e0b5750610b43565b60008155849350600101610dfe565b6000805160206121eb8339815191529150610de2565b634e487b7160e01b600052604160045260246000fd5b015190508780610aeb565b925060008051602061210b8339815191526000526000805160206120eb833981519152906000935b601f1984168510610ec8576001945083601f19811610610eaf575b505050811b0160008051602061210b83398151915255610b0e565b015160001960f88460031b161c19169055878080610e94565b81810151835560209485019460019093019290910190610e79565b90915060008051602061210b833981519152600052601f830160051c6000805160206120eb8339815191520160208410610f4f575b908392915b601f820160051c6000805160206120eb833981519152018110610f405750610ad4565b60008155849350600101610f1d565b506000805160206120eb833981519152610f18565b68ffffffffffffffffff198516680100000000000000011760008051602061220b83398151915255610a8f565b60405163f92ee8a960e01b8152600490fd5b90501587610a5e565b303b159150610a56565b604087901c60ff16159150610a4c565b346101a75760003660031901126101a75760005460405160109190911c6001600160a01b03168152602090f35b346101a75760203660031901126101a75761100c6115fb565b60048054604051638da5cb5b60e01b81526001600160a01b0393929091841690602090839081845afa91821561032d5761105b928591600091611083575b501633149081156110795750611707565b166bffffffffffffffffffffffff60a01b6005541617600555600080f35b905033148461025e565b61109c915060203d602011610326576103188183611660565b8661104a565b346101a75760203660031901126101a7576101d560043533611942565b346101a75760403660031901126101a7576110d86115fb565b602435906110e4611909565b6001600160a01b03169081156111645760008051602061218b83398151915280549082820180921161114e576000926000805160206121ab833981519152926020925584845260008051602061212b833981519152825260408420818154019055604051908152a3005b634e487b7160e01b600052601160045260246000fd5b60405163ec442f0560e01b815260006004820152602490fd5b346101a75760003660031901126101a75760048054604051638da5cb5b60e01b8152916001600160a01b039182169190602090849081855afa801561032d576111d893600091610775575016331490811561076b5750611707565b6000805160206121cb833981519152805460ff8116156112245760ff191690557f5db9ee0a495bf2e6ff9c91a7834c1ba4fdd244a5e8aa4e537bd38aeae4b073aa6020604051338152a1005b604051638dfc202b60e01b8152600490fd5b346101a75760203660031901126101a7576001600160a01b036112576115fb565b166000526001602052602060ff604060002054166040519015158152f35b346101a75760003660031901126101a757602060405160128152f35b346101a75760003660031901126101a757602061ffff60005416604051908152f35b346101a75760603660031901126101a75761059e6112cf6115fb565b6112d7611611565b604435916112e68333836117f6565b6118cc565b346101a75760003660031901126101a757602060008051602061218b83398151915254604051908152f35b346101a75760403660031901126101a75761132f6115fb565b6024359033156113b0576001600160a01b03169081156113975761135233611627565b82600052602052806040600020556040519081527f8c5be1e5ebec7d5bd14f71427d1e84f3dd0314c0f7b2291e5b200ac8c7c3b92560203392a3602060405160018152f35b604051634a1406b160e11b815260006004820152602490fd5b60405163e602df0560e01b815260006004820152602490fd5b346101a75760003660031901126101a757604051600060008051602061210b8339815191528054906113fa82611748565b8085529160209160019182811690811561065e5750600114611426576106138661060781880382611660565b600090815293506000805160206120eb8339815191525b83851061145a5750505050810160200161060782610613856105f7565b805486860184015293820193810161143d565b346101a7576020806003193601126101a7576004359161ffff83168093036101a75760048054638da5cb5b60e01b83526001600160a01b03908116918490849081855afa801561032d576114d39360009161159b57501633149081156110795750611707565b606482106115575761012c821161151c57817fdc6955ea20a55f86ea1771707139f41c9203dc8e859a084e1cc80d6902417cff9261ffff196000541617600055604051908152a1005b6064906040519062461bcd60e51b8252600482015260146024820152734665652063616e6e6f742065786365656420332560601b6044820152fd5b6064906040519062461bcd60e51b82526004820152601a60248201527f4665652063616e6e6f74206265206c657373207468616e2031250000000000006044820152fd5b61109c9150853d8711610326576103188183611660565b6020808252825181830181905290939260005b8281106115e757505060409293506000838284010152601f8019910116010190565b8181018601518482016040015285016115c5565b600435906001600160a01b03821682036101a757565b602435906001600160a01b03821682036101a757565b6001600160a01b031660009081527f52c63247e1f47db19d5ce0460030c497f067ca4cebf71ba98eeadabe20bace016020526040902090565b90601f8019910116810190811067ffffffffffffffff821117610e3057604052565b81601f820112156101a75780359067ffffffffffffffff8211610e3057604051926116b7601f8401601f191660200185611660565b828452602083830101116101a757816000926020809301838601378301015290565b6024359081151582036101a757565b908160209103126101a757516001600160a01b03811681036101a75790565b1561170e57565b60405162461bcd60e51b815260206004820152601260248201527127b7363c903330b1ba37b93c9037bbb732b960711b6044820152606490fd5b90600182811c92168015611778575b602083101461176257565b634e487b7160e01b600052602260045260246000fd5b91607f1691611757565b6001600160a01b039081169081156117dd5760008051602061216b83398151915280546001600160a01b031981168417909155167f8be0079c531659141344cd1fd0a4f28419497f9722a3daafe3b4186f6b6457e0600080a3565b604051631e4fbdf760e01b815260006004820152602490fd5b919061180183611627565b9260018060a01b0390818316916000958387526020526040862054936000198510611830575b50505050505050565b85851061189b575081161561188257811561186957906118536040949392611627565b9085526020520391205538808080808080611827565b604051634a1406b160e11b815260048101869052602490fd5b60405163e602df0560e01b815260048101869052602490fd5b604051637dc7a0d960e11b81526001600160a01b039190911660048201526024810185905260448101869052606490fd5b91906001600160a01b03808416156118f057811615611164576118ee92611be2565b565b604051634b637e8f60e11b815260006004820152602490fd5b60008051602061216b833981519152546001600160a01b0316330361192a57565b60405163118cdaa760e01b8152336004820152602490fd5b906001600160a01b038216156118f0576118ee9161197b565b8181029291811591840414171561114e57565b9190820391821161114e57565b6001600160a01b0380821692919083151580611bda575b6119a157506118ee9250611ef3565b6119a9611dec565b60ff8060025416611b26575b600684028481046006148515171561114e57620186a090049081611b17575b60009586526001602052806040872054168015611b07575b159081611af8575b81611aeb575b5015611a8a57611a2690611a21612710611a1961ffff8954168861195b565b04809661196e565b61196e565b938415611a4557611a3a6118ee9584611ef3565b5460101c1690611fd7565b60405162461bcd60e51b815260206004820152601b60248201527f416d6f756e7420746f6f20736d616c6c206166746572206665657300000000006044820152606490fd5b91935050611a979161196e565b8015611aa6576118ee91611ef3565b60405162461bcd60e51b815260206004820152601b60248201527f416d6f756e7420746f6f20736d616c6c206166746572206275726e00000000006044820152606490fd5b90506002541615386119fa565b865461ffff16151591506119f4565b50858052806040872054166119ec565b611b218285611e17565b6119d4565b60008260008051602061216b8339815191525416808714908115611bd1575b50611bc9575b801580611ba0575b611b98575b6119b55760405162461bcd60e51b8152602060048201526014602482015273151c985b9cd9995c9cc81c995cdd1c9a58dd195960621b6044820152606490fd5b506001611b58565b50856000526003602052816040600020541680611b535750600080528160406000205416611b53565b506001611b4b565b90501538611b45565b506000611992565b9091906001600160a01b0380821680151580611db2575b611c09575050916118ee92611fd7565b611c11611dec565b60ff8060025416611cf9575b600685028581046006148615171561114e57620186a090049081611cea575b60009283526001602052806040842054168015611cd8575b159081611cc9575b81611cbc575b5015611c9e57611c8990611a21612710611c8161ffff8654168961195b565b04809761196e565b948515611a45576118ee95611a3a9185611fd7565b915050611cac91939261196e565b908115611aa6576118ee92611fd7565b9050600254161538611c62565b835461ffff1615159150611c5c565b50838716835280604084205416611c54565b611cf48286611e17565b611c3c565b60008360008051602061216b8339815191525416808414908115611da6575b50611d9e575b801580611d73575b611d6b575b611c1d5760405162461bcd60e51b8152602060048201526014602482015273151c985b9cd9995c9cc81c995cdd1c9a58dd195960621b6044820152606490fd5b506001611d2b565b50826000526003602052816040600020541680611d2657508387166000528160406000205416611d26565b506001611d1e565b90508488161438611d18565b508185161515611bf9565b60ff60008051602061220b8339815191525460401c1615611dda57565b604051631afcd79f60e31b8152600490fd5b60ff6000805160206121cb8339815191525416611e0557565b60405163d93c066560e01b8152600490fd5b6001600160a01b0381169081611e84575060008051602061218b83398151915280549083820180921161114e57555b6000805160206121ab833981519152602061dead938460005260008051602061212b83398151915282526040600020818154019055604051908152a3565b8160005260008051602061212b8339815191528060205260406000205491848310611ec057509083918360005260205203604060002055611e46565b60405163391434e360e21b81526001600160a01b0391909116600482015260248101929092525060448101839052606490fd5b6001600160a01b0381169081611f56575060008051602061218b83398151915280549083820180921161114e576000936000805160206121ab83398151915292602092555b60008051602061218b833981519152818154039055604051908152a3565b92918160005260008051602061212b8339815191528060205260406000205494828610611fa65750816000805160206121ab83398151915292600095966020938688528452036040862055611f38565b60405163391434e360e21b81526001600160a01b039190911660048201526024810186905260448101839052606490fd5b6001600160a01b038082169290918361206957509060008051602061218b8339815191529081549285840180941161114e576000805160206121ab83398151915293602093555b1693846120445760008051602061218b8339815191528181540390555b604051908152a3565b8460005260008051602061212b8339815191528252604060002081815401905561203b565b8360005260008051602061212b83398151915280602052604060002054918683106120b7575091856000805160206121ab83398151915294926020948760005285520360406000205561201e565b60405163391434e360e21b81526001600160a01b0391909116600482015260248101929092525060448101859052606490fdfe2ae08a8e29253f69ac5d979a101956ab8f8d9d7ded63fa7a83b16fc47648eab052c63247e1f47db19d5ce0460030c497f067ca4cebf71ba98eeadabe20bace0352c63247e1f47db19d5ce0460030c497f067ca4cebf71ba98eeadabe20bace0052c63247e1f47db19d5ce0460030c497f067ca4cebf71ba98eeadabe20bace049016d09d72d40fdae2fd8ceac6b6234c7706214fd39c1cd1e609a0528c19930052c63247e1f47db19d5ce0460030c497f067ca4cebf71ba98eeadabe20bace02ddf252ad1be2c89b69c2b068fc378daa952ba7f163c4a11628f55a4df523b3efcd5ed15c6e187e77e9aee88184c21f4f2182ab5827cb3b7e07fbedcd63f0330046a2803e59a4de4e7a4c574b1243f25977ac4c77d5a1a4a609b5394cebb4a2aaf0c57e16840df040f15088dc2f81fe391c3923bec73e23a9662efc9c229c6a00a264697066735822122085ed5bc81612ad3c55aa36f627bf5b7d1e69c71907bb7c05366e4f9d638defd964736f6c63430008180033",
  "linkReferences": {},
  "deployedLinkReferences": {}
}