{
  "_format": "hh-sol-artifact-1",
  "contractName": "MoonExFactory",
  "sourceName": "contracts/MoonExFactory.sol",
  "abi": [
    {
      "inputs": [
        {
          "internalType": "address",
          "name": "owner",
          "type": "address"
        }
      ],
      "stateMutability": "nonpayable",
      "type": "constructor"
    },
    {
      "inputs": [],
      "name": "FailedDeployment",
      "type": "error"
    },
    {
      "inputs": [
        {
          "internalType": "uint256",
          "name": "balance",
          "type": "uint256"
        },
        {
          "internalType": "uint256",
          "name": "needed",
          "type": "uint256"
        }
      ],
      "name": "InsufficientBalance",
      "type": "error"
    },
    {
      "inputs": [
        {
          "internalType": "address",
          "name": "owner",
          "type": "address"
        }
      ],
      "name": "OwnableInvalidOwner",
      "type": "error"
    },
    {
      "inputs": [
        {
          "internalType": "address",
          "name": "account",
          "type": "address"
        }
      ],
      "name": "OwnableUnauthorizedAccount",
      "type": "error"
    },
    {
      "anonymous": false,
      "inputs": [
        {
          "indexed": true,
          "internalType": "address",
          "name": "token",
          "type": "address"
        },
        {
          "indexed": true,
          "internalType": "address",
          "name": "curve",
          "type": "address"
        },
        {
          "indexed": false,
          "internalType": "address",
          "name": "liquidityManager",
          "type": "address"
        },
        {
          "indexed": true,
          "internalType": "address",
          "name": "user",
          "type": "address"
        },
        {
          "indexed": false,
          "internalType": "string",
          "name": "name",
          "type": "string"
        },
        {
          "indexed": false,
          "internalType": "string",
          "name": "symbol",
          "type": "string"
        }
      ],
      "name": "FairLaunchDeployed",
      "type": "event"
    },
    {
      "anonymous": false,
      "inputs": [
        {
          "indexed": true,
          "internalType": "address",
          "name": "registry",
          "type": "address"
        }
      ],
      "name": "LogoRegistrySet",
      "type": "event"
    },
    {
      "anonymous": false,
      "inputs": [
        {
          "indexed": true,
          "internalType": "address",
          "name": "previousOwner",
          "type": "address"
        },
        {
          "indexed": true,
          "internalType": "address",
          "name": "newOwner",
          "type": "address"
        }
      ],
      "name": "OwnershipTransferred",
      "type": "event"
    },
    {
      "anonymous": false,
      "inputs": [
        {
          "indexed": true,
          "internalType": "address",
          "name": "tokenAddress",
          "type": "address"
        },
        {
          "indexed": true,
          "internalType": "address",
          "name": "owner",
          "type": "address"
        },
        {
          "indexed": false,
          "internalType": "string",
          "name": "name",
          "type": "string"
        },
        {
          "indexed": false,
          "internalType": "string",
          "name": "symbol",
          "type": "string"
        }
      ],
      "name": "TokenDeployed",
      "type": "event"
    },
    {
      "inputs": [
        {
          "internalType": "address",
          "name": "curve",
          "type": "address"
        }
      ],
      "name": "createCurveLiquidity",
      "outputs": [],
      "stateMutability": "nonpayable",
      "type": "function"
    },
    {
      "inputs": [
        {
          "internalType": "string",
          "name": "name",
          "type": "string"
        },
        {
          "internalType": "string",
          "name": "symbol",
          "type": "string"
        },
        {
          "internalType": "bytes32",
          "name": "salt",
          "type": "bytes32"
        },
        {
          "internalType": "string",
          "name": "logoURI",
          "type": "string"
        },
        {
          "internalType": "string",
          "name": "displayName",
          "type": "string"
        },
        {
          "internalType": "uint256",
          "name": "p0",
          "type": "uint256"
        },
        {
          "internalType": "uint256",
          "name": "k",
          "type": "uint256"
        },
        {
          "internalType": "uint256",
          "name": "lpThreshold",
          "type": "uint256"
        },
        {
          "internalType": "uint16",
          "name": "tradeFeeBps",
          "type": "uint16"
        },
        {
          "internalType": "address",
          "name": "feeRecipient",
          "type": "address"
        },
        {
          "internalType": "uint64",
          "name": "saleStart",
          "type": "uint64"
        },
        {
          "internalType": "address",
          "name": "router",
          "type": "address"
        },
        {
          "internalType": "uint256",
          "name": "maxSupply",
          "type": "uint256"
        },
        {
          "internalType": "uint16",
          "name": "tokenFeeBps",
          "type": "uint16"
        }
      ],
      "name": "deployFairLaunch",
      "outputs": [
        {
          "internalType": "address",
          "name": "token",
          "type": "address"
        },
        {
          "internalType": "address",
          "name": "curve",
          "type": "address"
        },
        {
          "internalType": "address",
          "name": "lm",
          "type": "address"
        }
      ],
      "stateMutability": "nonpayable",
      "type": "function"
    },
    {
      "inputs": [
        {
          "internalType": "string",
          "name": "name",
          "type": "string"
        },
        {
          "internalType": "string",
          "name": "symbol",
          "type": "string"
        },
        {
          "internalType": "bytes32",
          "name": "salt",
          "type": "bytes32"
        },
        {
          "internalType": "uint16",
          "name": "tokenFeeBps",
          "type": "uint16"
        }
      ],
      "name": "deployToken",
      "outputs": [],
      "stateMutability": "nonpayable",
      "type": "function"
    },
    {
      "inputs": [
        {
          "internalType": "string",
          "name": "name",
          "type": "string"
        },
        {
          "internalType": "string",
          "name": "symbol",
          "type": "string"
        },
        {
          "internalType": "bytes32",
          "name": "salt",
          "type": "bytes32"
        },
        {
          "internalType": "string",
          "name": "logoURI",
          "type": "string"
        },
        {
          "internalType": "uint16",
          "name": "tokenFeeBps",
          "type": "uint16"
        }
      ],
      "name": "deployTokenWithLogo",
      "outputs": [],
      "stateMutability": "nonpayable",
      "type": "function"
    },
    {
      "inputs": [
        {
          "internalType": "string",
          "name": "name",
          "type": "string"
        },
        {
          "internalType": "string",
          "name": "symbol",
          "type": "string"
        },
        {
          "internalType": "bytes32",
          "name": "salt",
          "type": "bytes32"
        },
        {
          "internalType": "string",
          "name": "logoURI",
          "type": "string"
        },
        {
          "internalType": "string",
          "name": "displayName",
          "type": "string"
        },
        {
          "internalType": "uint16",
          "name": "tokenFeeBps",
          "type": "uint16"
        }
      ],
      "name": "deployTokenWithMetadata",
      "outputs": [],
      "stateMutability": "nonpayable",
      "type": "function"
    },
    {
      "inputs": [
        {
          "internalType": "address",
          "name": "curve",
          "type": "address"
        }
      ],
      "name": "enableCurveRefundMode",
      "outputs": [],
      "stateMutability": "nonpayable",
      "type": "function"
    },
    {
      "inputs": [],
      "name": "metadataRegistry",
      "outputs": [
        {
          "internalType": "contract MetadataRegistry",
          "name": "",
          "type": "address"
        }
      ],
      "stateMutability": "view",
      "type": "function"
    },
    {
      "inputs": [],
      "name": "moonTokenImplementation",
      "outputs": [
        {
          "internalType": "address",
          "name": "",
          "type": "address"
        }
      ],
      "stateMutability": "view",
      "type": "function"
    },
    {
      "inputs": [],
      "name": "owner",
      "outputs": [
        {
          "internalType": "address",
          "name": "",
          "type": "address"
        }
      ],
      "stateMutability": "view",
      "type": "function"
    },
    {
      "inputs": [
        {
          "internalType": "address",
          "name": "curve",
          "type": "address"
        }
      ],
      "name": "pauseCurve",
      "outputs": [],
      "stateMutability": "nonpayable",
      "type": "function"
    },
    {
      "inputs": [
        {
          "internalType": "address",
          "name": "token",
          "type": "address"
        }
      ],
      "name": "pauseToken",
      "outputs": [],
      "stateMutability": "nonpayable",
      "type": "function"
    },
    {
      "inputs": [
        {
          "internalType": "bytes32",
          "name": "salt",
          "type": "bytes32"
        }
      ],
      "name": "predictAddress",
      "outputs": [
        {
          "internalType": "address",
          "name": "",
          "type": "address"
        }
      ],
      "stateMutability": "view",
      "type": "function"
    },
    {
      "inputs": [],
      "name": "renounceOwnership",
      "outputs": [],
      "stateMutability": "nonpayable",
      "type": "function"
    },
    {
      "inputs": [
        {
          "internalType": "address",
          "name": "curve",
          "type": "address"
        },
        {
          "internalType": "address",
          "name": "manager",
          "type": "address"
        }
      ],
      "name": "setCurveLiquidityManager",
      "outputs": [],
      "stateMutability": "nonpayable",
      "type": "function"
    },
    {
      "inputs": [
        {
          "internalType": "address",
          "name": "curve",
          "type": "address"
        },
        {
          "internalType": "uint256",
          "name": "threshold",
          "type": "uint256"
        }
      ],
      "name": "setCurveLpThreshold",
      "outputs": [],
      "stateMutability": "nonpayable",
      "type": "function"
    },
    {
      "inputs": [
        {
          "internalType": "address",
          "name": "curve",
          "type": "address"
        },
        {
          "internalType": "address",
          "name": "account",
          "type": "address"
        },
        {
          "internalType": "bool",
          "name": "mod_",
          "type": "bool"
        }
      ],
      "name": "setCurveMod",
      "outputs": [],
      "stateMutability": "nonpayable",
      "type": "function"
    },
    {
      "inputs": [
        {
          "internalType": "address",
          "name": "curve",
          "type": "address"
        },
        {
          "internalType": "uint64",
          "name": "start",
          "type": "uint64"
        }
      ],
      "name": "setCurveSaleStart",
      "outputs": [],
      "stateMutability": "nonpayable",
      "type": "function"
    },
    {
      "inputs": [
        {
          "internalType": "address",
          "name": "curve",
          "type": "address"
        },
        {
          "internalType": "uint16",
          "name": "feeBps",
          "type": "uint16"
        }
      ],
      "name": "setCurveTradeFee",
      "outputs": [],
      "stateMutability": "nonpayable",
      "type": "function"
    },
    {
      "inputs": [
        {
          "internalType": "address",
          "name": "registry",
          "type": "address"
        }
      ],
      "name": "setLogoRegistry",
      "outputs": [],
      "stateMutability": "nonpayable",
      "type": "function"
    },
    {
      "inputs": [
        {
          "internalType": "address",
          "name": "registry",
          "type": "address"
        }
      ],
      "name": "setMetadataRegistry",
      "outputs": [],
      "stateMutability": "nonpayable",
      "type": "function"
    },
    {
      "inputs": [
        {
          "internalType": "address",
          "name": "token",
          "type": "address"
        },
        {
          "internalType": "address",
          "name": "account",
          "type": "address"
        },
        {
          "internalType": "bool",
          "name": "allowed",
          "type": "bool"
        }
      ],
      "name": "setTokenAllowedWhileRestricted",
      "outputs": [],
      "stateMutability": "nonpayable",
      "type": "function"
    },
    {
      "inputs": [
        {
          "internalType": "address",
          "name": "token",
          "type": "address"
        },
        {
          "internalType": "uint16",
          "name": "feeBps",
          "type": "uint16"
        }
      ],
      "name": "setTokenFee",
      "outputs": [],
      "stateMutability": "nonpayable",
      "type": "function"
    },
    {
      "inputs": [
        {
          "internalType": "address",
          "name": "token",
          "type": "address"
        },
        {
          "internalType": "address",
          "name": "account",
          "type": "address"
        },
        {
          "internalType": "bool",
          "name": "exempt",
          "type": "bool"
        }
      ],
      "name": "setTokenFeeExemption",
      "outputs": [],
      "stateMutability": "nonpayable",
      "type": "function"
    },
    {
      "inputs": [
        {
          "internalType": "address",
          "name": "token",
          "type": "address"
        },
        {
          "internalType": "address",
          "name": "recipient",
          "type": "address"
        }
      ],
      "name": "setTokenFeeRecipient",
      "outputs": [],
      "stateMutability": "nonpayable",
      "type": "function"
    },
    {
      "inputs": [
        {
          "internalType": "address",
          "name": "token",
          "type": "address"
        },
        {
          "internalType": "bool",
          "name": "enabled",
          "type": "bool"
        }
      ],
      "name": "setTokenTransfersRestricted",
      "outputs": [],
      "stateMutability": "nonpayable",
      "type": "function"
    },
    {
      "inputs": [
        {
          "internalType": "address",
          "name": "newOwner",
          "type": "address"
        }
      ],
      "name": "transferOwnership",
      "outputs": [],
      "stateMutability": "nonpayable",
      "type": "function"
    },
    {
      "inputs": [
        {
          "internalType": "address",
          "name": "curve",
          "type": "address"
        }
      ],
      "name": "unpauseCurve",
      "outputs": [],
      "stateMutability": "nonpayable",
      "type": "function"
    },
    {
      "inputs": [
        {
          "internalType": "address",
          "name": "token",
          "type": "address"
        }
      ],
      "name": "unpauseToken",
      "outputs": [],
      "stateMutability": "nonpayable",
      "type": "function"
    }
  ],
  "bytecode": "0x60a03461013d576001600160401b0390601f62006cd638819003918201601f1916830191848311848410176101425780849260209460405283398101031261013d57516001600160a01b0391908281169081900361013d57801561012457600080546001600160a01b0319811683178255604051919391929085167f8be0079c531659141344cd1fd0a4f28419497f9722a3daafe3b4186f6b6457e08580a361231e8281019182118383101761011057908291620049b88339039082f090811561010457501660805260405161485f908162000159823960805181818161021f015281816102dd0152818161066f015281816107f901528181610ed101526115720152f35b604051903d90823e3d90fd5b634e487b7160e01b84526041600452602484fd5b604051631e4fbdf760e01b815260006004820152602490fd5b600080fd5b634e487b7160e01b600052604160045260246000fdfe608060405260043610156200001357600080fd5b6000803560e01c8063100b64ff1462000ce05780631b0df5e814620016a45780631fd309da14620014d15780632783bed0146200144c57806328dd60671462000d125780633b3bff0f1462000ce05780633b7beab91462000c7f578063468ad0a61462000c5757806346d4dbbf1462000a07578063552a6a2e1462000bb25780635cdd241a1462000b3d578063715018a61462000adf5780637847e1fe1462000a6757806378e5939d1462000a3c5780637c41ad2c1462000a07578063878b363514620009885780638da5cb5b146200095f578063947f2d8d146200073d5780639ba39dd014620006d55780639c76b6541462000638578063a4570e2114620005b2578063a943ae86146200054e578063af27cfdd14620004ba578063b455f3d21462000440578063b758e05214620003b2578063dbe496e7146200024e578063f1afe5e814620002075763f2fde38b146200016e57600080fd5b346200020457602036600319011262000204576200018b62001726565b6200019562001a1e565b6001600160a01b03908116908115620001eb57600054826bffffffffffffffffffffffff60a01b821617600055167f8be0079c531659141344cd1fd0a4f28419497f9722a3daafe3b4186f6b6457e0600080a380f35b604051631e4fbdf760e01b815260048101849052602490fd5b80fd5b503462000204578060031936011262000204576040517f00000000000000000000000000000000000000000000000000000000000000006001600160a01b03168152602090f35b50346200020457608036600319011262000204576001600160401b03600435818111620003ae5762000285903690600401620017b2565b90602435908111620003ae57620002a1903690600401620017b2565b6064359061ffff8216808303620003a957806064620002cb92101590816200039b575b506200186f565b836001600160a01b03620003026044357f000000000000000000000000000000000000000000000000000000000000000062001a4b565b1692833b15620003975781620003319160405180938192635a5c182360e01b83523033898c60048701620018fe565b038183885af180156200038c5762000370575b50506200036a6000805160206200480a833981519152916040519182913396836200194d565b0390a380f35b6200037b9062001766565b6200038857833862000344565b8380fd5b6040513d84823e3d90fd5b5080fd5b61012c9150111538620002c4565b600080fd5b8280fd5b503462000204576040366003190112620002045780620003d162001726565b620003db62001754565b90620003e662001a1e565b6001600160a01b031690813b156200043c5761ffff6024849283604051958694859363d35ddacb60e01b85521660048401525af180156200038c57620004295750f35b620004349062001766565b620002045780f35b5050fd5b5034620002045760403660031901126200020457806200045f62001726565b620004696200173d565b6200047362001a1e565b6001600160a01b0391821691823b15620004b5576024849283604051958694859363e74b981b60e01b85521660048401525af180156200038c57620004295750f35b505050fd5b503462000204576060366003190112620002045780620004d962001726565b620004e36200173d565b620004ed6200180d565b91620004f862001a1e565b6001600160a01b031691823b15620004b55760405163bb4628d160e01b81526001600160a01b039092166004830152151560248201529082908290818381604481015b03925af180156200038c57620004295750f35b5034620002045760203660031901126200020457806200056d62001726565b6200057762001a1e565b6001600160a01b0316803b15620005af57818091600460405180948193631ed844f960e21b83525af180156200038c57620004295750f35b50fd5b503462000204576060366003190112620002045780620005d162001726565b620005db6200173d565b620005e56200180d565b91620005f062001a1e565b6001600160a01b031691823b15620004b55760405163751fd17960e01b81526001600160a01b039092166004830152151560248201529082908290818381604481016200053b565b503462000204576020366003190112620002045760206040513060388201526f5af43d82803e903d91602b57fd5bf3ff60248201527f00000000000000000000000000000000000000000000000000000000000000006014820152733d602d80600a3d3981f3363d3d373d3d3d363d73815260043560588201526037600c82012060788201526055604360018060a01b0392012016604051908152f35b503462000204576040366003190112620002045780620006f462001726565b620006fe62001a1e565b6001600160a01b0316803b15620005af5781809160246040518094819363672a271760e11b8352833560048401525af180156200038c57620004295750f35b5034620002045760c036600319011262000204576001600160401b03600435818111620003ae5762000774903690600401620017b2565b60243582811162000388576200078f903690600401620017b2565b6064358381116200095b57620007aa903690600401620017b2565b926084359081116200095b57620007c6903690600401620017b2565b9060a4359261ffff8416808503620003a957806064620007f092101590816200039b57506200186f565b6200081e6044357f000000000000000000000000000000000000000000000000000000000000000062001a4b565b936001600160a01b0392838616918890833b156200039757816200085b9160405180938192635a5c182360e01b83523033898c60048701620018fe565b038183885af180156200038c576200093f575b5050620008946000805160206200480a833981519152916040519182913396836200194d565b0390a36001541680156200090c57620008cb93856020946040519687958694859363b840d28d60e01b8552339060048601620019a4565b03925af180156200038c57620008df575080f35b602090813d831162000904575b620008f8818362001790565b81010312620003a95780f35b503d620008ec565b60405162461bcd60e51b815260206004820152600b60248201526a4e6f20726567697374727960a81b6044820152606490fd5b6200094a9062001766565b620009575787386200086e565b8780fd5b8480fd5b50346200020457806003193601126200020457546040516001600160a01b039091168152602090f35b5034620002045760403660031901126200020457620009a662001726565b6024356001600160401b038116809103620003a9578291620009c762001a1e565b6001600160a01b031690813b156200043c57829160248392604051948593849263b3a891c960e01b845260048401525af180156200038c57620004295750f35b503462000204576020366003190112620002045762000a3962000a2962001726565b62000a3362001a1e565b620019e5565b80f35b503462000204578060031936011262000204576001546040516001600160a01b039091168152602090f35b503462000204576040366003190112620002045762000a8562001726565b602435801515809103620003a957829162000a9f62001a1e565b6001600160a01b031690813b156200043c57829160248392604051948593849263c22dc7e760e01b845260048401525af180156200038c57620004295750f35b5034620002045780600319360112620002045762000afc62001a1e565b600080546001600160a01b0319811682556001600160a01b03167f8be0079c531659141344cd1fd0a4f28419497f9722a3daafe3b4186f6b6457e08280a380f35b50346200020457604036600319011262000204578062000b5c62001726565b62000b666200173d565b62000b7062001a1e565b6001600160a01b0391821691823b15620004b55760248492836040519586948593630f05893560e21b85521660048401525af180156200038c57620004295750f35b503462000204576020366003190112620002045762000bd062001726565b62000bda62001a1e565b6001600160a01b0316801562000c2357600180546001600160a01b031916821790557f4be7ac7235b1c8ce2132cead151b872e8950091ae30a31f9a8bcae3d1dca8e8b8280a280f35b60405162461bcd60e51b815260206004820152600c60248201526b42616420726567697374727960a01b6044820152606490fd5b503462000204576020366003190112620002045762000c7562001726565b62000bd062001a1e565b50346200020457602036600319011262000204578062000c9e62001726565b62000ca862001a1e565b6001600160a01b0316803b15620005af578180916004604051809481936331ebcaa760e21b83525af180156200038c57620004295750f35b503462000204576020366003190112620002045762000a3962000d0262001726565b62000d0c62001a1e565b6200181d565b503462000204576101c036600319011262000204576004356001600160401b038111620003975762000d49903690600401620017b2565b6024356001600160401b038111620003ae5762000d6b903690600401620017b2565b906064356001600160401b038111620003885762000d8e903690600401620017b2565b916084356001600160401b0381116200095b5762000db1903690600401620017b2565b91610104359161ffff83168303620003a95761012435926001600160a01b0384168403620003a95761014435906001600160401b0382168203620003a95761016435946001600160a01b0386168603620003a95761ffff6101a43516806101a43503620003a9576001600160a01b038716156200141a57606481101590816200140c575b5015620013b95760405161283c808201908282106001600160401b03831117620013a55790829162001ab5833903908af09586156200139a5760405190816105198101106001600160401b03610519840111176200138657908a94939291610519620042f183396001600160a01b03908116610519830190815290891660208201528190036040019085f09788156200137b5762000ef66044357f000000000000000000000000000000000000000000000000000000000000000062001a4b565b996001600160a01b038b163b156200119f5762000f419086888d8c838d60405197889586948593635a5c182360e01b85526101a43592309260018060a01b03169160048701620018fe565b03926001600160a01b03165af18015620011a3578c9288916200135e575b505060405133906001600160a01b038416906000805160206200480a833981519152908062000f908d8f836200194d565b0390a36001546001600160a01b0316806200124f575b505050506001600160a01b0387163b15620003885761ffff604051926320f6d64360e01b845260018060a01b038b16600485015233602485015260a435604485015260c435606485015260e43560848501521660a483015260018060a01b031660c482015260018060a01b03871660e482015261018435610104820152306101248201528281610144818360018060a01b038b165af1908115620012445783916200122c575b50506001600160401b038116620011c6575b50506001600160a01b0385163b156200119f5760405163087fe3f760e31b81526001600160a01b03848116600483015287919082908290602490829084908c165af180156200038c57620011ae575b50506001600160a01b0383163b156200119f57604051639da36bbf60e01b81528681600481836001600160a01b0389165af18015620011a35762001187575b506040516001600160a01b0385168152606060208201819052965091620011179083880190620018bc565b828103604084015233926001600160a01b0385811693908816927f312f6a2c8cde9715ebc5ea523aa5f0026cbcb11b4a38d0e04eb28989747a0106929182916200116191620018bc565b0390a4604080516001600160a01b03948516815291841660208301529190921690820152f35b62001193879162001766565b6200119f5785620010ec565b8580fd5b6040513d89823e3d90fd5b620011b99062001766565b6200119f578538620010ad565b6001600160a01b0385163b15620003975760405163b3a891c960e01b81526001600160401b039190911660048201528181602481836001600160a01b038a165af180156200038c57156200105e576200121f9062001766565b6200119f5785386200105e565b620012379062001766565b620003975781386200104c565b6040513d85823e3d90fd5b835115620012ef575060015460405163b840d28d60e01b81529360209385936001600160a01b039093169284928b928492620012929291339060048601620019a4565b03925af18015620012e457620012af575b505b3889818062000fa6565b6020809295503d8311620012dc575b620012ca818362001790565b81010312620003a957889238620012a3565b503d620012be565b6040513d87823e3d90fd5b62001318935060209288604051809681958294631b851f5760e11b845233906004850162001979565b03925af162001329575b50620012a5565b6020809295503d831162001356575b62001344818362001790565b81010312620003a95788923862001322565b503d62001338565b6200136c9192935062001766565b6200119f578a90863862000f5f565b6040513d86823e3d90fd5b634e487b7160e01b8b52604160045260248bfd5b6040513d8b823e3d90fd5b634e487b7160e01b8c52604160045260248cfd5b60405162461bcd60e51b815260206004820152602560248201527f546f6b656e20666565206d757374206265203130302d33303020627073202831604482015264252d33252960d81b6064820152608490fd5b61012c915011153862000e35565b60405162461bcd60e51b815260206004820152600a6024820152692130b2103937baba32b960b11b6044820152606490fd5b5034620002045760603660031901126200020457806200146b62001726565b620014756200173d565b6200147f6200180d565b916200148a62001a1e565b6001600160a01b031691823b15620004b55760405162099b2360e41b81526001600160a01b039092166004830152151560248201529082908290818381604481016200053b565b5034620002045760a036600319011262000204576001600160401b03600435818111620003ae5762001508903690600401620017b2565b602435828111620003885762001523903690600401620017b2565b9160643590811162000388576200153f903690600401620017b2565b916084359161ffff8316808403620003a9578060646200156992101590816200039b57506200186f565b620015976044357f000000000000000000000000000000000000000000000000000000000000000062001a4b565b926001600160a01b0392838516918790833b15620003975781620015d49160405180938192635a5c182360e01b83523033898c60048701620018fe565b038183885af180156200038c5762001688575b50506200160d6000805160206200480a833981519152916040519182913396836200194d565b0390a36001541691826200161f578380f35b620016479260209285604051809681958294631b851f5760e11b845233906004850162001979565b03925af162001657575b80808380f35b602090813d831162001680575b62001670818362001790565b81010312620003a9573862001651565b503d62001664565b620016939062001766565b620016a0578638620015e7565b8680fd5b5034620002045760403660031901126200020457620016c262001726565b81620016cd62001754565b91620016d862001a1e565b6001600160a01b031691823b156200039757602461ffff9183604051958694859363023b1fc960e01b85521660048401525af180156200038c576200171b575080f35b62000a399062001766565b600435906001600160a01b0382168203620003a957565b602435906001600160a01b0382168203620003a957565b6024359061ffff82168203620003a957565b6001600160401b0381116200177a57604052565b634e487b7160e01b600052604160045260246000fd5b90601f801991011681019081106001600160401b038211176200177a57604052565b81601f82011215620003a9578035906001600160401b0382116200177a5760405192620017ea601f8401601f19166020018562001790565b82845260208383010111620003a957816000926020809301838601378301015290565b604435908115158203620003a957565b6001600160a01b0316803b15620003a95760008091600460405180948193631fa5d41d60e11b83525af180156200186357620018565750565b620018619062001766565b565b6040513d6000823e3d90fd5b156200187757565b60405162461bcd60e51b815260206004820152601f60248201527f466565206d757374206265203130302d33303020627073202831252d332529006044820152606490fd5b919082519283825260005b848110620018e9575050826000602080949584010152601f8019910116010190565b602081830181015184830182015201620018c7565b93959490926200193061ffff936200192160809660a0895260a0890190620018bc565b908782036020890152620018bc565b6001600160a01b0391821660408701529616606085015216910152565b9091620019676200197693604084526040840190620018bc565b916020818403910152620018bc565b90565b6001600160a01b039182168152911660208201526060604082018190526200197692910190620018bc565b6001600160a01b0391821681529116602082015260806040820181905262001976939192620019d691840190620018bc565b916060818403910152620018bc565b6001600160a01b0316803b15620003a95760008091600460405180948193638456cb5960e01b83525af180156200186357620018565750565b6000546001600160a01b0316330362001a3357565b60405163118cdaa760e01b8152336004820152602490fd5b6e5af43d82803e903d91602b57fd5bf390763d602d80600a3d3981f3363d3d373d3d3d363d7300000062ffffff8260881c161760005260781b17602052603760096000f5906001600160a01b0382161562001aa257565b60405163b06ebf3d60e01b8152600490fdfe6080806040523461001657612820908161001c8239f35b600080fdfe608060408181526004918236101561001657600080fd5b600092833560e01c91826299b23014611b735750816302c7e7af14611b54578163078a424514611b3457816318cedbfc14611b0d57816320f6d643146117db578163264e49db146117bc578163278ecde114611578578163334041a614611554578163338274381461152b5781633468145a146115035781633c1624d4146114585781633f4ba83a14611398578163469048401461136c5781635c975abb1461133b5781635faad8c514611319578163708ba455146112fa578163715018a61461128f5781637b6113e4146110f65781638456cb591461102d5781638988b28414610fef5781638da5cb5b14610fb95781639da36bbf14610e29578163a474030314610e0a578163a6f2ae3a1461096d578163ab0bcc4114610944578163b3a891c914610889578163b4f40c611461086a578163c45a015514610841578163c7af2a9c14610790578163c8cb47cb1461076d578163ce544e2e146106c0578163d35ddacb146105a3578163d5abeb0114610584578163e4849b32146102e8578163e8aba58e146102c3578163eb91d37e1461025d57508063f2fde38b1461022d5763f71143ca146101c657600080fd5b34610229578160031936011261022957600c5460209167ffffffffffffffff8216421015918261021b575b5081610200575b519015158152f35b6000805160206127ab8339815191525460ff161591506101f8565b811c60ff16159150836101f1565b5080fd5b823461025a57602036600319011261025a5761025761024a611c79565b6102526120bf565b61201b565b80f35b80fd5b82843461025a578060031936011261025a5760015492670de0b6b3a7640000938481029481860414901517156102b0576020836102a9866102a360025460095490611d5b565b90611d84565b9051908152f35b634e487b7160e01b825260119052602490fd5b505034610229578160031936011261022957600c548151911c60ff1615158152602090f35b83833461022957602090816003193601126105805783359161030861208f565b6103106120f8565b61033767ffffffffffffffff600c5461032e60ff82871c1615611f3e565b16421015611f78565b82156105485761034b60ff60085416611e43565b6009549061035b84831015611e7c565b845483516323b872dd60e01b81523388820152306024820152604481018690526001600160a01b0393918390829060649082908b9089165af1801561053e57610511575b50600254806104915750670de0b6b3a76400006103be86600154611d5b565b045b60c8810281810460c8148215171561047e5791879887987fbac9694ac0daa55169abd117086fe32c89401d9a3b15dd1d34e55e0aa4e47a9d989361040c61271061043497048092611d91565b9781610457575b505061042f915080808089335af1610429611eb9565b50611ef9565b611d91565b60095582519485528401523392a260016000805160206127cb8339815191525580f35b8280928192610475965460101c165af161046f611eb9565b50611fcf565b89898180610413565b634e487b7160e01b885260118952602488fd5b6104ef6001546104e6670de0b6b3a7640000936104d38a6104e06104d96104be89808c0494048098611d5b565b966104d36104cc8286611d84565b9185611d84565b90611d5b565b9180611d5b565b90611d91565b60011c90611d84565b81810291818304149015176103c057634e487b7160e01b875260118852602487fd5b61053090833d8511610537575b6105288183611cb9565b810190611fb7565b508761039f565b503d61051e565b85513d89823e3d90fd5b8490606492519162461bcd60e51b835282015260136024820152724d7573742073656c6c20736f6d657468696e6760681b6044820152fd5b8280fd5b5050346102295781600319360112610229576020906007549051908152f35b8391503461022957602090816003193601126105805780359061ffff82168092036106bb576006548551638da5cb5b60e01b81526001600160a01b0391859082908590829086165afa9081156106b1579061060992918791610684575b50163314611cfa565b6103e8821161064957937f08f6c2b2b5b95a33c6a8871acf4e7a0ff9c68627cbfed148744d97691e3f46ba93948261ffff1982541617905551908152a180f35b845162461bcd60e51b815290810183905260156024820152744665652063616e6e6f74206578636565642031302560581b6044820152606490fd5b6106a49150863d88116106aa575b61069c8183611cb9565b810190611cdb565b88610600565b503d610692565b87513d88823e3d90fd5b600080fd5b905034610580576020366003190112610580576006548251638da5cb5b60e01b81528235926001600160a01b03926020918391829086165afa90811561076357602093927fffdfcd8eae5905cc8c33f87cb13a5df06766499318d99a5fcd3e5fa60fe74a23959261073a9288916107465750163314611cfa565b8160035551908152a180f35b61075d9150863d88116106aa5761069c8183611cb9565b38610600565b84513d87823e3d90fd5b50503461022957816003193601126102295760209061ffff600a54169051908152f35b9050346105805782600319360112610580576006548251638da5cb5b60e01b81526001600160a01b039290916020918391829086165afa9081156108345760ff926107fd94926107e992879161081b5750163314611cfa565b6107f161208f565b600c54901c1615611f3e565b6108064761230d565b60016000805160206127cb8339815191525580f35b61075d915060203d6020116106aa5761069c8183611cb9565b50505051903d90823e3d90fd5b50503461022957816003193601126102295760065490516001600160a01b039091168152602090f35b5050346102295781600319360112610229576020906002549051908152f35b9050346105805760203660031901126105805780359067ffffffffffffffff8216809203610940576006548351638da5cb5b60e01b81526001600160a01b039290916020918391829086165afa90811561076357602093927ef6cd547296c70c9cab792bbd7b7bab0c7107640a3f5a6e3c7041e2451d8be195926109169288916107465750163314611cfa565b81600c5461092960ff82851c1615611f3e565b67ffffffffffffffff191617600c5551908152a180f35b8380fd5b50503461022957816003193601126102295760209067ffffffffffffffff600c54169051908152f35b9050826003193601126105805761098261208f565b61098a6120f8565b600c549061099d60ff83851c1615611f3e565b6109bb67ffffffffffffffff60ff8460481c169361032e8515611e03565b3415610dd2576109cf60ff60085416611e43565b60c8340234810460c803610dbf576127109004906109ed8234611d91565b91600954926002548015600014610cc55750600154908115610c995790670de0b6b3a7640000610a1d9202611d3b565b925b8315610c6257865486516370a0823160e01b815230858201526020966001600160a01b03939284169291908882602481875afa918215610c58578b92610c29575b5015610c205789905b610a738883611d84565b11610bf257610a8e610a858884611d84565b91600754611d91565b10610bbb57875163a9059cbb60e01b815233868201908152602081018890528a959493919291899184919082908990829060400103925af1908115610bb157610ade928892610b94575b50611d84565b60095581610b73575b50505050825190348252828201527fa9a40dec7a304e5915d11358b968c1e8d365992abf20f82285d1df1b30c8e24c833392a2476003541115610b3b575b8260016000805160206127cb8339815191525580f35b7fc1b6170c1a12e8e6e16ac11093d782c998b06d4fb9ecda78f4eba96d24aaa9f391479051908152a1610b6c612243565b3880610b25565b8280928192610b8b965460101c165af161046f611eb9565b38848180610ae7565b610baa908a3d8c11610537576105288183611cb9565b5038610ad8565b89513d87823e3d90fd5b875162461bcd60e51b815280860188905260116024820152704578636565647320617661696c61626c6560781b6044820152606490fd5b885162461bcd60e51b8152808701899052600860248201526714dbdb19081bdd5d60c21b6044820152606490fd5b600b5490610a69565b9091508881813d8311610c51575b610c418183611cb9565b810103126106bb57519038610a60565b503d610c37565b8a513d8d823e3d90fd5b855162461bcd60e51b8152602081850152601160248201527021b0b631bab630ba34b7b71032b93937b960791b6044820152606490fd5b865162461bcd60e51b8152602081860152600660248201526504261642070360d41b6044820152606490fd5b610cdf6001546102a3670de0b6b3a7640000880484611d5b565b6001600160ff1b0392600182901b9184811603610dac57610d008280611d5b565b906001600160fd1b0384168403610d9957610d2a916102a3610d25928660031b611d5b565b612123565b818110610d6b5790610d3b91611d91565b9181168103610d585790610d529160011b90611d3b565b92610a1f565b634e487b7160e01b885260118452602488fd5b885162461bcd60e51b8152602081880152600860248201526726b0ba341032b93960c11b6044820152606490fd5b634e487b7160e01b8b526011875260248bfd5b634e487b7160e01b8a526011865260248afd5b634e487b7160e01b855260118252602485fd5b606490602084519162461bcd60e51b835282015260126024820152714d7573742070617920736f6d657468696e6760701b6044820152fd5b505034610229578160031936011261022957602090600b549051908152f35b9050346105805782600319360112610580576008549060ff8216610f855783548351638da5cb5b60e01b81526001600160a01b0391821693916020828581885afa918215610f7b578792610f5a575b5030911603610f175760ff191660011760085560075484929190823b156109405784516340c10f1960e01b815230928101928352602083019190915291839183919082908490829060400103925af1801561083457610f03575b507f325346a443e76d906638205113ba2a0a570c592d6700780ca605c087616abc726020836007549051908152a180f35b610f0c90611c8f565b610229578138610ed2565b835162461bcd60e51b8152602081840152601860248201527f546f6b656e206e6f74206f776e656420627920637572766500000000000000006044820152606490fd5b610f7491925060203d6020116106aa5761069c8183611cb9565b9038610e78565b86513d89823e3d90fd5b606490602084519162461bcd60e51b8352820152600e60248201526d105b1c9958591e481cd95959195960921b6044820152fd5b50503461022957816003193601126102295760008051602061278b8339815191525490516001600160a01b039091168152602090f35b5050346102295760203660031901126102295760209160ff9082906001600160a01b0361101a611c79565b168152600d855220541690519015158152f35b9050346105805782600319360112610580576006548251638da5cb5b60e01b81526001600160a01b039290916020918391829086165afa908115610834576020927f62e78cea01bee320cd4e420270b5ea74000d11b0c9f74754ebdbfc544b05a25894926110a49287916110df5750163314611cfa565b6110b560ff600c54831c1615611f3e565b6110bd6120f8565b6000805160206127ab833981519152805460ff1916600117905551338152a180f35b61075d9150853d87116106aa5761069c8183611cb9565b839150346102295781600319360112610229576006548351638da5cb5b60e01b81526001600160a01b03949160209082908590829089165afa9081156112855761114b91869186916112665750163314611cfa565b600c549360ff85831c1661123157600160401b8561117060ff879860481c1615611e03565b68ff0000000000000000191617600c556111886120f8565b6000805160206127ab833981519152600160ff198254161790557f62e78cea01bee320cd4e420270b5ea74000d11b0c9f74754ebdbfc544b05a25860208351338152a1835416803b1561122c57839283925180948193638456cb5960e01b83525af1611218575b50337f2bb0c8f95b782c7d886b752278cc521ffa38550690cdbd399395e640ee967fb08280a280f35b61122190611c8f565b61025a5780826111ef565b505050fd5b815162461bcd60e51b8152602081850152600f60248201526e105b1c9958591e48195b98589b1959608a1b6044820152606490fd5b61127f915060203d6020116106aa5761069c8183611cb9565b87610600565b82513d86823e3d90fd5b833461025a578060031936011261025a576112a86120bf565b60008051602061278b83398151915280546001600160a01b031981169091556000906001600160a01b03167f8be0079c531659141344cd1fd0a4f28419497f9722a3daafe3b4186f6b6457e08280a380f35b5050346102295781600319360112610229576020906003549051908152f35b82843461025a578060031936011261025a575061ffff60209254169051908152f35b50503461022957816003193601126102295760209060ff6000805160206127ab833981519152541690519015158152f35b90503461058057826003193601126105805754905160109190911c6001600160a01b0316815260209150f35b9050346105805782600319360112610580576006548251638da5cb5b60e01b8152906001600160a01b039060209083908590829085165afa8015610763576113e992869161081b5750163314611cfa565b6113fa60ff600c54841c1615611f3e565b6000805160206127ab8339815191529081549060ff82161561144a575060ff19169055513381527f5db9ee0a495bf2e6ff9c91a7834c1ba4fdd244a5e8aa4e537bd38aeae4b073aa90602090a180f35b8351638dfc202b60e01b8152fd5b9190503461058057602036600319011261058057611474611c79565b6006548251638da5cb5b60e01b81526001600160a01b039492939290916020918391829088165afa9182156114fa57506114b9918491869161081b5750163314611cfa565b16806bffffffffffffffffffffffff60a01b60055416176005557f3d34cc8a188b0116ebbbbab43310493807ae037bdab3d6746427d0e815dce3e08280a280f35b513d86823e3d90fd5b505034610229578160031936011261022957905490516001600160a01b039091168152602090f35b50503461022957816003193601126102295760055490516001600160a01b039091168152602090f35b50503461022957816003193601126102295760209060ff6008541690519015158152f35b919050346105805760203660031901126105805781359161159761208f565b600c5460ff81841c161561178d5760ff6115b59160481c1615611e03565b8215611760576115c960ff60085416611e43565b6009546115d884821015611e7c565b845485906001600160a01b0316803b1561022957845163079cc67960e41b815233858201908152602081018890529091839183919082908490829060400103925af180156117565761173e575b5050600254806116e85750670de0b6b3a764000061164585600154611d5b565b04915b8247106116b057509061168b847f2dc8e290002f06fc0085bbca9dfb8b415cf4d1178950c72ff9ee8f4d8878ee66949361042f8880808088335af1610429611eb9565b600955815193845260208401523392a260016000805160206127cb8339815191525580f35b606490602085519162461bcd60e51b83528201526012602482015271496e73756666696369656e742066756e647360701b6044820152fd5b6117156001546104e6670de0b6b3a7640000936104d3896104e06104d96104be89808c0494048098611d5b565b81810291818304149015171561172b5791611648565b634e487b7160e01b865260118352602486fd5b61174790611c8f565b611752578438611625565b8480fd5b85513d84823e3d90fd5b6020606492519162461bcd60e51b835282015260086024820152670416d6f756e743d360c41b6044820152fd5b506020606492519162461bcd60e51b83528201526009602482015268139bc81c99599d5b9960ba1b6044820152fd5b5050346102295781600319360112610229576020906001549051908152f35b90503461058057610140366003190112610580576117f7611c79565b6001600160a01b0391602435908382168203611b095760a4359361ffff8516809503611b055760c435918183168303611b015760e43592828416809403611afd5761012435838116809103611af9577ff0c57e16840df040f15088dc2f81fe391c3923bec73e23a9662efc9c229c6a009788549760ff898c1c16159767ffffffffffffffff8a16998a1580611af2575b6001809c149081611ae8575b159081611adf575b50611acf57916118d588928f979695948e908d8f67ffffffffffffffff198316178355611aaf575b50506118cd612749565b610252612749565b6118dd612749565b6118e5612749565b8a6000805160206127cb833981519152556118fe612749565b16926bffffffffffffffffffffffff60a01b9184838754161786556044358b5560643560025560843560035586549162010000600160b01b039060101b169169ffffffffffffffffffff60b01b1617178555868160055416176005556101043560075560065416176006556107d061ffff19600a541617600a556aa56fa5b99019a5c8000000600b55803b1561022957819060248a518094819363c22dc7e760e01b83528b888401525af1611a98575b50908792918184541691823b1561175257848080899560448d518094819363bb4628d160e01b9a8b8452308b85015260248401525af1611a84575b505083611a3f575b50505050506119fe578380f35b7fc7f505b2f371ae2175ee4913f4499e1f2633a7b5936321eed1cdaeb6115181d29260209268ff000000000000000019815416905551908152a13880808380f35b845416803b15611752578492836044928b51968795869485528401528960248401525af1611a70575b8080806119f1565b611a7990611c8f565b611752578438611a68565b611a8d90611c8f565b6117525784386119e9565b611aa6909891939298611c8f565b969091386119ae565b68ffffffffffffffffff1916680100000000000000011790558d386118c3565b8c5163f92ee8a960e01b81528790fd5b9050153861189b565b303b159150611893565b5089611887565b8980fd5b8880fd5b8780fd5b8680fd5b8580fd5b50503461022957816003193601126102295760209060ff600c5460481c1690519015158152f35b82843461025a57602036600319011261025a57506102a960209235611d9e565b5050346102295781600319360112610229576020906009549051908152f35b91509134610940578060031936011261094057611b8e611c79565b9060243591821515809303611b0957600654638da5cb5b60e01b85526020946001600160a01b039291869082908990829087165afa908115611c6f57611bdf9184918a91611c585750163314611cfa565b16938415611c2b5750907fbd32e1e1567f9829f1feb1a1ed82721ae3d1492ea1c4de614ddd34e717880e919291848652600d835280862060ff1981541660ff841617905551908152a280f35b83606492519162461bcd60e51b835282015260096024820152682d32b9379030b2323960b91b6044820152fd5b61075d9150883d8a116106aa5761069c8183611cb9565b84513d8a823e3d90fd5b600435906001600160a01b03821682036106bb57565b67ffffffffffffffff8111611ca357604052565b634e487b7160e01b600052604160045260246000fd5b90601f8019910116810190811067ffffffffffffffff821117611ca357604052565b908160209103126106bb57516001600160a01b03811681036106bb5790565b15611d0157565b60405162461bcd60e51b815260206004820152601260248201527127b7363c903330b1ba37b93c9037bbb732b960711b6044820152606490fd5b8115611d45570490565b634e487b7160e01b600052601260045260246000fd5b81810292918115918404141715611d6e57565b634e487b7160e01b600052601160045260246000fd5b91908201809211611d6e57565b91908203918211611d6e57565b60025480611dc05750611dbc670de0b6b3a764000091600154611d5b565b0490565b611df0906104e6600154916104d3670de0b6b3a7640000956104e06104d96104be89806009540494048098611d5b565b818102918183041490151715611d6e5790565b15611e0a57565b60405162461bcd60e51b8152602060048201526011602482015270131a5c5d5a591a5d1e4818dc99585d1959607a1b6044820152606490fd5b15611e4a57565b60405162461bcd60e51b815260206004820152600a602482015269139bdd081cd95959195960b21b6044820152606490fd5b15611e8357565b60405162461bcd60e51b815260206004820152600e60248201526d125b9d985b1a5908185b5bdd5b9d60921b6044820152606490fd5b3d15611ef4573d9067ffffffffffffffff8211611ca35760405191611ee8601f8201601f191660200184611cb9565b82523d6000602084013e565b606090565b15611f0057565b60405162461bcd60e51b81526020600482015260166024820152751499599d5b99081d1c985b9cd9995c8819985a5b195960521b6044820152606490fd5b15611f4557565b60405162461bcd60e51b815260206004820152600b60248201526a526566756e64206d6f646560a81b6044820152606490fd5b15611f7f57565b60405162461bcd60e51b815260206004820152601060248201526f14d85b19481b9bdd081cdd185c9d195960821b6044820152606490fd5b908160209103126106bb575180151581036106bb5790565b15611fd657565b60405162461bcd60e51b815260206004820152601c60248201527f506c6174666f726d20666565207472616e73666572206661696c6564000000006044820152606490fd5b6001600160a01b039081169081156120765760008051602061278b83398151915280546001600160a01b031981168417909155167f8be0079c531659141344cd1fd0a4f28419497f9722a3daafe3b4186f6b6457e0600080a3565b604051631e4fbdf760e01b815260006004820152602490fd5b6000805160206127cb83398151915260028154146120ad5760029055565b604051633ee5aeb560e01b8152600490fd5b60008051602061278b833981519152546001600160a01b031633036120e057565b60405163118cdaa760e01b8152336004820152602490fd5b60ff6000805160206127ab833981519152541661211157565b60405163d93c066560e01b8152600490fd5b60018082111561223f576121e0908083600160801b81101561222d575b80600160401b6004921015612220575b640100000000811015612213575b62010000811015612206575b6101008110156121fa575b60108110156121ee575b10156121e7575b600302811c6121958185611d3b565b01811c6121a28185611d3b565b01811c6121af8185611d3b565b01811c6121bc8185611d3b565b01811c6121c98185611d3b565b01811c6121d68185611d3b565b01901c8092611d3b565b8111900390565b811b612186565b811c9160021b9161217f565b60081c91811b91612175565b60101c9160081b9161216a565b60201c9160101b9161215e565b60401c9160201b91612150565b50600160401b9050608084901c612140565b5090565b600c5460ff8160401c161590816122fe575b50806122ea575b61226257565b600b5480156122cc57600154670de0b6b3a764000090818102918183041490151715611d6e5761229b906102a360025460095490611d5b565b9081156122e6576ec097ce7bc90715b34b9f1000000000916122bc91611d5b565b0480471015806122da575b6122cf575b50565b6122d89061230d565b565b504760035411156122c7565b5050565b506005546001600160a01b0316151561225c565b60ff915060481c161538612255565b600c549060009160409161232660ff83851c1615611f3e565b61233660ff8360481c1615611e03565b6005546001600160a01b03908116929091908315612718578451638da5cb5b60e01b815260049460209182818881855afa90811561270e5789916126f1575b5085309116036126ba5760095490600154670de0b6b3a7640000928382029180830485149015171561267857906102a36123b192600254611d5b565b91821561268b57808602868104821487151715612678576ec097ce7bc90715b34b9f100000000080970291818304149015171561266557826123f291611d3b565b94851561263157868a54169289516370a0823160e01b8152308a8201528581602481885afa908115612627578c916125f6575b508781106125ec575b506124399087611d5b565b0493851515806125e3575b156125a75769ff0000000000000000001916690100000000000000000017600c55600b5480151581878261259c575b5050612594575b50875163a9059cbb60e01b81526001600160a01b03909116818801908152602081018690529091839183919082908c90829060400103925af1801561258a5761256c575b50508260055416908387541690823b15611b015786516256688760e81b81526001600160a01b03929092168683019081526020810194909452909287928492918390036040019183915af1801561076357612559575b5083600b5583541691823b15610940576024849283809351958694859363c22dc7e760e01b85528401525af1612548575050565b6125528291611c8f565b61025a5750565b61256590949194611c8f565b9238612514565b8161258292903d10610537576105288183611cb9565b5038806124be565b87513d8a823e3d90fd5b94508261247a565b101590508138612473565b885162461bcd60e51b81528089018590526016602482015275496e73756666696369656e7420696e76656e746f727960501b6044820152606490fd5b50841515612444565b965061243961242e565b90508581813d8311612620575b61260d8183611cb9565b8101031261261c575138612425565b8b80fd5b503d612603565b8b513d8e823e3d90fd5b885162461bcd60e51b8152808901859052600e60248201526d0a8dede40d8d2e8e8d8ca408aa8960931b6044820152606490fd5b634e487b7160e01b8a526011885260248afd5b634e487b7160e01b8b526011895260248bfd5b885162461bcd60e51b8152808901859052600960248201526842616420707269636560b81b6044820152606490fd5b865162461bcd60e51b8152808701839052601160248201527013585b9859d95c881b9bdd081bdddb9959607a1b6044820152606490fd5b6127089150833d85116106aa5761069c8183611cb9565b38612375565b88513d8b823e3d90fd5b845162461bcd60e51b815260206004820152600a60248201526927379036b0b730b3b2b960b11b6044820152606490fd5b60ff7ff0c57e16840df040f15088dc2f81fe391c3923bec73e23a9662efc9c229c6a005460401c161561277857565b604051631afcd79f60e31b8152600490fdfe9016d09d72d40fdae2fd8ceac6b6234c7706214fd39c1cd1e609a0528c199300cd5ed15c6e187e77e9aee88184c21f4f2182ab5827cb3b7e07fbedcd63f033009b779b17422d0df92223018b32b4d1fa46e071723d6817e2486d003becc55f00a2646970667358221220a4900e6043797204c42f8fc1e065bcaf5e7c38d6d8a817afc8e32436e62446ea64736f6c6343000818003360a0346100de57601f61051938819003918201601f19168301916001600160401b038311848410176100e35780849260409485528339810103126100de576020610048826100f9565b916001600160a01b0391829161005e91016100f9565b169182156100c557600080546001600160a01b03198116851782556040519491908416907f8be0079c531659141344cd1fd0a4f28419497f9722a3daafe3b4186f6b6457e09080a31660805261040b908161010e823960805181818160f601526101ed0152f35b604051631e4fbdf760e01b815260006004820152602490fd5b600080fd5b634e487b7160e01b600052604160045260246000fd5b51906001600160a01b03821682036100de5756fe6040608081526004908136101561001557600080fd5b600091823560e01c806356688700146101ae578063715018a6146101515780638da5cb5b14610129578063c21ebd07146100e15763f2fde38b1461005857600080fd5b346100dd5760203660031901126100dd57610071610356565b9061007a6103a9565b6001600160a01b039182169283156100c757505082546001600160a01b0319811683178455167f8be0079c531659141344cd1fd0a4f28419497f9722a3daafe3b4186f6b6457e08380a380f35b51631e4fbdf760e01b8152908101849052602490fd5b8280fd5b505034610125578160031936011261012557517f00000000000000000000000000000000000000000000000000000000000000006001600160a01b03168152602090f35b5080fd5b505034610125578160031936011261012557905490516001600160a01b039091168152602090f35b83346101ab57806003193601126101ab5761016a6103a9565b80546001600160a01b03198116825581906001600160a01b03167f8be0079c531659141344cd1fd0a4f28419497f9722a3daafe3b4186f6b6457e08280a380f35b80fd5b50919080600319360112610125576101c4610356565b90602435916101d16103a9565b341561032057815163095ea7b360e01b81526001600160a01b037f000000000000000000000000000000000000000000000000000000000000000081168783018190526024830186905292811692916020816044818a885af18015610316576102d6575b508554166103844201908142116102c3576060939260c49289928751988996879563f305d71960e01b87528601526024850152896044850152896064850152608484015260a483015234905af19081156102ba5750610292575080f35b606090813d83116102b3575b6102a88183610371565b810103126101ab5780f35b503d61029e565b513d84823e3d90fd5b634e487b7160e01b875260118852602487fd5b6020813d60201161030e575b816102ef60209383610371565b8101031261030a5751801515036103065738610235565b8580fd5b8680fd5b3d91506102e2565b85513d89823e3d90fd5b815162461bcd60e51b8152602081870152601060248201526f09aeae6e840e0e4deecd2c8ca408aa8960831b6044820152606490fd5b600435906001600160a01b038216820361036c57565b600080fd5b90601f8019910116810190811067ffffffffffffffff82111761039357604052565b634e487b7160e01b600052604160045260246000fd5b6000546001600160a01b031633036103bd57565b60405163118cdaa760e01b8152336004820152602490fdfea2646970667358221220cde6ebdf420a80660cbb98bbfae88efa060f1d80365ef66bfc6a417c34547f5264736f6c63430008180033801b50b59a9c797b08c62fe4c8bee1aff31ff3246d488e359cedfc8e75ffd05fa26469706673582212204c3b52a85f82102b0fa4205ad969a6cf9234099165a3b14810ff0864a75947e064736f6c63430008180033608080604052346100b8577ff0c57e16840df040f15088dc2f81fe391c3923bec73e23a9662efc9c229c6a009081549060ff8260401c166100a957506001600160401b036002600160401b031982821601610064575b60405161226090816100be8239f35b6001600160401b031990911681179091556040519081527fc7f505b2f371ae2175ee4913f4499e1f2633a7b5936321eed1cdaeb6115181d290602090a1388080610055565b63f92ee8a960e01b8152600490fd5b600080fdfe608080604052600436101561001357600080fd5b60003560e01c908163023b1fc91461146d5750806306fdde03146113c9578063095ea7b31461131657806318160ddd146112eb57806323b872dd146112b357806324a9d85314611291578063313ce567146112755780633f4218e0146112365780633f4ba83a1461117d57806340c10f19146110bf57806342966c68146110a257806343ff1fb814610ff35780634690484014610fc65780635a5c1823146109a65780635c975abb1461097657806370a082311461092f578063715018a6146108c5578063751fd179146107e757806379cc6790146107b75780638423df79146107945780638456cb59146106c15780638da5cb5b1461068b57806395d89b41146105a9578063a9059cbb14610578578063bb4628d11461048f578063c22dc7e7146103ea578063c45a0155146103c1578063cee7980c14610382578063dd62ed3e14610339578063e74b981b14610200578063eff1d50e146101d7578063f2fde38b146101ac5763fccc28131461018a57600080fd5b346101a75760003660031901126101a757602060405161dead8152f35b600080fd5b346101a75760203660031901126101a7576101d56101c86115fb565b6101d0611909565b611782565b005b346101a75760003660031901126101a7576005546040516001600160a01b039091168152602090f35b346101a7576020806003193601126101a75761021a6115fb565b9060018060a01b03806004541660405190638da5cb5b60e01b82528382600481845afa91821561032d57610264928491600091610300575b501633149081156102f6575b50611707565b821680156102bf576000805462010000600160b01b03191660109490941b62010000600160b01b0316939093179092556040519182527f167cccccc6e9b2892a740ec13fc1e51d3de8ea384f25bd87fee7412d588637e291a1005b60405162461bcd60e51b815260048101839052600f60248201526e496e76616c6964206164647265737360881b6044820152606490fd5b905033148561025e565b6103209150863d8811610326575b6103188183611660565b8101906116e8565b87610252565b503d61030e565b6040513d6000823e3d90fd5b346101a75760403660031901126101a7576103526115fb565b61036361035d611611565b91611627565b9060018060a01b03166000526020526020604060002054604051908152f35b346101a75760203660031901126101a7576001600160a01b036103a36115fb565b166000526003602052602060ff604060002054166040519015158152f35b346101a75760003660031901126101a7576004546040516001600160a01b039091168152602090f35b346101a75760203660031901126101a7576004358015158091036101a75760048054604051638da5cb5b60e01b81526001600160a01b039391841692602090829081865afa92831561032d577f58d55705c6f0421e19500567e258f86b7da5cd924a6a9d7d759f82ff2ad413b7946020946104779360009161030057501633149081156102f65750611707565b60ff196002541660ff821617600255604051908152a1005b346101a75760403660031901126101a7576104a86115fb565b6104b06116d9565b60048054604051638da5cb5b60e01b815292936001600160a01b039182169392602090849081875afa801561032d577f984e1b4f4af5d0948a5ddaad4cfd8980aeb249aac7f9d2e574dacffd7c51a44c94836105229260209660009161055b575b501633149081156105515750611707565b169283600052600382526105468160406000209060ff801983541691151516179055565b6040519015158152a2005b905033148761025e565b6105729150873d8911610326576103188183611660565b89610511565b346101a75760403660031901126101a75761059e6105946115fb565b60243590336118cc565b602060405160018152f35b346101a75760003660031901126101a757604051600060008051602061214b8339815191528054906105da82611748565b8085529160209160019182811690811561065e5750600114610617575b6106138661060781880382611660565b604051918291826115b2565b0390f35b600090815293506000805160206121eb8339815191525b83851061064b5750505050810160200161060782610613856105f7565b805486860184015293820193810161062e565b90508695506106139693506020925061060794915060ff191682840152151560051b8201019293856105f7565b346101a75760003660031901126101a75760008051602061216b833981519152546040516001600160a01b039091168152602090f35b346101a75760003660031901126101a75760048054604051638da5cb5b60e01b8152916001600160a01b039182169190602090849081855afa801561032d5761071d93600091610775575b5016331490811561076b5750611707565b610725611dec565b6000805160206121cb833981519152600160ff198254161790557f62e78cea01bee320cd4e420270b5ea74000d11b0c9f74754ebdbfc544b05a2586020604051338152a1005b905033148261025e565b61078e915060203d602011610326576103188183611660565b8461070c565b346101a75760003660031901126101a757602060ff600254166040519015158152f35b346101a75760403660031901126101a7576101d56107d36115fb565b602435906107e28233836117f6565b611942565b346101a75760403660031901126101a7576108006115fb565b6108086116d9565b60048054604051638da5cb5b60e01b81526001600160a01b0391821694909392602090859081885afa801561032d577f9f1eaee9ad9cb68284f0dc523aa42c465ed33b53f8da7fc7294ccea47358bbdf9583610879926040976000916108ac57501633149081156105515750611707565b169081600052600160205261089d81846000209060ff801983541691151516179055565b825191825215156020820152a1005b610572915060203d602011610326576103188183611660565b346101a75760003660031901126101a7576108de611909565b60008051602061216b83398151915280546001600160a01b031981169091556000906001600160a01b03167f8be0079c531659141344cd1fd0a4f28419497f9722a3daafe3b4186f6b6457e08280a3005b346101a75760203660031901126101a7576001600160a01b036109506115fb565b1660005260008051602061212b8339815191526020526020604060002054604051908152f35b346101a75760003660031901126101a757602060ff6000805160206121cb83398151915254166040519015158152f35b346101a75760a03660031901126101a75760043567ffffffffffffffff81116101a7576109d7903690600401611682565b60243567ffffffffffffffff81116101a7576109f7903690600401611682565b906001600160a01b0360443580821690036101a75760643581811681036101a7576084359361ffff851685036101a75760008051602061220b833981519152549367ffffffffffffffff851680159081610fb6575b6001149081610fac575b159081610fa3575b50610f9157600167ffffffffffffffff1986161760008051602061220b8339815191525560ff8560401c1615610f64575b610a97611dbd565b610a9f611dbd565b80519067ffffffffffffffff8211610e30578190610acb60008051602061210b83398151915254611748565b601f8111610ee3575b50602090601f8311600114610e5157600092610e46575b50508160011b916000199060031b1c19161760008051602061210b833981519152555b80519067ffffffffffffffff8211610e30578190610b3a60008051602061214b83398151915254611748565b601f8111610dac575b50602090601f8311600114610d1e57600092610d13575b50508160011b916000199060031b1c19161760008051602061214b833981519152555b610b85611dbd565b610b8d611dbd565b610b98604435611782565b610ba0611dbd565b816bffffffffffffffffffffffff60a01b9116816004541617600455600054908260443516906005541617600555606461ffff8516101580610d03575b15610cbe5761ffff60ff94169062010000600160b01b0360443560101b169069ffffffffffffffffffff60b01b161717600055604435166000526001602052604060002082199060018282541617905530600052604060002060018282541617905561dead60005260406000206001828254161790556002541660025560401c1615610c6557005b68ff00000000000000001960008051602061220b833981519152541660008051602061220b833981519152557fc7f505b2f371ae2175ee4913f4499e1f2633a7b5936321eed1cdaeb6115181d2602060405160018152a1005b60405162461bcd60e51b815260206004820152601f60248201527f466565206d757374206265203130302d33303020627073202831252d332529006044820152606490fd5b5061012c61ffff85161115610bdd565b015190508680610b5a565b60008051602061214b83398151915260009081526000805160206121eb8339815191529350601f198516905b818110610d945750908460019594939210610d7b575b505050811b0160008051602061214b83398151915255610b7d565b015160001960f88460031b161c19169055868080610d60565b92936020600181928786015181550195019301610d4a565b90915060008051602061214b833981519152600052601f830160051c6000805160206121eb833981519152019060208410610e1a575b90601f8493920160051c6000805160206121eb83398151915201905b818110610e0b5750610b43565b60008155849350600101610dfe565b6000805160206121eb8339815191529150610de2565b634e487b7160e01b600052604160045260246000fd5b015190508780610aeb565b925060008051602061210b8339815191526000526000805160206120eb833981519152906000935b601f1984168510610ec8576001945083601f19811610610eaf575b505050811b0160008051602061210b83398151915255610b0e565b015160001960f88460031b161c19169055878080610e94565b81810151835560209485019460019093019290910190610e79565b90915060008051602061210b833981519152600052601f830160051c6000805160206120eb8339815191520160208410610f4f575b908392915b601f820160051c6000805160206120eb833981519152018110610f405750610ad4565b60008155849350600101610f1d565b506000805160206120eb833981519152610f18565b68ffffffffffffffffff198516680100000000000000011760008051602061220b83398151915255610a8f565b60405163f92ee8a960e01b8152600490fd5b90501587610a5e565b303b159150610a56565b604087901c60ff16159150610a4c565b346101a75760003660031901126101a75760005460405160109190911c6001600160a01b03168152602090f35b346101a75760203660031901126101a75761100c6115fb565b60048054604051638da5cb5b60e01b81526001600160a01b0393929091841690602090839081845afa91821561032d5761105b928591600091611083575b501633149081156110795750611707565b166bffffffffffffffffffffffff60a01b6005541617600555600080f35b905033148461025e565b61109c915060203d602011610326576103188183611660565b8661104a565b346101a75760203660031901126101a7576101d560043533611942565b346101a75760403660031901126101a7576110d86115fb565b602435906110e4611909565b6001600160a01b03169081156111645760008051602061218b83398151915280549082820180921161114e576000926000805160206121ab833981519152926020925584845260008051602061212b833981519152825260408420818154019055604051908152a3005b634e487b7160e01b600052601160045260246000fd5b60405163ec442f0560e01b815260006004820152602490fd5b346101a75760003660031901126101a75760048054604051638da5cb5b60e01b8152916001600160a01b039182169190602090849081855afa801561032d576111d893600091610775575016331490811561076b5750611707565b6000805160206121cb833981519152805460ff8116156112245760ff191690557f5db9ee0a495bf2e6ff9c91a7834c1ba4fdd244a5e8aa4e537bd38aeae4b073aa6020604051338152a1005b604051638dfc202b60e01b8152600490fd5b346101a75760203660031901126101a7576001600160a01b036112576115fb565b166000526001602052602060ff604060002054166040519015158152f35b346101a75760003660031901126101a757602060405160128152f35b346101a75760003660031901126101a757602061ffff60005416604051908152f35b346101a75760603660031901126101a75761059e6112cf6115fb565b6112d7611611565b604435916112e68333836117f6565b6118cc565b346101a75760003660031901126101a757602060008051602061218b83398151915254604051908152f35b346101a75760403660031901126101a75761132f6115fb565b6024359033156113b0576001600160a01b03169081156113975761135233611627565b82600052602052806040600020556040519081527f8c5be1e5ebec7d5bd14f71427d1e84f3dd0314c0f7b2291e5b200ac8c7c3b92560203392a3602060405160018152f35b604051634a1406b160e11b815260006004820152602490fd5b60405163e602df0560e01b815260006004820152602490fd5b346101a75760003660031901126101a757604051600060008051602061210b8339815191528054906113fa82611748565b8085529160209160019182811690811561065e5750600114611426576106138661060781880382611660565b600090815293506000805160206120eb8339815191525b83851061145a5750505050810160200161060782610613856105f7565b805486860184015293820193810161143d565b346101a7576020806003193601126101a7576004359161ffff83168093036101a75760048054638da5cb5b60e01b83526001600160a01b03908116918490849081855afa801561032d576114d39360009161159b57501633149081156110795750611707565b606482106115575761012c821161151c57817fdc6955ea20a55f86ea1771707139f41c9203dc8e859a084e1cc80d6902417cff9261ffff196000541617600055604051908152a1005b6064906040519062461bcd60e51b8252600482015260146024820152734665652063616e6e6f742065786365656420332560601b6044820152fd5b6064906040519062461bcd60e51b82526004820152601a60248201527f4665652063616e6e6f74206265206c657373207468616e2031250000000000006044820152fd5b61109c9150853d8711610326576103188183611660565b6020808252825181830181905290939260005b8281106115e757505060409293506000838284010152601f8019910116010190565b8181018601518482016040015285016115c5565b600435906001600160a01b03821682036101a757565b602435906001600160a01b03821682036101a757565b6001600160a01b031660009081527f52c63247e1f47db19d5ce0460030c497f067ca4cebf71ba98eeadabe20bace016020526040902090565b90601f8019910116810190811067ffffffffffffffff821117610e3057604052565b81601f820112156101a75780359067ffffffffffffffff8211610e3057604051926116b7601f8401601f191660200185611660565b828452602083830101116101a757816000926020809301838601378301015290565b6024359081151582036101a757565b908160209103126101a757516001600160a01b03811681036101a75790565b1561170e57565b60405162461bcd60e51b815260206004820152601260248201527127b7363c903330b1ba37b93c9037bbb732b960711b6044820152606490fd5b90600182811c92168015611778575b602083101461176257565b634e487b7160e01b600052602260045260246000fd5b91607f1691611757565b6001600160a01b039081169081156117dd5760008051602061216b83398151915280546001600160a01b031981168417909155167f8be0079c531659141344cd1fd0a4f28419497f9722a3daafe3b4186f6b6457e0600080a3565b604051631e4fbdf760e01b815260006004820152602490fd5b919061180183611627565b9260018060a01b0390818316916000958387526020526040862054936000198510611830575b50505050505050565b85851061189b575081161561188257811561186957906118536040949392611627565b9085526020520391205538808080808080611827565b604051634a1406b160e11b815260048101869052602490fd5b60405163e602df0560e01b815260048101869052602490fd5b604051637dc7a0d960e11b81526001600160a01b039190911660048201526024810185905260448101869052606490fd5b91906001600160a01b03808416156118f057811615611164576118ee92611be2565b565b604051634b637e8f60e11b815260006004820152602490fd5b60008051602061216b833981519152546001600160a01b0316330361192a57565b60405163118cdaa760e01b8152336004820152602490fd5b906001600160a01b038216156118f0576118ee9161197b565b8181029291811591840414171561114e57565b9190820391821161114e57565b6001600160a01b0380821692919083151580611bda575b6119a157506118ee9250611ef3565b6119a9611dec565b60ff8060025416611b26575b600684028481046006148515171561114e57620186a090049081611b17575b60009586526001602052806040872054168015611b07575b159081611af8575b81611aeb575b5015611a8a57611a2690611a21612710611a1961ffff8954168861195b565b04809661196e565b61196e565b938415611a4557611a3a6118ee9584611ef3565b5460101c1690611fd7565b60405162461bcd60e51b815260206004820152601b60248201527f416d6f756e7420746f6f20736d616c6c206166746572206665657300000000006044820152606490fd5b91935050611a979161196e565b8015611aa6576118ee91611ef3565b60405162461bcd60e51b815260206004820152601b60248201527f416d6f756e7420746f6f20736d616c6c206166746572206275726e00000000006044820152606490fd5b90506002541615386119fa565b865461ffff16151591506119f4565b50858052806040872054166119ec565b611b218285611e17565b6119d4565b60008260008051602061216b8339815191525416808714908115611bd1575b50611bc9575b801580611ba0575b611b98575b6119b55760405162461bcd60e51b8152602060048201526014602482015273151c985b9cd9995c9cc81c995cdd1c9a58dd195960621b6044820152606490fd5b506001611b58565b50856000526003602052816040600020541680611b535750600080528160406000205416611b53565b506001611b4b565b90501538611b45565b506000611992565b9091906001600160a01b0380821680151580611db2575b611c09575050916118ee92611fd7565b611c11611dec565b60ff8060025416611cf9575b600685028581046006148615171561114e57620186a090049081611cea575b60009283526001602052806040842054168015611cd8575b159081611cc9575b81611cbc575b5015611c9e57611c8990611a21612710611c8161ffff8654168961195b565b04809761196e565b948515611a45576118ee95611a3a9185611fd7565b915050611cac91939261196e565b908115611aa6576118ee92611fd7565b9050600254161538611c62565b835461ffff1615159150611c5c565b50838716835280604084205416611c54565b611cf48286611e17565b611c3c565b60008360008051602061216b8339815191525416808414908115611da6575b50611d9e575b801580611d73575b611d6b575b611c1d5760405162461bcd60e51b8152602060048201526014602482015273151c985b9cd9995c9cc81c995cdd1c9a58dd195960621b6044820152606490fd5b506001611d2b565b50826000526003602052816040600020541680611d2657508387166000528160406000205416611d26565b506001611d1e565b90508488161438611d18565b508185161515611bf9565b60ff60008051602061220b8339815191525460401c1615611dda57565b604051631afcd79f60e31b8152600490fd5b60ff6000805160206121cb8339815191525416611e0557565b60405163d93c066560e01b8152600490fd5b6001600160a01b0381169081611e84575060008051602061218b83398151915280549083820180921161114e57555b6000805160206121ab833981519152602061dead938460005260008051602061212b83398151915282526040600020818154019055604051908152a3565b8160005260008051602061212b8339815191528060205260406000205491848310611ec057509083918360005260205203604060002055611e46565b60405163391434e360e21b81526001600160a01b0391909116600482015260248101929092525060448101839052606490fd5b6001600160a01b0381169081611f56575060008051602061218b83398151915280549083820180921161114e576000936000805160206121ab83398151915292602092555b60008051602061218b833981519152818154039055604051908152a3565b92918160005260008051602061212b8339815191528060205260406000205494828610611fa65750816000805160206121ab83398151915292600095966020938688528452036040862055611f38565b60405163391434e360e21b81526001600160a01b039190911660048201526024810186905260448101839052606490fd5b6001600160a01b038082169290918361206957509060008051602061218b8339815191529081549285840180941161114e576000805160206121ab83398151915293602093555b1693846120445760008051602061218b8339815191528181540390555b604051908152a3565b8460005260008051602061212b8339815191528252604060002081815401905561203b565b8360005260008051602061212b83398151915280602052604060002054918683106120b7575091856000805160206121ab83398151915294926020948760005285520360406000205561201e565b60405163391434e360e21b81526001600160a01b0391909116600482015260248101929092525060448101859052606490fdfe2ae08a8e29253f69ac5d979a101956ab8f8d9d7ded63fa7a83b16fc47648eab052c63247e1f47db19d5ce0460030c497f067ca4cebf71ba98eeadabe20bace0352c63247e1f47db19d5ce0460030c497f067ca4cebf71ba98eeadabe20bace0052c63247e1f47db19d5ce0460030c497f067ca4cebf71ba98eeadabe20bace049016d09d72d40fdae2fd8ceac6b6234c7706214fd39c1cd1e609a0528c19930052c63247e1f47db19d5ce0460030c497f067ca4cebf71ba98eeadabe20bace02ddf252ad1be2c89b69c2b068fc378daa952ba7f163c4a11628f55a4df523b3efcd5ed15c6e187e77e9aee88184c21f4f2182ab5827cb3b7e07fbedcd63f0330046a2803e59a4de4e7a4c574b1243f25977ac4c77d5a1a4a609b5394cebb4a2aaf0c57e16840df040f15088dc2f81fe391c3923bec73e23a9662efc9c229c6a00a264697066735822122085ed5bc81612ad3c55aa36f627bf5b7d1e69c71907bb7c05366e4f9d638defd964736f6c63430008180033",
  "linkReferences": {},
  "deployedLinkReferences": {}
}